S0170000666F635F6472697665725F435055302E7372656373
S315020000000080002225010002A50B00022101000248
S315020000102101000221010002210100022101000248
S3150200002000000000000000000000000021010002A4
S31502000030210100020000000021010002210100024C
S31502000040E50D0002910E0002410F0002810F00022F
S31502000050C10F0002111000024510000279100002C1
S31502000060AD100002E110000231160002151700025F
S315020000701511000215110002991100023116000233
S31502000080151700021511000215110002991500023A
S315020000900348044B834202D0034B03B1184770470F
S315020000A028F1C90228F1C90200000000064B0749DF
S315020000B0C91A891048BF0131491003D0044B0BB14C
S315020000C001481847704700BF28F1C90228F1C90242
S315020000D00000000010B5064C237843B9FFF7D8FF9D
S315020000E0044B13B10448AFF300800123237010BD03
S315020000F0308000220000000028F1C90208B5054B35
S315020001001BB105490548AFF30080BDE80840FFF77B
S31502000110CDBF00BF000000003480002228F1C902D2
S3150200012000BE704708B500F037F801F069FBFEE73C
S31502000130F8B5174F05463E68A6B17C6806EB46063B
S3150200014004EB860602E00C34B4420BD0637AAB426F
S31502000150F9D1D4E900020021121A0C3401F070FB25
S31502000160B442F3D1BE6896B1FC6804EB061602E00F
S315020001701034A6420BD0637BAB42F9D1D4E900021C
S31502000180A168121A103401F063FBA642F3D1F8BD3E
S315020001907818000200000000F8B5644A644B5A6100
S315020001A0BFF34F8FBFF36F8F1B6803F47002B2F574
S315020001B0801F00F0928013F4600F7AD05D4A1368B4
S315020001C023F004031360BFF34F8FBFF36F8F4FF417
S315020001D07002594B564C0020C4F88820A36001F0E7
S315020001E023FB002500F0BCF94AF202514FF42542E6
S315020001F0524B0120A3F8FA1383F8B05AA3F8FA2354
S3150200020001F012FB4E4B83F30A884A4B1A68920797
S3150200021003D5A268B2F1007F63D00020FFF788FF02
S3150200022000F098F800F01AFC032000F023FD0023EA
S315020002304FF00E0E1C464EF001E0424903F10C024D
S3150200024021F8224001330FF007C8032000F0E2FC38
S31502000250032000F00FFD3C4B03205C609C60DC60D9
S315020002601C6100F0D7FC022001F0DEFA0120FFF744
S315020002705FFFBFF34F8FBFF36F8F2D4BC3F8504213
S31502000280BFF34F8FBFF36F8F304B314D5B1B002B8C
S315020002904FEAA30606DD002455F8043B01349847CD
S315020002A0A642F9DC00F0A0FCBDE8F840002000F010
S315020002B02DBC204A136843F004031360BFF34F8F2B
S315020002C0BFF36F8F4FF0E022936843F4803393605D
S315020002D0BFF34F8FBFF36F8F79E719077FF46EAFC6
S315020002E069E701211A695869C2F3C302093201FAA0
S315020002F002F300260027DB0843F007C0AFF30080B5
S31502000300E5E802670FF005C0C0F3C303093301FA3B
S3150200031003F34FF00052DB0843F007C0AFF300804F
S31502000320E2E802670FF005C077E700BF01020E00A0
S3150200033000ED00E000E001E00000000200E0014004
S3150200034000000022000D4040004020400C1C00022C
S31502000350081C00021D4A92F82630928CDBB202F08B
S315020003600F02A2F1080103292BD8DFE801F02016BB
S315020003700C021749174A51F82330A2FB03231B0923
S31502000380154A136070471249124A51F82330A2FBEC
S315020003900323114ADB08136070470D490D4A51F8D1
S315020003A02330A2FB03230C4A9B08136070470849BB
S315020003B0084A51F82330A2FB0323074A5B0813605D
S315020003C07047034951F82330D340D9E700E0014092
S315020003D000800022ABAAAAAA4C800022704700BF66
S315020003E04AF20351F8B5594B594AB3F8FA43A3F8FE
S315020003F0FA1353680746D903A4B21AD5544B0025FB
S315020004005A68920329D50026504A524992F8753005
S3150200041092F86D2003F00F0302F00F0251F8233019
S31502000420072A00F28D80DFE802F0292929878981CF
S315020004308385EFF31086012585F31088536843F40C
S315020004408033536053681E20294600F067FB86F30B
S3150200045010883F4B5A689203D5D4EFF310860121D8
S3150200046081F310885A6842F400325A605B681E2093
S3150200047000F054FB86F310880226C5E7012101FA33
S3150200048002F2B3FBF2F30121334AA2FB03239B0CD4
S3150200049003FA01F000F042FB2C4A92F8753043F061
S315020004A0400382F8753092F87530DB09FBD07B7811
S315020004B082F86D303B7843F0400182F8751023498B
S315020004C082F8753091F87530DB09FBD135B9BEB9C2
S315020004D01E4B44F42544A3F8FA43F8BDEFF3108506
S315020004E0012181F310881A4B5A6822F480325A602D
S315020004F05B681E2000F012FB85F31088002EE7D001
S31502000500EFF31085012181F31088114B5A6822F40A
S3150200051000325A605B681E2000F000FB85F31088EB
S315020005200A4B44F42544A3F8FA43F8BD0322A8E78C
S315020005300522A6E70A22A4E70622A2E70822A0E7E6
S315020005401021083A01FA02F29BE700BF00E00140DF
S31502000550003020400080002283DE1B4300000000A2
S315020005604AF203529FEDBE4B9FEDBF5BC44BC5489B
S31502000570C54930B5C3E90801C44CC5499FEDBC6BFA
S315020005809FEDBD7B9962A4F8FA23A3EC045F83B0C6
S3150200059083ED007FFFF7DEFE09230A2284F8502A44
S315020005A084F8A23094F8003C23B994F8013C9C07E5
S315020005B000F04C82B54C94F8003C002B00F03B82D4
S315020005C00022B24B83F8012C83F8002C0022AF4B99
S315020005D083F8362083F8322093F83C201007FBD5A7
S315020005E040F2234400204FF6021140F25142A94D37
S315020005F0C3F8C850A3F84E4083F84A00C3F8AC10BB
S31502000600A3F84C20BFF34F8FBFF36F8FA24A5169F5
S3150200061021F400315161C2F85002BFF34F8FBFF38C
S315020006206F8F9E490A6822F440520A60BFF34F8FC9
S31502000630BFF36F8F0120197D944A60F30201197589
S31502000640137DD906FCD4954A136843F440531360CC
S31502000650BFF34F8FBFF36F8FA2F57342536913F443
S31502000660003311D1BFF34F8FBFF36F8FC2F85032F1
S31502000670BFF34F8FBFF36F8F536943F40033536158
S31502000680BFF34F8FBFF36F8F0023804A82F82A3061
S3150200069092F83C309B06FBD50022814B1A701A78E1
S315020006A01A781A785A68FA2A04D07E4959605A6822
S315020006B0FA2AFBD17A4B9A687D2A04D07A49996044
S315020006C09A687D2AFBD1052242F220216F4B774898
S315020006D01862998483F82620FFF73CFE01211E202A
S315020006E000F01CFA6E4A5368C3F30903642B84BFF5
S315020006F001231370FFF72EFE4AF201526C4B1A8049
S31502000700BFF35F8F01221A72BFF35F8F4FF4254248
S315020007105E491A8091F8DA3043F0400381F8DA3004
S3150200072091F8DA30DB09FBD0C923032081F8D40023
S3150200073081F8DA3091F8DA30544A03F0BF0381F8CF
S31502000740DA3092F8DA30DB09FBD10120802482F814
S31502000750300082F8520082F8530082F83E3082F866
S315020007603E4092F87430494943F0400382F87430AF
S3150200077091F87430DB09FBD007204A220A23434C46
S3150200078081F86C0081F8742081F8743094F8743022
S31502000790DB09FBD14FF0070301A8ADF80430FFF7E0
S315020007A01FFE94F87630394A43F0400384F87630D7
S315020007B092F87630DB09FBD0CA23032082F86E005A
S315020007C082F8763092F87630304903F0BF0382F829
S315020007D0763091F87630DB09FBD191F855302B4A09
S315020007E043F0400381F8553092F85530DB09FBD0CF
S315020007F0CA23022082F8540082F8553092F8553006
S31502000800224903F0BF0382F8553091F85530DB09CF
S31502000810FBD191F857301D4A43F0400381F8573017
S3150200082092F85730DB09FBD0C723002082F8560026
S3150200083082F8573092F85730144903F0BF0382F812
S31502000840573091F85730DB09FBD191F85D300F4AEA
S3150200085043F0400381F85D302CE000BFAFF3008027
S31502000860006CDC0200127A000080000000366E0185
S315020008700080000000CA9A3B0046C3235543DE139C
S31502000880008000220084D7170008AF2F00E0014045
S3150200089000389C1C022B010000ED00E000E001E0A4
S315020008A000C01340FA00001E7D0000E132342332FC
S315020008B00020004092F85D30DB09FBD0C62082F8AA
S315020008C05C3082F85D0092F85D30634903F0BF0345
S315020008D082F85D3091F85D30DB09FBD191F8783012
S315020008E05D4A43F0400381F8783092F87830DB09AC
S315020008F0FBD0C923022082F8700082F8783092F881
S315020009007830554903F0BF0382F8783091F8783091
S31502000910DB09FBD191F85B304F4A43F0400381F883
S315020009205B3092F85B30DB09FBD0C823022082F8E9
S315020009305A0082F85B3092F85B30474903F0BF03F6
S3150200094082F85B3091F85B30DB09FBD191F8DB3042
S31502000950414A43F0400381F8DB3092F8DB30DB0991
S31502000960FBD0C523022082F8D50082F8DB3092F84C
S31502000970DB30394903F0BF0382F8DB3091F8DB3014
S31502000980DB09FBD191F8DC30334A43F0400381F8AE
S31502000990DC3092F8DC30DB09FBD0C52082F8D63099
S315020009A082F8DC0092F8DC302B4903F0BF0382F8B0
S315020009B0DC3091F8DC30DB09FBD191F8DE30264AD7
S315020009C043F0400381F8DE3092F8DE30DB09FBD0DB
S315020009D0C823082082F8D80082F8DE3092F8DE308A
S315020009E01D4903F0BF0382F8DE3091F8DE30DB09E1
S315020009F0FBD191F8DD30184A43F0400381F8DD302F
S31502000A0092F8DD30DB09FBD0C823022082F8D7003A
S31502000A1082F8DD3092F8DD300F4903F0BF0382F829
S31502000A20DD3091F8DD30DB09FBD14FF42543A1F827
S31502000A30FA3303B030BD0121C82084F8001C00F04F
S31502000A406DF894F8003C012BFBD1B9E54FF47A70AE
S31502000A50FFF7C4FCBAE500BF00E0014038B5002547
S31502000A60284C0121C82084F8285000F057F884F851
S31502000A70245094F82430002BFBD194F824302149D9
S31502000A8043F0020384F8243091F82430C3F3400083
S31502000A909B07F9D41B4A81F8220092F8223003F010
S31502000AA0FF00002BF9D192F84030164960F3C713C4
S31502000AB082F8403091F84030DB09FBD191F84200D0
S31502000AC0104A63F3C71081F8420092F84230DB09FC
S31502000AD0FBD192F844000B4963F3C71082F8440035
S31502000AE091F84430C3F3C014DB09F9D1012000F0B8
S31502000AF0C1F8054B012083F84C4CBDE8384000F0A4
S31502000B0089B800BF0020204000E00140704700BFC6
S31502000B10A0F101000028FBD1704700BF1E4B1F4AFF
S31502000B201B6800FB01F1934213D302F1854202F5E1
S31502000B30071203F5742302F6834203F23F23A2FB54
S31502000B4003239B0CA3FB01314FF0FF30E1B1FFF70A
S31502000B50DFBF4FF47A7210B4114C4FF0FF30B4FB82
S31502000B60F3F3A1FB02C434B9BCFBF3F080B15DF828
S31502000B70044BFFF7CDBFB1FBF3F1A1FB0212002A32
S31502000B80F5D1084620B1F2E71846002BDFD17047AF
S31502000B905DF8044B704700BF4C80002200127A00B9
S31502000BA000CA9A3BF8B5002401260D4B0D4FD3F827
S31502000BB00021D3F82051154006FA04F32B4204D043
S31502000BC057F82430E0B203B198470134152CF3D11B
S31502000BD0034AC2F81051D2F820312B42FBD1F8BD9C
S31502000BE000C00040508000220022142310B407489F
S31502000BF0074C30F8021F02F5C65C013209B144F80F
S31502000C002C10013BF5D15DF8044B7047861B0002A0
S31502000C1000600040EFF31081012383F31088124B2A
S31502000C2033F8102092B22AB133F81020013A92B268
S31502000C3023F8102033F810309BB293B90B4A10B444
S31502000C40B2F8FA330A4C9BB234F8100043F4254347
S31502000C5023EA0003A2F8FA3381F310885DF8044B05
S31502000C60704781F310887047F880002200E0014047
S31502000C706C18000230B4EFF31081012383F310885D
S31502000C800E4A32F810309BB26BB90D4C0D4DB4F8CA
S31502000C90FA3335F810C09BB243EA0C0343F42543FA
S31502000CA09BB2A4F8FA3332F8103001339BB222F821
S31502000CB0103081F3108830BC704700BFF8800022E4
S31502000CC000E001406C18000203461A78052A3AD859
S31502000CD0DFE802F035291C170303052010B41A6950
S31502000CE01A49526992F8902002F00704C2F30212DE
S31502000CF0C1F88042C1F88C2218705DF8044B0020BE
S31502000D00704702224FF440701A70704704210F4A4E
S31502000D101970D2F88C124907D7D007234FF4806096
S31502000D20C2F88C3270470321084A1970D2F8801231
S31502000D304807CAD007230420C2F88032704701222E
S31502000D4003201A7070470020704700BF00803340AE
S31502000D502DE9F04391B09DF86050EFF30384204EE5
S31502000D60103C64B256F8246077699FB3CDE9042338
S31502000D70F369D6F818900193FF238DF80200ADF8B7
S31502000D801810ADF800508DF80830B9F1000F25D0D3
S31502000D90CC46C846BCE80F00EE4608AD0FC59CE837
S31502000DA00F0085E80F00BEE80F00A8E80F009EE8D6
S31502000DB00F008CE80F004846B847B36953B19C460A
S31502000DC00DF1200EBEE80F00ACE80F009EE80F0002
S31502000DD08CE80F00204611B0BDE8F083E946EAE749
S31502000DE0A88000222DE9F043264B83B0D3F8881C55
S31502000DF0D3F8A05C11F0010F14BF0727032715F0E3
S31502000E0001053DD0D3F8A45CD3F8B03C0727994638
S31502000E10EFF303831C4A103B5CB252F8248040462F
S31502000E20FFF752FF032F064625D00623002688F831
S31502000E3000304FF0FF0C2A464B4638460021CDF8CB
S31502000E4000C0FFF785FF01200E4A1049C2F89C0C2C
S31502000E5004F5C65351F8234024F4803441F8234064
S31502000E6051F82330D2F8803C002BFBD1C2F8006C3B
S31502000E7003B0BDE8F08398F80030042BE3D9D8E735
S31502000E80A946C5E700803340A880002200600040E2
S31502000E902DE9F043274B83B0D3F8881CD3F8A02C56
S31502000EA011F0020F14BF4FF007084FF00308C2F308
S31502000EB0400592073BD5D3F8A45CD3F8B03C4FF07B
S31502000EC007089946EFF303831B4A103B5CB252F8BC
S31502000ED024703846FFF7F8FEB8F1030F064622D013
S31502000EE0062300263B70FF272A464B464046002132
S31502000EF00097FFF72DFF02200E4A1049C2F89C0CFC
S31502000F0004F5C65351F8234024F4803441F82340B3
S31502000F1051F82330D2F8803C002BFBD1C2F8006C8A
S31502000F2003B0BDE8F0833B78042BE4D9DBE7A9469E
S31502000F30C8E700BF00803340A8800022006000405E
S31502000F4010B5FF2482B00022002301210094002064
S31502000F50FFF7FEFE0121084A084B00F5C650C2F80B
S31502000F60541D53F8202022F4803243F8202053F8EF
S31502000F70203002B010BD00BF008033400060004048
S31502000F8010B5FF2482B00022002302210094002023
S31502000F90FFF7DEFE0221084A084B00F5C650C2F8EA
S31502000FA0541D53F8202022F4803243F8202053F8AF
S31502000FB0203002B010BD00BF008033400060004008
S31502000FC070B5FF26104D82B0D5F8F44C0022C4F35A
S31502000FD008040023214600960A20FFF7B9FEC5F849
S31502000FE0F04CD5F8F82C094B64F3080200F5C6500C
S31502000FF0C5F8F82C53F8202022F4803243F820203A
S3150200100053F8203002B070BD0080334000600040CB
S3150200101010B5FF2482B0002200230121009409208A
S31502001020FFF796FE064B00F5C65053F8202022F431
S31502001030803243F8202053F8203002B010BD00BFA2
S315020010400060004010B5FF2482B000220023022176
S3150200105000940920FFF77CFE064B00F5C65053F8B4
S31502001060202022F4803243F8202053F8203002B0A8
S3150200107010BD00BF0060004010B5FF2482B0002200
S315020010800023042100940920FFF762FE064B00F5B7
S31502001090C65053F8202022F4803243F8202053F819
S315020010A0203002B010BD00BF0060004010B5FF2422
S315020010B082B000220023082100940920FFF748FE8F
S315020010C0064B00F5C65053F8202022F4803243F82E
S315020010D0202053F8203002B010BD00BF006000404F
S315020010E010B5FF2482B000220023102100940920AB
S315020010F0FFF72EFE064B00F5C65053F8202022F4C9
S31502001100803243F8202053F8203002B010BD00BFD1
S315020011100060004010B582B0EFF30383103B0D4A26
S315020011205BB203F5C65152F8210020F4803042F832
S31502001130210052F82120084A01A852F82340626988
S31502001140E36801929847A368DA680AB101221A771E
S3150200115002B010BD00600040A880002270B583690D
S3150200116084B004468C46164601AD9BB193E807004F
S3150200117085E8070083F804C0E169626918469E6043
S3150200118019609047A3691BB195E8070083E8070039
S3150200119004B070BD2B46EDE72DE9F041EFF3038273
S315020011A0103A794C53B203F5C65E54F82E104FEA44
S315020011B0830C21F480310CF1804C44F82E100CF58E
S315020011C0404CDCF80013714951F8230041680D7850
S315020011D0CE69012D09D043692BB1BDE8F041002249
S315020011E01146FFF7BBBFBDE8F0814FF00008D0E91A
S315020011F002178F60C1F84880C1F84C80C1F8508050
S3150200120054F82E1002F0FF0268F3104144F82E1033
S31502001210DCF80013BFF35F8F5D495B0902F01F0222
S3150200122005FA02F2603341F8232096F84830DA07CD
S3150200123003D596F92820424576DA9B0704D596F916
S315020012402930002B80F2878096F92A30002B53DA58
S3150200125096F92B30002B37DA96F92C30002B1BDA55
S3150200126096F92D30002BB6DB474A03F5C65152F8E4
S31502001270214024F4803442F8214052F82120BFF361
S315020012805F8F01215A09424C03F01F03603201FAB3
S3150200129003F344F822309EE73B4A03F5C65152F85F
S315020012A0214024F4803442F8214052F82120BFF331
S315020012B05F8F01215A09364C03F01F03603201FA8F
S315020012C003F344F82230CBE72F4A03F5C65152F80E
S315020012D0214024F4803442F8214052F82120BFF301
S315020012E05F8F01215A092A4C03F01F03603201FA6B
S315020012F003F344F82230AFE7234A03F5C65152F806
S31502001300214024F4803442F8214052F82120BFF3D0
S315020013105F8F01215A091E4C03F01F03603201FA46
S3150200132003F344F8223093E702F5C65354F823C078
S3150200133068F3104C44F823C054F82330BFF35F8F90
S31502001340540902F01F02954004F1600241F822504E
S3150200135096F8483071E70C4A03F5C65152F8214017
S3150200136024F4803442F8214052F82120BFF35F8FE3
S3150200137001215A09064C03F01F03603201FA03F3F6
S3150200138044F8223060E700BF00600040A8800022D7
S3150200139000E100E02DE9F84F0388DBB14FF0000AC7
S315020013A080464FF00109DFF8D4B00024314D4FEAF0
S315020013B0CA07D8F8043035F8022BD9198988914220
S315020013C00AD00134032CF4D1B8F800300AF1010A2C
S315020013D05345EAD8BDE8F88FDB5909FA04F603F05B
S315020013E0B853B3F1807F244BF6B293F84C2C12D04B
S315020013F0324230D104F120021BF81230DB09E0D070
S315020014001BF81230012123F08003C8200BF812309A
S31502001410FFF784FBD5E7324210D004F120021BF815
S315020014201230DB09CDD11BF81230012143F08003C3
S31502001430C8200BF81230FFF771FBC2E70120FFF755
S3150200144019FC0D4B012093F84C2C324383F84C2C9B
S31502001450FFF7E0FBE1E70120FFF70CFC064B01205A
S3150200146093F84C2C22EA060283F84C2CFFF7D2FBA7
S31502001470C0E700BFA81A000200E001400020204099
S31502001480F8B50446FFF786FFEFF31082012383F3D4
S315020014901088254E33681BB9402024490B75087500
S315020014A033680133336082F31088218849B3C90057
S315020014B00839C90860681E4D013107E01B01134453
S315020014C0013945F8234000F108001AD004688288E1
S315020014D0E7034FEA1223D2B2F0D502EB031C55F80A
S315020014E02CE01B0124F480372EF4803E134401398C
S315020014F045F82CE000F1080045F82C7045F8234029
S31502001500E4D1EFF31082012383F31088336813B119
S315020015103368013B336033681BB9802003490B757E
S31502001520087582F31088F8BDA4800022000D4040A1
S315020015300008404008B5034B03600846FFF7A0FFCA
S31502001540002008BD54524F50F0B5446985B0054697
S315020015500F466E46ECB194E80F0086E80F006A6803
S31502001560B7F5803F1268AB69226018BF0022E360BC
S3150200157008BFEB68204608BFDA68A7602B6962607D
S3150200158098476C691CB196E80F0084E80F0005B015
S31502001590F0BD3446E3E700BF38B5EFF30383103BF3
S315020015A0114A5BB203F5C65152F8210020F480308D
S315020015B042F8210052F821200C4A52F82350EB68D7
S315020015C01C68E3030AD434F4403400D138BD214602
S315020015D02846FFF7B9FFEB681C6138BD4FF480312E
S315020015E02846FFF7B1FFEEE700600040A880002220
S315020015F030B5836A85B004468C4601ADABB193E83B
S31502001600070085E8070062681846117883F804C067
S31502001610E26A19609A60636A9847A36A1BB195E801
S31502001620070083E8070005B030BD2B46EBE700BF95
S3150200163030B4EFF30382103A334953B203F5C6507E
S3150200164051F8204002F0FF0224F4803441F8204091
S3150200165051F820102D4951F823008168096D89013E
S3150200166005D54168497A012901D030BC704701216C
S31502001670274C5B0902F01F02203301FA02F244F8FA
S315020016802320BFF34F8FBFF36F8F436893F9023066
S31502001690002B08DA82680121936823F00103936024
S315020016A030BCFFF7A5BF5A0903F01F0301FA03F383
S315020016B0203244F82230BFF34F8FBFF36F8F846816
S315020016C0114BA26822F00102A260426892F902203E
S315020016D002F5C65453F8245025F4803543F82450B5
S315020016E053F82430BFF35F8F53099B0002F01F02A9
S315020016F003F16043914003F56143C3F88011196019
S31502001700012130BCFFF774BF00600040A8800022B0
S3150200171000E100E070B5EFF30383354A103B5CB29B
S3150200172052F82460736893F90230002B1CDAB3680E
S315020017309A6822F001029A601D6D2E4A9A662A0163
S3150200174051D4EB0141D405F0A055B5F1A05F45D0C7
S31502001750294A04F5C65352F8231021F4803142F87F
S31502001760231052F8233070BD01222448590903F090
S315020017701F03203102FA03F340F82130BFF34F8FE3
S31502001780BFF36F8FB0681C4B816821F00101816045
S31502001790716891F9021001F5C65053F8205025F4EC
S315020017A0803543F8205053F82030BFF35F8F4B0942
S315020017B09B0001F01F0103F160438A4003F5614378
S315020017C0C3F880211A60B368B6E70421304605F0F3
S315020017D0A055FFF70DFFB5F1A05FB9D1082130463C
S315020017E0FFF706FFB4E705213046FFF701FFA8E73A
S315020017F0A8800022000080FD0060004000E100E0B9
S3150200180008B500F003F8002008BD00BF4FF00270D3
S3150200181000214AF20152034B586483F85410A3F88C
S315020018206420704700F00040022800D07047024949
S315020018300248FFF77FBE00BFB01A000204810022F1
S3150200184002440346934200D1704703F8011BF9E7AD
S315020018500A44431E914200D1704710B511F8014B5C
S31502001860914203F8014FF9D110BD000001000200B8
S3150200187008001000200000000A000000301A0002D2
S3150200188018000000B01800020400000090180002C0
S315020018900000006800000068000000800000008070
S315020018A0000000700000007000000022000000220C
S315020018B00000006800000068000000900001090DA9
S315020018C000000068000000680000007800010B0DAF
S315020018D00000006800000068000000270001020DF9
S315020018E00000006800000068900000020001010D7F
S315020018F0000000800000008000000090000109083E
S3150200190000000080000000800000007800010B0843
S31502001910000000800000008000000027000102088D
S315020019200000008000000080900000020001010813
S315020019300000007000000070000000900001090A1B
S3150200194000000070000000700000007800010B0A21
S315020019500000007000000070000000270001020A6B
S315020019600000007000000070900000020001010AF1
S3150200197000000000000000000000009001010905BF
S3150200198000000000000000000000007801010B05C5
S315020019900000000000000000000000270100020510
S315020019A00000000000000000900000020100010596
S315020019B00000002000000020000000900101090440
S315020019C000000020000000200000007801010B0446
S315020019D00000002000000020000000270100020491
S315020019E00000002000000020900000020100010417
S315020019F000000022000000220000009000010903FE
S31502001A0000000022000000220000007800010B0303
S31502001A10000000220000002200000027000002034E
S31502001A2000000022000000229000000200000103D4
S31502001A3000000068000000680001000D0000006858
S31502001A40000000680001000D000000800000008018
S31502001A50000100080000008000000080000100086C
S31502001A6000000070000000700001000A0000007013
S31502001A70000000700001000A0000000000000000E3
S31502001A800100000500000020000000200100000403
S31502001A900000002200000022000000033080002225
S31502001AA00C81002200000003020403040404000067
S31502001AB019000000BC1A00020000000000800000AD
S31502001AC0000000000080000002000000008000000C
S31502001AD004000000008000000600000000800000F4
S31502001AE00700000000800000080000000004010654
S31502001AF000010000000401060101000000000106C9
S31502001B0002010000000401060F01000000000103AB
S31502001B1002020000000001030302000000000103AC
S31502001B200402000000000103050200000000010596
S31502001B300802000000000105090200000000010081
S31502001B400A020000000001000B020000040000006F
S31502001B500103000004000000080300000000010366
S31502001B600006000000000103010600000004010651
S31502001B7009060000000001060A0600000400000033
S31502001B80020900000000000066036E034D034E03C7
S31502001B904C0356035703580359035A031C031B03EA
S31502001BA040004300870121032003410042005B00FD
S31502001BB04275696C7420776974682052656E657324
S31502001BC0617320416476616E63656420466C657854
S31502001BD069626C6520536F66747761726520506125
S31502001BE0636B6167652076657273696F6E20362E48
S31502001BF0332E3000362E332E30000000000003064E
S30902001C00F8B500BF6C
S30902001C04F8B500BF68
S30902001C08FD000002D1
S30902001C0CD5000002F5
S30D02001C10FCFBFF7F010000004E
S30902C9F040FFFFFFFFFF
S30902C9F044EFFFFFFF0B
S30902C9F0C0FFFFFFFD81
S30902C9F0C4FFFFFFFF7B
S30902C9F120000000001A
S30902C9F1240000000016
S70502000125D2
