:020000040200F8
:10000000A00A0022191A000205240002151A000293
:10001000151A0002151A0002151A0002151A00021C
:10002000000000000000000000000000151A00029F
:10003000151A000200000000151A00024D180002F7
:1000400000000000000000000000000000000000B0
:1000500000000000000000000000000000000000A0
:100060000000000000000000000000000000000090
:1000700000000000000000009D1900025936000237
:10008000513700029D370002152C0002992D000205
:0C009000712E0002152C0002E52C00026D
:10009C00F8B505460F4600F0DBF80122284B15F0A9
:1000AC00805683F800283DD048F20161254A118022
:1000BC0067B3244C237CDB09FCD1237C5A06FCD48B
:1000CC002022FF21284600F0C7F82035013FBFF35E
:1000DC005F8FBFF34F8FBFF36F8F4CF201332386CB
:1000EC00237C9B06FCD5237CDB09FCD1002FE1D1C2
:1000FC00134B83F8007893F8003800F0A5F85EB93C
:10010C004FF4D0420F4B00209A80F8BD83F8007852
:10011C0093F8003800F098F84FF40642094B002091
:10012C001A80F8BD46F60101064A9180002FC0D115
:10013C0083F8007893F8003800F086F8E0E700BF09
:10014C0000E0134000F013402DE9F0410C46154639
:10015C00064600F07DF80122354B14F0805783F8E9
:10016C000028344A57D048F201611180002D42D04A
:10017C004CF201322F4B197CC909FCD1197CC1F30B
:10018C0080104906FAD41F2D42D904F01F08A8F19B
:10019C0020010D44C8F1200821464444A4EB010E73
:1001AC004EF001E0701E10F801CF01F801CB0FF0FA
:1001BC0007C0B8F1200F464406D0BFF35F8FBFF3E2
:1001CC004F8FBFF36F8F1A86197C8906FCD5197C6B
:1001DC00C909FCD1002DCED1154B83F8005893F8EA
:1001EC00003800F031F867B94FF4D042114B0020C1
:1001FC009A80BDE8F08183F8005893F8003800F03D
:10020C0023F84FF406420B4B00201A80BDE8F08116
:10021C00A8460546C0E746F601019180002DA7D1FE
:10022C0083F8005893F8003800F00EF8DCE700BFB4
:10023C0000E0134000F0134008B5084611461A467A
:10024C00FFF782FF002008BD5FF800F0D11C000210
:10025C005FF800F0BD1C00025FF800F0A13800024E
:10026C0010400000000000000043000200000000ED
:10027C000100000000000000000000001402002239
:10028C0001000000F8010022030000002100000022
:10029C007373000072730000000700000C0C000068
:1002AC0000606000010000001D0000000A0000005A
:1002BC0004000000010000003B00000014000000DE
:1002CC00040000000100000001030000080300000E
:1002DC00020300000209000001000000500200228D
:1002EC000000000060140022C81400223015002207
:1002FC0000000000000000000000000000000000F2
:10030C0000000000000000000000000000000000E1
:10031C0000000000000000000000000000000000D1
:0C032C00000000000000000000000000C5
:100338000348044B834202D0034B03B1184770476C
:1003480028F1C90228F1C90200000000064B07493C
:10035800C91A891048BF0131491003D0044B0BB1A9
:1003680001481847704700BF28F1C90228F1C9029F
:100378000000000010B5064C237843B9FFF7D8FFFA
:10038800044B13B10448AFF300800123237010BD60
:10039800D00A00220000000028F1C90208B5054B68
:1003A8001BB105490548AFF30080BDE80840FFF7D9
:1003B800CDBF00BF00000000D40A002228F1C90206
:1003C80008B501F04DFA01F00BFA01F0C3F901F09C
:1003D80099F84FF4FE6001F0C3F840F2FF7001F0A5
:1003E800BFF801F089FA00F03DF900F043FAFCE7A4
:1003F80001F0E2B901F0BCB901F0CEB908B501F0DD
:1004080057FA08BD01F0CEB803460A460820194637
:1004180000F09ABC03460A4640F2F170194600F013
:1004280089BB00BFF0B50D46074689B04FF460316F
:10043800284601F09DF9C8B90E4B0F4E9F423C4625
:1004480008BF4FF00176ED1B20226946204601F0D7
:10045800B3F9034628194BB92022694601F09CF9E3
:10046800203418B9B442EFD109B0F0BD4FF0FF30D5
:1004780009B0F0BD0080000200800702F0B5054613
:10048800DDB00C461646002183220DF1650003F00D
:1004980003FA2B7819AFA3F11002012A3B700ED989
:1004A800272B0CD0D4B1013CA4B2802C74D8ACB1A9
:1004B8002246691C0DF1660003F0FEF90EE0012CDE
:1004C8003ED9E31E6978A21E7F2B797094B205D8B5
:1004D8002246A91C0DF1660003F0EEF938463AA948
:1004E800A7F8824000F0EEFD3B78342B2AD09DF827
:1004F8006C31002B44D19DF8E830BDF86A2108A87A
:100508000370002A4BD0044601214FF03F0C0DF137
:10051800E80E0B461EF8015F01319A4204F8015FAC
:1005280089B236D0BCF1010CF3D1B04700F0D8FF46
:100538001C4C0130207001F0BBF9E0605DB0F0BDEB
:100548000024CBE79DF86C31002BD4D0AA7A6B7AC3
:10055800297ACDE90632EB79AA79CDE904316B79AC
:100568002979CDE90232EA78AB78CDE900210E4845
:100578006A78297800F0F0FB9DF86C31002BBAD02E
:100588007F229DF8E94008A8032144708370027017
:10059800CBE7013291B2C8E78022144689E70121EE
:1005A800C3E700BF900B00227842000270B5002616
:1005B800174D84B0202229461648CDE9016601ACC2
:1005C800039601F0F9F895E80700B0F15A3F84E87E
:1005D800070001D004B070BD01214FF0FF338DF842
:1005E8000F608DF80D1094E8070085E807002021BA
:1005F8000848C5E90333C5E90533EB6101F0B8F8EC
:1006080020222946034801F0C7F804B070BD00BF96
:10061800680B002200800702002310B582B0042274
:10062800694604460093019301F0C6F810B1002012
:1006380002B010BD04220DEB0201A01801F0BCF8B5
:100648000028F4D1009B03F16043B3F1407FEED85A
:10065800019800F17E40B0F5002F2CBF002001204A
:1006680002B010BDF0B5582285B00021754803F0DE
:1006780013F94FF46033744C724F40F2F1717348C0
:10068800C7E9014300F076F900F03CFB704800F040
:1006980049FB704801F06EF96F4800F05DFB214698
:1006A8006E4800F0F9FC0121022001F09BF801F0EE
:1006B800FFF86B4B6B4D186001F0FAF80023064603
:1006C800202229466848CDE90033FE60029301F0F4
:1006D80073F895E80700B0F15A3F6C468DE80700BB
:1006E80002D1624B99421CD04FF05A3000224FF091
:1006F800FF335E495E4ECDE90001029294E807009F
:10070800C6E9003385E8070020215748C6E90233C7
:10071800336101F02DF820225348A6F10C0101F0B5
:100728003BF89DF80830002B35D19DF8093063B9A6
:100738004548FFF771FF18B99DF80A30002B51D1D1
:100748000123404A137005B0F0BD9DF80B3001330A
:10075800DBB2022B8DF80B3006D99DF80A30002B3E
:1007680063D100238DF80B304FF0FF3394E8070076
:100778003F4EC6E9003385E8070020213A48C6E91C
:100788000233336100F0F4FF2022A6F10C01364851
:1007980001F002F8CCE700234FF001712A488DF8E8
:1007A8000830FFF73FFE10B901238DF80A304FF0EB
:1007B800FF3394E807002E4E85E8070020212A48D9
:1007C800C6E90033C6E90233336100F0D1FF2022C5
:1007D800A6F10C01244800F0DFFF0123194A137029
:1007E80005B0F0BD4FF001701749FFF71BFE002858
:1007F800A6D14FF0FF331E4E8DF80A0094E807008B
:1008080085E8070020211848C6E90033C6E9023305
:10081800336100F0ADFF2022A6F10C01124800F070
:10082800BBFF0948FFF7F8FE8AE74FF00170064959
:10083800FFF7F8FD002894D18DF809008DF80A001B
:100848008FE700BF900B002200800002D442000214
:1008580039190002410D0002C0420002DC420002C8
:10086800880B0022680B00220080070200010100AB
:10087800740B002210B53A4CA2B02378032B46D053
:1008880001F016F8374903460A68821AB2F57A7FEA
:1008980003D301200B6000F0BDFF00F0B3F905E0C1
:1008A8003148B4F8541000F077F8C8B92E4901F16E
:1008B8004002881E00F0DCFE0128F1D0002302A9C6
:1008C8000DF106020DF10500ADF8063000F06AFAE8
:1008D80090B92378012B20D0022B2AD022B010BD4A
:1008E800002302A8ADF8083000F01AF91F4ABDF835
:1008F8000810FFF7C3FDD9E79DF80530082BE8D1AC
:100908001B4ABDF8061002A8FFF7B8FDE1E76068CA
:1009180022B0BDE8104000F0D1BF00F0C9FF41F29D
:100928006F71E2680346821A8A420FD82378022B35
:10093800D4D100F0BDFFE368C31AB3F57A7FCDD3F5
:10094800E06000F0D7FD01232370C7E76068E3602B
:10095800FFF762FE0028E9D003232370BEE700BF3B
:10096800900B0022880B0022A40B00221D04000219
:100978001104000238B5074B05460C4640F21C42EC
:100988000021184602F088FFC0F81854A0F8084261
:1009980038BD00BFE80B0022C8B1C1B170B50278FC
:1009A80082B002F0F003202B13D053D8002B36D09E
:1009B8004378120202F4706213435A1EB2F5007FA4
:1009C80073D3564C03232370002002B070BD00205F
:1009D8007047524C2378012BF4D1A37902F00F020F
:1009E8009342EFD1A28865880139AD1AADB289B2B8
:1009F8008D4228BF0D460732013303F00F03411C17
:100A0800A0182A46A37102F057FFA28863881544EC
:100A1800ADB2AB42A580D7D80223237018E0002AD4
:100A280039D101293ED04278931C8B42CCD8154647
:100A3800811C00244FF0020C384B65F30F0465F35A
:100A48001F44D81D83F800C0C3F8024002F034FFE9
:100A58000120BAE7302BB7D1304C94F80732012B7C
:100A6800B2D112F00F0247D101294BD043780229A5
:100A780084F8113218BF82780221D4F8183484F827
:100A8800122284F807121BB15B680BB19847034622
:100A9800C4F8143298E7531CDBB28B4294D815463D
:100AA800411CC6E71546411CC3E78D1EADB29D42E9
:100AB80028BF1D4601220026184C811C2270A271F5
:100AC800E01D2A466380A68002F0F6FE4FF0300251
:100AD800D4F81834A580ADF804208DF80660002BF2
:100AE8003FF472AF1B68002B3FF46EAF0322B4F8DB
:100AF800080201A9984767E7012A06D0002384F86D
:100B0800073261E784F81122B6E7D4F81834002BCD
:100B1800BED05B68002BB9D10023B9E7E80B0022EF
:100B280010B1024B5B88038001487047E80B002234
:100B3800EF0B00222DE9F0430C4691B0002945D077
:100B4800531EB3F5007F154640D22D4E96F80792F6
:100B5800B9F1000F3AD13E2A07465FFA82F839D92F
:100B680006F5067002F0A8FE8DF80180A5F10208CE
:100B78001FFA88F8B8F13E0F28BF4FF03E0801234E
:100B8800A6F80C522D0A2146424645F010050DF1F3
:100B9800020086F807328DF80050A6F80E9286F803
:100BA8001092A6F80A7202F087FED6F81834A6F852
:100BB8000E823BB11B682BB108F102026946384628
:100BC80092B29847012011B0BDE8F083002011B01F
:100BD800BDE8F0830DF102008DF800908DF80180DA
:100BE80002F06AFED6F81834002BEBD01B68002BF5
:100BF800E8D0AA1C6946384692B29847E2E700BF97
:100C0800E80B00222DE9F043324C91B094F80732FA
:100C1800022B18D1D4F81834ABB15B689BB1984754
:100C2800D4F8143294F81222C31A934206460AD30F
:100C3800B4F80C82B4F80E92A8EB09039DB22DB952
:100C4800002384F8073211B0BDE8F0833E2D28BF99
:100C58003E2594F8107209F5067107F00F0343F06A
:100C680020032A4621440DF101008DF8003002F0DE
:100C780023FED4F818346BB11B685BB16A1C694653
:100C8800B4F80A0292B29847B4F80E9294F8107227
:100C9800B4F80C8205EB0903013794F811229BB2D2
:100CA80007F00F07A4F80E3284F81072C4F8146223
:100CB8006AB1C2EB42125200B3FBF2F102FB1132ED
:100CC8002AB94345BCD2012384F80732BBE7434520
:100CD800B9D3B5E7E80B002200B583B000F068F996
:100CE8000DF1060000F0A2F938B1BDF8061021B1E7
:100CF800034BD3F8843003B1984703B05DF804FB85
:100D08008810002208B5002000F076F8872200211C
:100D1800034802F0C1FD0123014A02F8013C08BD65
:100D280089100022034B1A7812B108B1C3F8840065
:100D3800704700BF88100022024B1B7803B9704728
:100D480000F080B988100022024B1B7803B9704765
:100D5800FFF7C2BF881000220FB410B50F4C82B045
:100D6800237823B902B0BDE8104004B0704705AB42
:100D78008021049A0A48019302F080FD0028F1DDE1
:100D88002378002BEED07F280246A8BF7F220620BA
:100D9800034992B2FFF7A0FFE4E700BF88100022E2
:100DA80008100022FF23F0B583B00D46144607460D
:100DB8000F490DF106020DF105008DF8053000F020
:100DC8002BF82E462546044670B10A49BDF8062080
:100DD8009DF80530A1F8822081F8813030463B70BB
:100DE80001312A8002F068FD204603B0F0BD00BF43
:100DF800891000228810002200218446054B862293
:100E080003F5827083F88BC1C3F8001183F88A1147
:100E180002F042BD101100222DE9F04F634CABB037
:100E2800B4F80091B4F802C109F58079A9EB0C0E69
:100E3800DEF10003DBB25FFA8EFE5EEA43BE0346D4
:100E48001FFA8EF00328039140F2AC804FF0000A9D
:100E58004AF2B95BCDE904320DF11F070EE00CF13F
:100E6800010C5FFA8CFCA9EB0C035FFA83FE13F00C
:100E7800FC0F4FF0010A704600F092805FFA8CF286
:100E8800531CA15CDBB2E25C61F3070562F31F252A
:100E98005D45E4D19BB21A468DF81C1007AE14F8D4
:100EA8000280013206F8018FB742D2B2F7D19DF81D
:100EB8001F80B8F1800FD2D808F1060686426CD898
:100EC8001FFA8EFEB64568DB8DF820100DF1210162
:100ED8006FEA010E08AAB6449644022E1FFA8EFE47
:100EE8000EF1010E38BF4FF0010E4EF001E0E05C4C
:100EF800013301F8010BDBB20FF007C808F1A803B2
:100F08006B4433F884EC111DCDE901A841444FF638
:100F1800FF70F0464FF0080E4EF001E012F8013B6A
:100F2800584000F0010303EB830A03EB4A3383EADA
:100F3800500398B20FF00BC88A42EBD1C6468645DB
:100F4800DDF804A0DDF8088089D1DDE90431BAF1C3
:100F5800000F01D0A4F802C19DF81E2003981A7052
:100F68004246A1F8008009A902F0A6FCB4F80031B5
:100F7800B4F8021103F580735B1A5A42D2B2DBB29D
:100F880053EA42B39BB29E4203D87318DBB2A4F86B
:100F9800023101202BB0BDE8F08FBAF1000F01D06B
:100FA800A4F802C100202BB0BDE8F08F1011002278
:100FB800802A00D970474AF2B953F0B5D6B283B047
:100FC800194F8DF806008DF80760ADF80430144607
:100FD800019B384647F8043C02F06EFC4FF6FF715F
:100FE800A7F5847504F1030C05F5827305F2031265
:100FF80013FA8CFC4FF0080E4EF001E012F8013F96
:10100800594001F0010303EB830003EB403383EA0B
:10101800510399B20FF00BC86245EBD1063639532C
:1010280085F88A6103B0F0BD18120022034630B17A
:10103800034890F88A2100F582701A80704770473B
:101048001011002210B50F4CB4F80031B4F8022189
:10105800D21AFF32D2F1000C5FFA8CFCD2B252EAFB
:101068004CB292B291420BD841B141F001E010F874
:10107800011B5A1CE154D3B20FF007C8A4F8003181
:1010880010BD00BF10110022042309BAA0F8823055
:10109800C0F80110704700BF00224FF0010C10B4D7
:1010A8004FF0FF34064BA3F800C01A75C3E9064099
:1010B800C3E901115DF8044B9A70DA601A61704750
:1010C800A0120022002800F0F7802DE9F04F0E460C
:1010D80089B0002941D0074686220021304602F017
:1010E800DBFB3C78A4F11003272B39D8DFE803F0A9
:1010F800435938383838383838383838383838383C
:1011080038386138383838763838383838383838F0
:10111800383838388138149BDFF8748398F80230EF
:10112800002B00F0DC80B7F88220002A00F03F8115
:1011380098F8143097F802900133DBB2994588F893
:10114800143000F0F180722343F27F610222B37001
:101158003180A6F8822086F8843009B0BDE8F08F87
:1011680011237F2102227470B3703170A6F8822097
:1011780086F88430F1E7B7F88220002A40F0AB8087
:101188007B78022B00F01B81012B40F01481C049B1
:101198000B808A705021012273703170A6F882206A
:1011A800DBE77B78012B00F09080122341F27F115E
:1011B800CCE7B7F88230022B40F0838049F2F10285
:1011C8007988914200F00581312242F27F21A6F808
:1011D8008230B270318086F88420BEE77B78012B9C
:1011E80000F08180022B00F08E80122342F27F7182
:1011F800ACE7DFF89C8298F80040022C5DD198F8A3
:101208000130002B00F02181B7F882300A2B00F062
:10121800EA80132343F27F42A6F88240B3703280FB
:1012280086F8843099E7B7F88230002B67D1DFF869
:10123800608298F80220002A00F0C480D8F81C20A8
:1012480088F80230002A00F006819368002B00F02D
:101258003281D8E902BA4FF0FF34BAF1000F00F03A
:101268001D8169468B4DBAF1200FD14628BF4FF03A
:10127800200958464A4698476946002840F0FC80AD
:101288006A460DEB09004FF0080E4EF001E012F827
:10129800013B5C4044F300032B4083EA54040FF005
:1012A80007C88242EFD1BAEB090ACB4400F0F680B6
:1012B800D8F81C309B68D6E77047222343F27F4159
:1012C80044E7132342F27F2140E740F25112A6F887
:1012D8008230328041E7132341F27F0136E722232F
:1012E80043F27F6132E7B7F88230002B40F0C080CC
:1012F80040F2671203233280A6F882302DE71323C9
:1013080043F27F7122E7B7F88230022B67D17B88DE
:10131800B3F5B44F63D1012340F267225C49A6F8C4
:1013280082304B70328018E7013A1FFA82FAD8F8F7
:101338000C30D8F80420D8F8100013441B1A534571
:10134800C0F0BF80D8F81C3043B15B6833B1524657
:10135800F91C98473C78D0BBD8F81000D8F818107A
:10136800BAF1000F13D002374A4D07EB0A024FF0CB
:10137800080E4EF001E017F8013F594041F3000311
:101388002B4083EA51010FF007C8BA42EFD100227F
:10139800012350444034C8F81810C8F8100086F8E3
:1013A8008420347086F80190A6F88230D5E613239D
:1013B80043F27F61CAE6122341F27F01C6E6344A4E
:1013C8001370E7E6222343F27F71BFE63C7872236D
:1013D800C7E60423304AA6F882303260BDE63323DC
:1013E80042F27F71B2E67B888BBBD7F80490D8F8BD
:1013F800083099FA89F9994529D1BD682DBA6B1E2B
:10140800B3F5603F23D2D8F81C3033B11B6823B141
:10141800294648469847002857D14FF0FF30012306
:101428000022C8F8180029463046C8E9035988F848
:10143800023088F814203B7886F8842040333370D3
:1014480009B0BDE8F04FFFF71FBE3323E2E63123B2
:1014580043F27F417AE6D8F818300133B7D1154600
:101468000023403429463046347086F88430E7E754
:10147800132342F27F7169E672237F2102223878B2
:10148800B37070703170A6F8822086F8843064E6F4
:10149800A01200222083B8ED62F19001D8F818302C
:1014A8009C4293D1D8F81C20E54312B1D36803B10C
:1014B80098473C78D4E7D8F81810013187D11D46F1
:1014C800F4E7312343F27F6140E672237F223978C3
:1014D800A6F882407170B370327086F884303CE6AA
:1014E800034B1878A0F10200B0FA80F04009704769
:1014F800A012002201210022014B19809A70704726
:10150800A012002208B50849084801F0E5F922228E
:101518000021074802F0C0F9012000220549064BC6
:1015280008701A7008BD00BFE04100024C0B002291
:10153800C812002234020022EA12002208B5054827
:1015480001F0D2F8012000220349044B08701A70F8
:1015580008BD00BF4C0B002234020022EA12002210
:1015680030B40F4D95F820400F2C0CD86CB16300A7
:10157800023B5B082A46013301E0013B05D032F803
:10158800021B8142F9D130BC70470123E21885F86B
:10159800202085F8213025F8140030BC704700BFA2
:1015A800C8120022002955D02DE9F843144612B17B
:1015B8002A4F3B780BB9BDE8F883082A06460D4642
:1015C80033D9402A47D8531F9B100833DBB20F2B5F
:1015D80028BF0F23DFF89480214A404612F8039071
:1015E8000021482202F058F9062348F8046CA8F1B3
:1015F80004082946224608F10C0088F80690C8F825
:10160800083002F059F94C4507D204F10C000021CA
:10161800A9EB0402404402F03FF900213970114A55
:101628001148BDE8F84301F0D9B85FFA82F80F4BCA
:1016380048220021184602F02FF9034640F8046CAE
:10164800062680F802802246294608305E6002F0AD
:1016580033F9E2E770474FF04008E8E73402002228
:10166800F0420002381300224C0B00223C130022E7
:101678000346B8B1B9B170B51446B2B10C4D2A7869
:1016880002F0FF0002B970BD0A4E0846326806F142
:101698000C011A80B279228002F00EF900232B7017
:1016A800012070BD704708467047104670BD00BFE6
:1016B800EA120022EC1200228388B3F5806F12D060
:1016C80007D8802B0BD023D8082B08D0102B06D096
:1016D8007047B3F5006F02D0B3F5805FF8D10122EF
:1016E800174B1A707047174A014692F82130B3B168
:1016F80092F820309BB15B00023B5B08B0F814C045
:10170800013332F8020B844509D0013BF9D1704707
:10171800B3F5807FE3D0B3F5007FD9D1DFE74C2262
:10172800143110B5084802F0C7F80121074B084AE0
:101738001B68117013B1BDE81040184710BD00BFF9
:1017480034020022C8120022EC120022C012002229
:10175800EA12002208B50449044801F0B1FC003837
:1017680018BF0120404208BD98410002F40A002237
:101778000A4659B11F32014608B55209054801F019
:101788000DFD003818BF0120404208BD4FF0FF3062
:10179800704700BFF40A002208B513460AB910467C
:1017A80008BD0246034802F0EFFC003818BF0120CC
:1017B800404208BDF40A002271B16AB100B542F096
:1017C80001E001304B1E411ACA5C03F8012F0FF0EB
:1017D80005C800205DF804FB4FF0FF30704700BFDC
:1017E800704700BF032800D9704770B504460D46FE
:1017F800064E0A1E18BF012236F82010044806EBD0
:10180800840601F073FBB57070BD00BF380200227A
:10181800EC0A0022032800D9704738B5074B03EBC0
:101828008005AC7833F82010B4FA84F464092246B1
:10183800034801F05BFBAC7038BD00BF38020022E2
:10184800EC0A002210B4054CD4E90023501C43F1E3
:101858000001C4E900015DF8044B704788130022B9
:1018680010B500F011F90D490D4801F01FFC0D4BA2
:101878000D4A1B68A2FB03239B09013BB3F1807F40
:101888000BD24FF0E0224FF0F00C00200721074C5C
:10189800536184F823C09061116110BDF8410002C2
:1018A800EC0A002294130022D34D621000ED00E0F0
:1018B800014BD3E900017047881300220B4B0C4AF7
:1018C80010B50446C3F8FC2F72B600F025F8FFF7F0
:1018D80035FE4FF0E02300221A612268636882F324
:1018E8000888044A9460BDE81040184700900E220A
:1018F800504D554A00ED00E008B50449044801F090
:101908004FFD0122034B1A7008BD00BFAC41000215
:101918001C0B00224802002208B5034801F0BEFC57
:101928000122024B1A7008BD1C0B0022480200223B
:10193800D0B1F8B50F4601B9F8BD0646FFF7B8FFB4
:101948000A4D044604E0FFF7B3FF031B312B02D80E
:101958002B78002BF7D000232B703A463146BDE890
:10196800F840034801F022BC704700BF480200223B
:101978001C0B0022014B1860704700BF9013002217
:101988000379022B02D10122014B1A70704700BF64
:101998004802002210B584B0EFF30383103B194AC4
:1019A8005BB203F5C65352F8231021F4803142F894
:1019B800231052F8233000216846102302F55412F0
:1019C80002F52452146D14F47C5F12D01478013B94
:1019D80001F1010100F8014BF4D11021936E43F09D
:1019E80000439366084B1B680BB16846984704B0E0
:1019F80010BD936E89B243F0004393660029F1D17C
:101A080004B010BD006000409013002200BE704773
:101A180008B500F039F8FEF7D3FCFEE7F8B5174F24
:101A280005463E68A6B17C6806EB460604EB8606CA
:101A380002E00C34B4420BD0637AAB42F9D1D4E95A
:101A480000020021121A0C3401F026FFB442F3D12F
:101A5800BE6896B1FC6804EB061602E01034A64294
:101A68000BD0637BAB42F9D1D4E90002A168121A0A
:101A7800103401F021FFA642F3D1F8BD0C44000256
:101A8800704700BF00000000F8B5644A644B5A6113
:101A9800BFF34F8FBFF36F8F1B6803F47002B2F56B
:101AA800801F00F0928013F4600F7AD05D4A1368AB
:101AB80023F004031360BFF34F8FBFF36F8F4FF40E
:101AC8007002594B564C0020C4F88820A360FFF7D9
:101AD800D7FF002500F0C4F94AF202514FF425421D
:101AE800524B0120A3F8FA1383F8B05AA3F8FA234B
:101AF800FFF7C6FF4E4B83F30A884A4B1A689207D2
:101B080003D5A268B2F1007F63D00020FFF786FFFB
:101B180000F098F800F022FC032000F0D7FC002326
:101B28004FF00E0E1C464EF001E0424903F10C0244
:101B380021F8224001330FF007C8032000F096FC7B
:101B4800032000F0C3FC3C4B03205C609C60DC601D
:101B58001C6100F08BFC0220FFF792FF0120FFF7C9
:101B68005DFFBFF34F8FBFF36F8F2D4BC3F850420C
:101B7800BFF34F8FBFF36F8F304B314D5B1B002B83
:101B88004FEAA30606DD002455F8043B01349847C4
:101B9800A642F9DC00F054FCBDE8F840002000F053
:101BA800DFBB204A136843F004031360BFF34F8F71
:101BB800BFF36F8F4FF0E022936843F48033936054
:101BC800BFF34F8FBFF36F8F79E719077FF46EAFBD
:101BD80069E701211A695869C2F3C302093201FA97
:101BE80002F300260027DB0843F007C0AFF30080AC
:101BF800E5E802670FF005C0C0F3C303093301FA33
:101C080003F34FF00052DB0843F007C0AFF3008046
:101C1800E2E802670FF005C077E700BF01020E0097
:101C280000ED00E000E001E00000000200E00140FB
:101C3800A0020022000D404000402040E84600027B
:101C4800E4460002174B184993F826009A8C51F87D
:101C5800203002F00F02A2F1080103291FD8DFE8A3
:101C680001F017100902114AA2FB03231B09104AAD
:101C7800136070470D4AA2FB03230D4ADB0813606B
:101C880070470A4AA2FB0323094A9B08136070475E
:101C9800064AA2FB0323064A5B0813607047D34039
:101CA800E5E700BF00E00140A00A0022ABAAAAAA0B
:101CB800941300220022034B1A701A781A781B78A2
:101CC800704700BF00C01340044A5368C3F30903B8
:101CD800642B84BF01231370704700BF00C01340FA
:101CE800704700BF4AF20351F8B5594B594AB3F847
:101CF800FA43A3F8FA1353680746D903A4B21AD5CE
:101D0800544B00255A68920329D50026504A524957
:101D180092F8753092F86D2003F00F0302F00F026D
:101D280051F82330072A00F28D80DFE802F02929D4
:101D3800298789818385EFF31086012585F310882B
:101D4800536843F48033536053681E20294600F0DB
:101D580011FB86F310883F4B5A689203D5D4EFF3F2
:101D68001086012181F310885A6842F400325A60C3
:101D78005B681E2000F0FEFA86F310880226C5E78D
:101D8800012101FA02F2B3FBF2F30121334AA2FB6B
:101D980003239B0C03FA01F000F0ECFA2C4A92F8AA
:101DA800753043F0400382F8753092F87530DB09DE
:101DB800FBD07B7882F86D303B7843F0400182F8A5
:101DC8007510234982F8753091F87530DB09FBD11D
:101DD80035B9BEB91E4B44F42544A3F8FA43F8BDFF
:101DE800EFF31085012181F310881A4B5A6822F409
:101DF80080325A605B681E2000F0BCFA85F31088B8
:101E0800002EE7D0EFF31085012181F31088114BE4
:101E18005A6822F400325A605B681E2000F0AAFA61
:101E280085F310880A4B44F42544A3F8FA43F8BD17
:101E38000322A8E70522A6E70A22A4E70622A2E7CA
:101E48000822A0E71021083A01FA02F29BE700BF36
:101E580000E0014000302040A00A002283DE1B433E
:101E68004AF203529FEDBE4B9FEDBF5B30B5C44BAA
:101E7800C448C54983B0C54CC3E90801C4499FEDAE
:101E8800BC6B9FEDBD7B9962A4F8FA23A3EC045FB9
:101E980083ED007FFFF7D6FE09230A2284F8502A33
:101EA80084F8A23094F8003C23B994F8013C9C07CC
:101EB80000F04C82B54C94F8003C002B00F03B82BB
:101EC8000022B24B83F8012C83F8002C0022AF4B80
:101ED80083F8362083F8322093F83C201007FBD58E
:101EE80040F2234400204FF6021140F25142A94D1E
:101EF800C3F8C850A3F84E4083F84A00C3F8AC10A2
:101F0800A3F84C20BFF34F8FBFF36F8FA24A5169DC
:101F180021F400315161C2F85002BFF34F8FBFF373
:101F28006F8F9E490A6822F440520A60BFF34F8FB0
:101F3800BFF36F8F0120197D944A60F30201197570
:101F4800137DD906FCD4954A136843F440531360B3
:101F5800BFF34F8FBFF36F8FA2F57342536913F42A
:101F6800003311D1BFF34F8FBFF36F8FC2F85032D8
:101F7800BFF34F8FBFF36F8F536943F4003353613F
:101F8800BFF34F8FBFF36F8F0023804A82F82A3048
:101F980092F83C309B06FBD50022814B1A701A78C8
:101FA8001A781A785A68FA2A04D07E4959605A6809
:101FB800FA2AFBD17A4B9A687D2A04D07A4999602B
:101FC8009A687D2AFBD1052242F220216F4B77487F
:101FD8001862998483F82620FFF734FE01211E2019
:101FE80000F0C8F96E4A5368C3F30903642B84BF31
:101FF80001231370FFF726FE4AF201526C4B1A8038
:10200800BFF35F8F01221A72BFF35F8F4FF425422F
:102018005E491A8091F8DA3043F0400381F8DA30EB
:1020280091F8DA30DB09FBD0C923032081F8D4000A
:1020380081F8DA3091F8DA30544A03F0BF0381F8B6
:10204800DA3092F8DA30DB09FBD10120802482F8FB
:10205800300082F8520082F8530082F83E3082F84D
:102068003E4092F87430494943F0400382F8743096
:1020780091F87430DB09FBD007204A220A23434C2D
:1020880081F86C0081F8742081F8743094F8743009
:10209800DB09FBD14FF0070301A8ADF80430FFF7C7
:1020A80021FE94F87630394A43F0400384F87630BC
:1020B80092F87630DB09FBD0CA23032082F86E0041
:1020C80082F8763092F87630304903F0BF0382F810
:1020D800763091F87630DB09FBD191F855302B4AF0
:1020E80043F0400381F8553092F85530DB09FBD0B6
:1020F800CA23022082F8540082F8553092F85530ED
:10210800224903F0BF0382F8553091F85530DB09B6
:10211800FBD191F857301D4A43F0400381F85730FE
:1021280092F85730DB09FBD0C723002082F856000D
:1021380082F8573092F85730144903F0BF0382F8F9
:10214800573091F85730DB09FBD191F85D300F4AD1
:1021580043F0400381F85D302CE000BFAFF300800E
:10216800006CDC0200127A000080000000366E016C
:102178000080000000CA9A3B0046C3235543DE1383
:10218800A00A00220084D7170008AF2F00E0014002
:1021980000389C1C022B010000ED00E000E001E08B
:1021A80000C01340FA00001E7D0000E132342332E3
:1021B8000020004092F85D30DB09FBD0C62082F891
:1021C8005C3082F85D0092F85D30634903F0BF032C
:1021D80082F85D3091F85D30DB09FBD191F87830F9
:1021E8005D4A43F0400381F8783092F87830DB0993
:1021F800FBD0C923022082F8700082F8783092F868
:102208007830554903F0BF0382F8783091F8783078
:10221800DB09FBD191F85B304F4A43F0400381F86A
:102228005B3092F85B30DB09FBD0C823022082F8D0
:102238005A0082F85B3092F85B30474903F0BF03DD
:1022480082F85B3091F85B30DB09FBD191F8DB3029
:10225800414A43F0400381F8DB3092F8DB30DB0978
:10226800FBD0C523022082F8D50082F8DB3092F833
:10227800DB30394903F0BF0382F8DB3091F8DB30FB
:10228800DB09FBD191F8DC30334A43F0400381F895
:10229800DC3092F8DC30DB09FBD0C52082F8D63080
:1022A80082F8DC0092F8DC302B4903F0BF0382F897
:1022B800DC3091F8DC30DB09FBD191F8DE30264ABE
:1022C80043F0400381F8DE3092F8DE30DB09FBD0C2
:1022D800C823082082F8D80082F8DE3092F8DE3071
:1022E8001D4903F0BF0382F8DE3091F8DE30DB09C8
:1022F800FBD191F8DD30184A43F0400381F8DD3016
:1023080092F8DD30DB09FBD0C823022082F8D70021
:1023180082F8DD3092F8DD300F4903F0BF0382F810
:10232800DD3091F8DD30DB09FBD14FF42543A1F80E
:10233800FA3303B030BD0121C82084F8001C00F036
:1023480019F894F8003C012BFBD1B9E54FF47A70E9
:10235800FFF7C6FCBAE500BF00E00140704700BFC8
:10236800704700BF00000000A0F101000028FBD169
:10237800704700BF1E4B1F4A1B6800FB01F19342C8
:1023880013D302F1854202F5071203F5742302F60E
:10239800834203F23F23A2FB03239B0CA3FB0131DF
:1023A8004FF0FF30E1B1FFF7DFBF4FF47A7210B49E
:1023B800114C4FF0FF30B4FBF3F3A1FB02C434B966
:1023C800BCFBF3F080B15DF8044BFFF7CDBFB1FB68
:1023D800F3F1A1FB0212002AF5D1084620B1F2E779
:1023E8001846002BDFD170475DF8044B704700BFDB
:1023F8009413002200127A0000CA9A3BF8B5002410
:1024080001260D4B0D4FD3F80021D3F8205115406C
:1024180006FA04F32B4204D057F82430E0B203B193
:1024280098470134152CF3D1034AC2F81051D2F859
:1024380020312B42FBD1F8BD00C000409813002288
:102448000022172310B40748074C30F8021F02F582
:10245800C65C013209B144F82C10013BF5D15DF896
:10246800044B70474642000200600040EFF31081C1
:10247800012383F31088124B33F8102092B22AB14B
:1024880033F81020013A92B223F8102033F81030B4
:102498009BB293B90B4A10B4B2F8FA330A4C9BB208
:1024A80034F8100043F4254323EA0003A2F8FA3372
:1024B80081F310885DF8044B704781F310887047EA
:1024C8004C14002200E001400044000230B4EFF355
:1024D8001081012383F310880E4A32F810309BB222
:1024E8006BB90D4C0D4DB4F8FA3335F810C09BB2EA
:1024F80043EA0C0343F425439BB2A4F8FA3332F8B9
:10250800103001339BB222F8103081F3108830BCB0
:10251800704700BF4C14002200E001400044000254
:1025280008B501F0C1F90C2203464FF0FF301A60DC
:1025380008BD00BF1F2910B53FD84C2401F0070E75
:1025480004FB0EFECB080EEB832E0EF5126E8644AE
:10255800DEF80030C3F380745471DEF8084004F0EC
:102568000704946023F06044DB0F1371DEF8043035
:1025780014601A4C1B0FE45C0EF10C03947164B1E7
:102588000C34A644AEEB030E4EF001E00B3213F808
:1025980001CB02F801CF0FF007C01F2904D801238F
:1025A8008B40DB43436310BD27294FF0FF030FD94E
:1025B80000EB810141F8443C10BD4FF04C0E0EFB7E
:1025C800010E27298CBFAEF5C56EAEF58C6EBFE740
:1025D80000EB810040F8343C10BD00BF40460002CB
:1025E80070B5456904460E4698B0A5B160222946E3
:1025F800684601F061F960223146284601F05CF92D
:10260800284623699847606918B16022694601F035
:1026180053F918B070BD0D46F2E700BF10B40C06B0
:10262800026801F00F0C34D45468630723D4E3071D
:1026380002D4BCF1050F20D0536823F0070343EA06
:102648000C035360936803F007039C45FAD1A40771
:102658000AD0CB0708D44368516D1B69DB699B69B5
:1026680003F001030B43536553685DF8044B03F013
:10267800070303737047CB07D9D4536823F00703C4
:1026880043F001035360936803F00703012BFAD169
:10269800D2E7946914F0010401D1CB0716D49369E9
:1026A80023F0070343EA0C039361D36903F007039C
:1026B8009C45FAD1002CD7D0C907D5D443681B69EB
:1026C800DB69D3E90213D1631364CDE7D36B23F03D
:1026D8000103D363136C23F001031364536D23F0D8
:1026E80001035365DBE700BF002370B544688360CE
:1026F80094F91530002B0DDB0121354D5A0903F0F3
:102708001F03203201FA03F345F82230BFF34F8F3D
:10271800BFF36F8F94F91730002B0DDB01212C4D7F
:102728005A0903F01F03203201FA03F345F8223057
:10273800BFF34F8FBFF36F8F94F91630002B0DDB6B
:102748000121234D5A0903F01F03203201FA03F334
:1027580045F82230BFF34F8FBFF36F8F23681D4DAD
:10276800B3FA83F35B0955F82330F3B18121FFF7FE
:1027780055FF8521FFF752FFEFF31086012181F302
:102788001088154A23689068C3F11B0301FA03F304
:102798000343936093681E20FFF7ECFD86F31088CF
:1027A8000020236845F8230070BD4FF40012084B41
:1027B800C3F88020BFF34F8FBFF36F8F4FF48002B1
:1027C800C3F88020BFF34F8FBFF36F8FCEE700BFF2
:1027D80000E100E058140022003020402DE9F041CB
:1027E800137955791468DB0743EA85732729056847
:1027F80043EA04033ED86C1894F87440240765D45F
:102808004C2404FB0154C4F804369679082E61D987
:10281800182E95BFB708370906370B374C2301FB2D
:1028280003F3946805EB030804F0070E3F0703F56C
:10283800C263C8F808760C4602F10C0CC8F80CE61E
:102848002B4486B10C3602EB060EAEEB0C0E4EF0A6
:1028580001E0013B1CF8012B03F8012F0FF007C022
:10286800272905682BD80123254485F870300020D6
:10287800BDE8F0814C26A1F1280406FB0456C6F8F1
:10288800B8359679082E1FD9182E95BFB70837097D
:1028980006370B374FF04C0893683F0703F0070ED5
:1028A80004FB08F305EB030803F2C453C8F8BC752E
:1028B80002F10C0CC8F8C0E52B44002EC2D1FF234E
:1028C80005EB8405EB65D2E73746E3E74EF6632070
:1028D800BDE8F0813746A1E700222DE9F04F0F68E7
:1028E8008B6807F50035D1F810A083B005F5E075C1
:1028F8000361CB686D030C468346C0E90051C0E90B
:102908000523DAF81C60EFF31088012181F31088A1
:10291800B64BC7F11B009A6801FA00F022EA0002E0
:102928009A609B681E20FFF725FD88F31088EB69E5
:102938001B07FCD481215846FFF770FE7368012FEE
:102948006B6100F035814FF48013EB620022D6E909
:1029580002C3D6F810E0C5F8B020C5F830E0C5F8D5
:102968003CC02B6496F815C0A14BA2499A654FEA62
:102978000C13A148DBB281F81633D0F8583362F350
:102988001043C0F85833D0F85833BFF35F8F4FF473
:102998008003C1F880310B60B369326823F001030A
:1029A800AA616B65002F00F0088110264FF480792A
:1029B80046F001E0914B07F0010843F827B0CDF845
:1029C80004A0DAF80070C5F82890C6F1220C05EBCF
:1029D8000C1C97E80F00C5F828908CE80F00C6F18A
:1029E800100A05EB0A1ADAF82831013E68F3C71312
:1029F8001037CAF828310FF019C0DDF804A00121FA
:102A08005846AE62FFF70AFEDAF81470D4F804C02C
:102A18007968DCF80030FF29084628BFFF205A1ED5
:102A28003B680139013BDBB243EA0123DCF80410BF
:102A3800C2F30902013942EA4142DCE902E10EF13E
:102A4800FF3C013942EA4C6242EA81222A60D7E916
:102A58000212013943EA0143013A43EA0263C5F825
:102A680000319AF818305B0243EA004343F480636C
:102A780043F00103C5F80431DAF80830C5F88830A6
:102A8800DAF8103043F003036B6094F91530002B2B
:102A980026DB227D03F160411201D2B201F56141CA
:102AA80081F800235249564A41F823B003F5C6512C
:102AB80052F8210066F3104042F8210052F8212014
:102AC800BFF35F8F01215A09920003F01F0302F13F
:102AD800604202F5614201FA03F3C2F880311360E3
:102AE80094F91730002B26DB227D03F16041120197
:102AF8003F48D2B201F5614181F80023404A03F50D
:102B0800C65140F823B052F8210020F4803042F832
:102B1800210052F82120BFF35F8F01215A0992004A
:102B280003F01F0302F1604202F5614201FA03F368
:102B3800C2F88031136094F91630002B26DB227D11
:102B480003F160401201D2B200F5614080F8002321
:102B580027482B4903F5C65240F823B051F8220004
:102B680020F4803041F8220051F82220BFF35F8F13
:102B780001215A09920003F01F0302F1604202F595
:102B8800614201FA03F3C2F880311360584680218C
:102B9800FFF744FD0021FFF741FD4FF0000300203F
:102BA800184AABF80C30CBF8082003B0BDE8F08F1A
:102BB8004FF48012144BDA62C8E6337D0C4A1B01CD
:102BC800DBB2C2F854B081F81533D0F8543367F348
:102BD8001043C0F85433D0F85433BFF35F8F4FF429
:102BE8000013C1F880310B60DFE600BF00302040E1
:102BF800F013002200E100E000C000405814002259
:102C08000060004044464352002038402DE9F0411E
:102C180098B0EFF30383103B5CB2152C3FD14FF013
:102C280000082B4D05F1080755F8046BD6B1602252
:102C38000021684600F030FE4FF480533268ADF84A
:102C48000430136A69464FEA134C1B0403EB0C73F8
:102C580002939B033046C2F8208013D4B3690493CF
:102C6800FFF7BEFCBD42DFD11A4A04F5C65352F83D
:102C7800231021F4803142F8231052F8233018B081
:102C8800BDE8F081936E93FAA3F3B3FA83F302EBF2
:102C980083020393536C23F004035364DEE70E4B63
:102CA80060220021684653F8245000F0F5FD4FF4E7
:102CB800807300202A68ADF80430D36869469BB257
:102CC8000293AB69D06028460493FFF789FCCBE7F1
:102CD8005814002200600040F01300222DE9F0474C
:102CE800294F98B0BA465AF8043BCBB10026740372
:102CF80004F1804404F56014E56E95FAA5F51DB15C
:102D0800B5FA85F5012D15DDE36E43B91F4AD2F8F2
:102D1800581363F31041C2F85813D2F8583336B930
:102D2800DAF800301BB101260AF1040ADFE718B00F
:102D3800BDE8F0874FF001084FF48062236E08FA6F
:102D480005F805F1200913EA080FCDF80C90ADF845
:102D5800042011D14946204605AA0096FFF7EAFB50
:102D6800009B694657F8230083690493FFF738FCF2
:102D7800236E13EA080FEDD004EB85056B6C23F086
:102D880008036B64C0E700BF5814002200C000406D
:102D9800F0B599B0EFF30384314B103C64B253F8AB
:102DA8002470D7E90063BA6919681D6996F8A430D8
:102DB80000910492002B44D0324625E04FF4006085
:102DC80002F180010B68ADF8040093FAA3F31BB17C
:102DD800B3FA83F3072B07DD4B6893FAA3F3002BB1
:102DE8003CD0B3FA83F320331A4492F8741021F0DC
:102DF800060182F87410694638460393FFF7F0FB22
:102E080096F8A430EBB13A6896F8A430D9B2DB074B
:102E1800D4D40B0710D5EB69916D9B6921F0100193
:102E280013F4805F0CBF4FF400504FF40060282368
:102E38009165ADF80400DEE74FF4007002F18401FB
:102E4800C0E7084B04F5C65453F8242022F4803216
:102E580043F8242053F8243019B0F0BD4023C3E7C9
:102E6800F01300220060004070B598B0EFF30386BD
:102E780028224FF480611A4B103E76B253F8264050
:102E8800D4E900031B6803920093036EADF80410A5
:102E9800DA0510D4134D282105AAFFF74BFB009B38
:102EA800694655F8230083690493FFF799FB206866
:102EB800036EDB05EFD5836D23F008038365836D0F
:102EC80013F008030AD1084A06F5C65652F8261028
:102ED80063F3104142F8261052F8263018B070BD3E
:102EE800F013002258140022006000400120CBB2E9
:102EF800984080B202B900040B0A5B0103F18043D9
:102F080003F5800398600020704700BF2DE9F84F53
:102F18000388DBB14FF0000A80464FF00109DFF863
:102F2800D4B00024314D4FEACA07D8F8043035F838
:102F3800022BD919898891420AD00134032CF4D183
:102F4800B8F800300AF1010A5345EAD8BDE8F88F0D
:102F5800DB5909FA04F603F0B853B3F1807F244B28
:102F6800F6B293F84C2C12D0324230D104F1200240
:102F78001BF81230DB09E0D01BF81230012123F0D6
:102F88008003C8200BF81230FFF7F4F9D5E7324276
:102F980010D004F120021BF81230DB09CDD11BF848
:102FA8001230012143F08003C8200BF81230FFF7DC
:102FB800E1F9C2E70120FFF789FA0D4B012093F8E8
:102FC8004C2C324383F84C2CFFF750FAE1E70120F0
:102FD800FFF77CFA064B012093F84C2C22EA0602F4
:102FE80083F84C2CFFF742FAC0E700BF50460002B6
:102FF80000E0014000202040F8B50446FFF786FFB6
:10300800EFF31082012383F31088254E33681BB930
:10301800402024490B75087533680133336082F307
:103028001088218849B3C9000839C90860681E4D4D
:10303800013107E01B011344013945F8234000F131
:1030480008001AD004688288E7034FEA1223D2B234
:10305800F0D502EB031C55F82CE01B0124F4803753
:103068002EF4803E1344013945F82CE000F10800A5
:1030780045F82C7045F82340E4D1EFF31082012382
:1030880083F31088336813B13368013B33603368C6
:103098001BB9802003490B75087582F31088F8BDA9
:1030A800EC130022000D40400008404008B5034BD7
:1030B80003600846FFF7A0FF002008BD54524F5098
:1030C800F0B491F913300246002B84B02FDB4FF097
:1030D800030CC8684C6850622948D46180F814C051
:1030E800887C284F03F160460001274C06F56146AD
:1030F800C0B286F8000303F5C65547F8232054F8F4
:10310800250020F4803044F8250054F82500BFF34A
:103118005F8F01245809800003F01F0300F160400D
:1031280000F5614004FA03F3C0F8803103606425B8
:103138004FF4FA6442F21070144B154E1B68366A4D
:1031480003F57423134E03F23F23A6FB03639B0C82
:1031580003FB05F503FB04F403FB00F002939B005B
:1031680000959361039001949DED007F00200A4B28
:1031780082ED027FC2E9003104B0F0BC704700BFA5
:1031880000C01340F0130022006000409413002296
:1031980000E0014083DE1B434D41524D08B508460F
:1031A800114600F0EDFF002008BD00BF844610B4B2
:1031B800046AA36823F44013A360A36C5800FCD5E9
:1031C800A36823F01003A360237FC3F30010DB067A
:1031D800FAD4A368CCF8102043F01013CCF80C10E4
:1031E800A3605DF8044B704730B40124164D5309B1
:1031F80002F01F0C203304FA0CF445F82340BFF307
:103208004F8FBFF36F8F114B02F5C65C53F82C40FC
:1032180024F4803443F82C4053F82C300901002A58
:10322800C9B207DB15440A4B85F8001330BC43F8D4
:1032380022007047074B02F00F0423441976044B11
:1032480030BC43F82200704700E100E00060004015
:10325800F0130022FCEC00E0F0B5846A85B0054666
:103268000F4694466E46B4B194E80F008DE80F00FF
:10327800EB6920461B7884F804C0EA6A2360A760DB
:103288006B6AE2609847AC6A1CB196E80F0084E864
:103298000F0005B0F0BD6C46EAE700BFF8B542681C
:1032A8003C4B9A4273D1026A0446936823F4401354
:1032B80093600378002B63D1936823F01003936025
:1032C800137FC3F30015DB06FAD40121E369324A00
:1032D80093F90730580903F01F03203001FA03F36C
:1032E80042F82030BFF34F8FBFF36F8FE36993F934
:1032F8000930580903F01F0301FA03F3203042F89C
:103308002030BFF34F8FBFF36F8F206A836823F499
:1033180080338360E36993F90530580903F01F038C
:1033280001FA03F3203042F82030BFF34F8FBFF388
:103338006F8FE36993F90B30580903F01F0301FA03
:1033480003F3203042F82030BFF34F8FBFF36F8F65
:10335800EFF3108681F310884FF00043E7690F4AB6
:1033680097F800C0506823FA0CF30343536053687E
:103378001E20FEF7FFFF86F3108828466560F8BD1B
:103388000021536A43F400435362516194E70720D4
:10339800F8BD00BF4249435300E100E0003020403F
:1033A8002DE9F041012700260B780D4607FA03F2B4
:1033B800C2F30902921B18BF012203F5800303F52B
:1033C80056531B020362130103706B69C1614362A8
:1033D800AB698178C0E90A636B78EE69B3FA83F365
:1033E8005B095B4203F003037B4063F301018170D7
:1033F80095F90B20A97AFFF7F7FE95F905202979A9
:10340800FFF7F2FE95F90720A979FFF7EDFE95F988
:103418000920297AFFF7E8FE0446EFF3108887F3BE
:1034280010884FF000412A78814BD1405A6822EA2F
:1034380001025A605B681E203946FEF79BFF88F33D
:1034480010884FF48063E969226A486893606B7852
:1034580095F803C0AF781B024FEA8C3505F4804518
:1034680003F440732B434D7891F800E0ED03ADB2BF
:103478002B434D7B4FEA0E6C6D0505F400152B436D
:1034880025780CF0407C43EA0C030DB143F480131B
:1034980043F480535361AEF10203012B40F2C08024
:1034A80003681361087B00F0030040F0300037B177
:1034B800022F14BF4FF440734FF4807318434FF03A
:1034C800000C8B78E7691B0703F080530343D36034
:1034D800C2F818C07DB1574B013D5362FB69187A99
:1034E80028402D0605F07063556A000400F470202A
:1034F8002B4303435362002501208B7BB6F80AC097
:10350800CE7B097C06F01F0603F0010343EA06237D
:1035180001F01F0143EA0143474913632561A5618F
:10352800A4F808C0E56065619166106797F9052001
:10353800424B02F5C65153F8216065F3104643F833
:10354800216053F82110BFF35F8F02F01F01520969
:10355800920002F1604200FA01F102F56142C2F8FC
:1035680080111160E26992F90B2002F5C65153F8F7
:10357800216065F3104643F8216053F82110BFF32A
:103588005F8F02F01F015209920002F1604200FAB7
:1035980001F102F56142C2F880111160E26992F905
:1035A800072002F5C65153F8216065F3104643F829
:1035B800216053F82110BFF35F8F02F01F015209F9
:1035C800920002F1604200FA01F102F56142C2F88C
:1035D80080111160E26992F9092002F5C65153F889
:1035E800216065F3104643F8216053F82130BFF39A
:1035F8005F8F53099B0002F01F0203F16043904064
:1036080003F56143C3F8800118600D4B226A93608B
:10361800137FDB07FCD50B4B00206360BDE8F0810E
:10362800BEF1020F01D0084B3BE7084B39E700BF5A
:1036380000302040008080001000079D006000409E
:10364800110401004249435304FF00FF24FF00FF17
:1036580070B5EFF30383103B394A5BB203F5C651EB
:1036680052F8210020F4803042F8210052F821203D
:10367800344A52F82300C269036912690AB10BB1CE
:1036880070BD83B9D0E908240021936823F480131E
:1036980043F400139360C160002CF1D0BDE8704082
:1036A8008022FFF7D9BD0178056A21B36A6D02F05F
:1036B8003F028A423FD290F802E0541C8C420EF03E
:1036C8000306A1EB0201CEF3010E88BF012109E038
:1036D80014782C71A3EB0E0372440139C0E903235B
:1036E8001CD0DBB1022EC268F2D1148824F4DC4469
:1036F800A4B26C60EEE790F802E0C2680EF0030135
:10370800022912D0117829710EF0030EA3EB0E03D3
:103718007244C0E90323002BB2D1B3E7AA6E42F08A
:103728000052AA66002BABD1ACE7118821F4DC412A
:1037380089B26960E8E7AB6E43F00053AB6670BDD1
:1037480000600040F013002210B5EFF303830F4A26
:10375800103B5CB252F82400D0E90821936823F4A6
:10376800401323F01003936019B102220021FFF7E0
:1037780073FD074A04F5C65352F8231021F480312B
:1037880042F8231052F8233010BD00BFF013002276
:103798000060004038B5EFF303831F4A103B5CB26A
:1037A80052F824008378056A03F00303022B0CBF48
:1037B80029682978AA6C08BFC1F30801C2F300730D
:1037C800C2F3006C4FEA031343EA4C13C2F3C0621E
:1037D80043EAC20318BFC9B24FFA83FC03F03802A8
:1037E800DB0604D5AB6C1B0458BF4CF04002AB6E33
:1037F80043F0C853AB66436A0BB1FFF72DFD074A88
:1038080004F5C65352F8231021F4803142F82310EE
:1038180052F8233038BD00BFF0130022006000408A
:1038280030B514469BB005461A46002C05DA8B23A2
:1038380003604FF0FF301BB030BD4FF402730091AE
:1038480004916946ADF80C304FF00003199314BF8A
:1038580004F1FF332346029305934FF6FF73ADF847
:103868000E301E9B00F08EF9431CBCBF8B232B60CF
:10387800002CE0D0009B00221A70DCE707B500930B
:1038880013460A46014603480068FFF7C9FF03B01C
:103898005DF804FB4C02002202440346934200D127
:1038A800704703F8011BF9E7014B1868704700BF20
:1038B8004C020022704770470A44431E914200D1CF
:1038C800704710B511F8014B914203F8014FF9D137
:1038D80010BD000038B50546002941D051F8043C18
:1038E8000C1F002BB8BFE41800F0E0F81D4A13685D
:1038F80033B9636014602846BDE8384000F0DCB88E
:10390800A34208D9206821188B4201BF19685B6857
:1039180009182160EDE71A465B680BB1A342FAD992
:1039280011685018A0420BD120680144501811604A
:103938008342E0D118685B68084453601060DAE796
:1039480002D90C232B60D6E7206821188B4202BFCE
:1039580019685B680918636008BF21605460CAE78A
:1039680038BD00BFA415002270B50F4E0C460546A1
:10397800316811B900F0AEFB30602146284600F0EE
:10398800A9FB431C03D14FF0FF34204670BDC41C73
:1039980024F00304A042F8D0211A284600F09AFB2C
:1039A8000130F2D1EFE700BFA01500222DE9F8435E
:1039B800CD1C064625F0030508350C2D38BF0C250F
:1039C800002D01DBA94204D90C2333600020BDE897
:1039D800F883DFF8D48000F069F8D8F800301C4686
:1039E80044BB29463046FFF7BFFF431C044658D165
:1039F800D8F800402746002F43D1002C4BD023682D
:103A08003946304604EB030900F064FB814542D196
:103A1800216830466D1A2946FFF7A6FF01303AD0D3
:103A280023682B442360D8F800305A6862BBC8F872
:103A380000700FE02268521B20D40B2A17D9611995
:103A4800A342256018BF5960636808BFC8F8001012
:103A580062514B60304600F02FF804F10B00231D33
:103A680020F00700C21A1CBF1B1AA350AFE76268F8
:103A7800A3420CBFC8F800205A60EBE723466468ED
:103A8800AEE73C467F68B6E71A465B68A342FBD1BF
:103A980000235360DEE70C233046336000F00CF857
:103AA80094E70560D6E700BFA41500220148FFF798
:103AB80001BF00BF9C1500220148FFF7FCBE00BFF4
:103AC8009C1500222DE9F0471F468E6882460C4659
:103AD800BE429046334653D8B1F90C0010F4906FAB
:103AE8002BD065692368096905EB4505A3EB010936
:103AF80005EBD5757B1C6D104B442A46AB4284BF41
:103B08001D462A46430527D511465046FFF74EFF66
:103B1800064658B34A462169FFF7CEFEA38923F427
:103B2800906343F08003A38126614E4465613B4660
:103B3800A5EB090526603E46A5601F463A46414664
:103B4800206800F0ADFAA36800209B1BA3602368DF
:103B58003B442360BDE8F087504600F0D9FA06469A
:103B68000028E1D121695046FFF7B4FE0C234FF03D
:103B7800FF30CAF80030A38943F04003A381E9E786
:103B88003E46DBE72DE9F04F98468B899DB0074606
:103B98001B060D46144610D50B6973B94021FFF773
:103BA80005FF2860286130B90C233B604FF0FF30D7
:103BB8001DB0BDE8F08F40236B610023CDF80C8069
:103BC8004FF00109DFF8A081099320238DF82930EF
:103BD80030238DF82A3023469A4613F8012B0AB170
:103BE800252AF9D1BAEB040B0BD05B4622462946AD
:103BF8003846FFF767FF013000F0A780099A5A445A
:103C080009929AF80030002B00F09F8000234FF0B3
:103C1800FF320AF1010A049307938DF853301A937F
:103C2800CDE90523544605224F4814F8011B00F03E
:103C380061FA049AD8B9D00644BF20238DF85330CE
:103C4800110744BF2B238DF853309AF800302A2BE4
:103C580015D0079A544600204FF00A0C214611F857
:103C6800013B303B092B4BD9B0B1079214E0A0EBD4
:103C78000803A24609FA03F313430493D2E7039B0C
:103C8800191D1B68002B0391BBBF5B4242F0020267
:103C980007930793B8BF049223782E2B0AD1637831
:103CA8002A2B32D1039B02341A1D1B6843EAE373A3
:103CB80003920593DFF8C0A003222178504600F054
:103CC80019FA38B1A0EB0A004022049B0134824063
:103CD8001343049314F8011B062224488DF8281076
:103CE80000F008FA002836D0214B1BBB039B073392
:103CF80023F0070308330393099B334409936AE7C6
:103D08000CFB02320C460120A8E7002301344FF0D7
:103D18000A0C19460593204610F8012B303A092A57
:103D280003D9002BC6D00591C4E70CFB012104463A
:103D38000123F0E703AB2A4604A9384600930D4B4C
:103D4800AFF30080421C0646D6D1AB895B063FF52F
:103D58002DAF09982CE703AB2A4604A938460093EF
:103D6800044B00F07DF8EDE756460002604600027D
:103D780000000000CD3A00025C4600022DE9F04741
:103D8800164698468A6807460B690C46DDF8209067
:103D98009342B8BF1346336091F843200AB1013308
:103DA80033602368990642BF33680233336025685D
:103DB80015F0060506D104F1190AE36832689B1A62
:103DC800AB422BDC94F843302268003B18BF012338
:103DD800920630D404F1430241463846C8470130C0
:103DE80023D023681A3454F80A2C03F00603042B52
:103DF8000ABF54F80E5C002533684FF0000608BF70
:103E0800ED1A54F8123C08BF25EAE5759342C4BF81
:103E18009B1AED18B5421AD1002008E0012352463A
:103E280041463846C847013003D14FF0FF30BDE85E
:103E3800F0870135C1E7E1185A1C302002332244CB
:103E480081F8430094F8451082F84310C2E7012333
:103E5800224641463846C8470130E6D00136D9E700
:103E68002DE9FF470F7E914680460C46782F9A46EB
:103E78000C9E01F1430207D8622F0AD8002F00F0E8
:103E8800D280582F00F0B78004F1420684F84270BF
:103E98003AE0A7F16303152BF6D801A151F823F0F6
:103EA800013F0002153F0002913E0002913E0002D0
:103EB800913E0002913E0002153F0002913E000231
:103EC800913E0002913E0002913E00021540000220
:103ED8003F3F0002CB3F0002913E0002913E0002AC
:103EE80037400002913E00023F3F0002913E00022F
:103EF800913E0002D33F000233681A1D1B683260EE
:103F080004F1420684F8423001239DE033682068BA
:103F1800191D3160060601D51D6803E04506FBD56D
:103F2800B3F90050002D03DA2D236D4284F8433095
:103F380059480A2310E021683368080653F8045BDF
:103F480002D4490648BFADB26F2F5348336059D1E8
:103F58000823002184F843106668002EA66005DB5C
:103F680021682E4321F0040121604DD01646B5FB8F
:103F7800F3F103FB1157C75D06F8017D2F460D4687
:103F8800BB42F4D9082B0BD12368DF0708D5236976
:103F980061689942DEBF302306F8013C06F1FF361E
:103FA800921B22614B4603AA21464046CDF800A049
:103FB800FFF7E4FE01304CD14FF0FF3004B0BDE80C
:103FC800F087236843F02003236078273348236869
:103FD80084F845701F06316851F8045B02D45F0607
:103FE80048BFADB23160D90744BF43F02003236016
:103FF8001DB11023ADE72848E9E7236823F0200323
:104008002360F6E70A23A4E71646BBE7336825686A
:10401800181D616930602E061B6801D5196002E021
:104028006806FBD51980002316462361BAE7336872
:1040380000211A1D32601E686268304600F05AF886
:1040480008B1801B606063682361002384F84330F3
:10405800A8E72369324649464046D0470130ABD0ED
:1040680023689B0713D4E068039B9842B8BF18469F
:10407800A4E70123324649464046D04701309BD049
:104088000135E36803995B1AAB42F2DCEBE70025E4
:1040980004F11906F5E700BF6746000278460002FA
:1040A800884210B501EB020402D98442234607D89E
:1040B800431EA14207D011F8012B03F8012FF8E79E
:1040C8000244824200D110BD13F8011D02F8011DFF
:1040D800F7E7000038B50023054D044608462B6075
:1040E800FEF71EFA431C02D12B6803B1236038BDCA
:1040F80098150022C9B20346024410B593421846E7
:1041080001D1002003E0047801338C42F6D110BDC0
:104118002DE9F041074614460D4621B91146BDE880
:10412800F041FFF743BC2AB92546FFF7D3FB2846E1
:10413800BDE8F08100F01AF88442064602D8B4EBD4
:10414800500FF4D821463846FFF730FC804608B9AE
:104158004546ECE7B4422246294628BF3246FFF7D7
:10416800ABFB29463846FFF7B5FBF1E751F8043CAD
:10417800181F002BBCBF0B58C01870470000000068
:104188005FF800F0010000225FF800F0A9010022AA
:104198000000000000000000000000000000000017
:1041A800FFDFFFDF09020000070E0C0F07100C11DC
:1041B8000000000000000000891900020000000053
:1041C800CC41000200010000D00100220F00FFFFD7
:1041D800000000010100000001000000240200228C
:1041E800C116000200000000D801002206121413B4
:1041F8000800000004420002000000000000010561
:10420800080200000000010509020000000001107A
:104218000E040000000001100C050000040000005E
:104228000103000004000000020300000400000075
:10423800080300000400000002090000000000005C
:104248000000000000000000000000000000000066
:104258000000000000000000000000000303040349
:10426800050306033203310333032303220300004B
:104278005B4442475D2030783334207064753D25B7
:1042880030325820253032582025303258202530F9
:1042980032582025303258202530325820253032E7
:1042A80058202530325820253032582025303258B1
:1042B80020253032580D0A005B424C5D20626F6F3A
:1042C800742076312E312E300D0A00000D040002C4
:1042D80005040002FD03000201040002F9030002C4
:1042E800B5050002000000000001020304050607EE
:1042F800080C10141820304000000000000000C016
:1043080000000000010000000000000000000000A4
:104318000000000000000000000000000000000095
:104328000000000000000000000000000000000085
:104338000000000000000000000000000000000075
:104348000000000000000000000000000000000065
:104358000000000000000000000000000000000055
:104368000000000000000000000000000000000045
:104378000000000000000000000000000000000035
:104388000000000000000000000000000000000025
:104398000000000000000000000000000000000015
:1043A8000000000000000000000000000000000005
:1043B80000000000000000000000000000000000F5
:1043C80000000000000000000000000000000000E5
:1043D80000000000000000000000000000000000D5
:1043E80000000000000000000000000000000000C5
:1043F800000000000000000001000200080010009A
:10440800200000000A000000C44500021800000057
:104418004444000204000000244400020000006834
:1044280000000068000000800000008000000070AC
:1044380000000070A0020022A00200220000006814
:1044480000000068000000900001090D00000068ED
:10445800000000680000007800010B0D00000068F3
:1044680000000068000000270001020D000000683D
:10447800000000689C0000020001010D000000809F
:104488000000008000000090000109080000008082
:10449800000000800000007800010B080000008088
:1044A80000000080000000270001020800000080D2
:1044B800000000809C00000200010108000000705C
:1044C80000000070000000900001090A0000007060
:1044D800000000700000007800010B0A0000007066
:1044E80000000070000000270001020A00000070B0
:1044F800000000709C0000020001010A000000009A
:104508000000000000000090010109050000000003
:10451800000000000000007801010B050000000009
:104528000000000000000027010002050000000054
:10453800000000009C0000020100010500000020AE
:104548000000002000000090010109040000002084
:10455800000000200000007801010B04000000208A
:1045680000000020000000270100020400000020D5
:10457800000000209C00000201000104000000224D
:104588000000002200000090000109030000002242
:10459800000000220000007800010B030000002248
:1045A8000000002200000027000002030000002293
:1045B8009C0200229C000002000001030000006829
:1045C800000000680001000D00000068000000689D
:1045D8000001000D000000800000008000010008BC
:1045E800000000800000008000010008000000704A
:1045F800000000700001000A000000700000007058
:104608000001000A00000000000000000100000591
:104618000000002000000020010000049C0200228D
:10462800A002002200000003D00A0022A8150022E0
:104638000000000300000000000102030405060753
:10464800080C101418203040020403040404232D1D
:10465800302B2000686C4C00656667454647003083
:1046680031323334353637383941424344454600D0
:1046780030313233343536373839616263646566D0
:10468800000000004275696C7420776974682052D4
:10469800656E6573617320416476616E636564203D
:1046A800466C657869626C6520536F6674776172D1
:1046B80065205061636B6167652076657273696F09
:1046C8006E20362E332E3000362E332E300000006A
:0446D80000000306D5
:0446DC00F8B500BF6E
:0446E000F8B500BF6A
:0446E400A503000228
:0446E8007D0300024C
:0200000402C92F
:04F04000FFFFFFFFD0
:04F04400EFFFFFFFDC
:04F0C000FFFFFFFD52
:04F0C400FFFFFFFF4C
:04F1200000000000EB
:04F1240000000000E7
:0400000502001A19C2
:00000001FF
