:10800000805000200D9100000595000009910000AE
:1080100009910000099100000991000009910000F8
:1080200000000000000000000000000009910000B6
:1080300009910000000000000991000041B3000018
:1080400041AC0000A9AB0000D1AC000019AD0000AC
:04805000CD9A0000C5
:108054004000340001000000050400000404000096
:108064000404010002000000010000000000000000
:1080740003000000145600202C0000200000000023
:10808400145600207C560020E45600200000000016
:1080940000000000000000000000000000000000DC
:1080A40000000000000000000000000000000000CC
:1080B40000000000000000000000000000000000BC
:0880C4000000000000000000B4
:1080D0000348044B834202D0034B03B11847704757
:1080E000780000207800002000000000064B0749BF
:1080F000C91A891048BF0131491003D0044B0BB194
:1081000001481847704700BF780000207800002021
:108110000000000010B5064C237843B9FFF7D8FFE4
:10812000044B13B10448AFF300800123237010BD4A
:10813000A05000200000000084A2000108B5054BFB
:108140001BB105490548AFF30080BDE80840FFF7C3
:10815000CDBF00BF00000000A450002084A2000199
:10816000002310B582B016490DF1060201A8ADF842
:108170000430ADF8063002F05BFEBDF80430044672
:10818000B3F5FE6F05D0012C07D0022C0ED002B043
:1081900010BD02F01FFE012CF7D1BDF806200849E2
:1081A000BDF8040002F040FE02B010BDBDF806208C
:1081B0000349BDF8040002F039FE02B010BD00BF53
:1081C000BC50002010B586B0032854D8DFE800F07A
:1081D0002E1E0A024F4800F095FA06B0BDE8104086
:1081E00002F0F8BD00224C4B114610461A7002F006
:1081F00005FE02F007FE494800F084FA0122022041
:10820000454906B0BDE8104000F060BA012402F014
:10821000F7FD414B42481C7000F074FA224620469C
:108220003D4906B0BDE8104000F050BA002301A857
:10823000019303F03AFD9FED3B7ADDED017AF4EE18
:10824000C77AF1EE10FA18DC9FED377AF4EEC77AB0
:10825000F1EE10FA1CD5354A002382ED007A6FF05A
:10826000630202AC20463249524203F093FB21469E
:10827000304800F047FA06B010BD2C4A002382EDCA
:10828000007A642202AC20462B4903F083FBEEE720
:10829000BDEEE77A17EE102AF5EEC07A234BF1EE29
:1082A00010FAC3ED007A82EAE273A3EBE27307EE01
:1082B000103AB8EEC77A17D477EEC77ADFED1F6AA7
:1082C000B6EE007A67EEA67A77EE877AFDEEE77A69
:1082D00017EE903AB3F57A7FA8BF012101DB0023A6
:1082E0000A44002ACEDABCE7F1EE677AF6EE006ABD
:1082F00077EEC77A9FED116AB0EE667A07EE867A5E
:10830000FDEEC77A17EE903AB3F57A7FE9DB4FF0CE
:10831000FF31E4E7ECCA0000FC50002004CB000071
:10832000E4CA00000000C8420000C8C2005100209A
:10833000B4CA0000CCCA0000C0CA000000007A44E1
:108340002DE9F0432DED068BBDB002F021FD00F0CC
:108350009BF9B84800F0A8F9B74802F04DFDB748BE
:1083600002F068FD0121022002F05CFD01210020E5
:1083700002F058FD0021012002F054FD02F040FD02
:1083800000221146104602F039FDC82002F02EFDF1
:1083900040F6C41002F038FD4FF4FA7002F026FDEA
:1083A000A74800F0AFF9032000F058FC012100209D
:1083B00002F038FD502402F02FFD013CFBD1A14812
:1083C00000F0A0F99FEDA01A9FEDA00AF0EE410A7F
:1083D00000F052FC03AA02A901A800F089FD9FED5C
:1083E0009C8ADDED036A9DED027ADDED017A66EE91
:1083F000886A27EE087A67EE887AFDEEE66AFDEE77
:10840000E77ABDEEC77A17EE900A17EE101A16EE4D
:10841000902A02F0F3FCFA2002F0E8FC02F0FCFCE7
:1084200002F0FCFC05468B48294600F06BF907EE8C
:10843000905A9FED89AADFED899A9FED839ADFED2F
:1084400088AAF8EEE78ADFF83882DFF83892854F9D
:10845000854ECBE002F0E2FC01EE100AB8EE411AC4
:1084600031EE681AF1EE047A21EE0A1A21EE271A8B
:10847000B5EEC01AF1EE10FA06DBDFED7C7AB4EE51
:10848000E71AF1EE10FA14D421EE2A1AFDEEC17AA1
:10849000F8EEE77A31EE671AB5EEC01AF1EE10FA8F
:1084A00044BFF7EE007A31EE271ADFED707A21EE45
:1084B000271AD9ED000AB0EE490A60EEA90A00F0C9
:1084C000DBFB09AA08A907A800F012FDDDED096A87
:1084D0009DED087ADDED077A66EE886A27EE087A68
:1084E00067EE887AFDEEE66ABDEEC77AFDEEE77AC2
:1084F00017EE101A17EE900A16EE902A02F07EFC84
:108500000021084602F08EFC0121084602F08AFC98
:1085100008FB04F3564AB2EBB30F0ED996E80700F6
:10852000002509AB03C308201A8009A91022CDF841
:108530002E50ADF8325002F077FC06AA05A904A827
:1085400002F064FC07A802F065FC08A909A802F083
:108550005FFCDDED047AF8EEE75ADDED057AB8EE62
:10856000E76ADDED067AF8EEE76ADDED077AB8EE48
:10857000E77ADDED087ADFED354AF8EEE77A67EE67
:10858000A47ACDED117ADDED097A9FED3A5A9FED8F
:108590003A4AF8EEE77A27EE047A67EEA47A0723E0
:1085A00065EE855A26EE056A66EE856ACDED0D5AB2
:1085B0008DED0E6ACDED0F6A8DF86C308DED107A71
:1085C000CDED127A02F02CFC03F06AF89FED2B7AC5
:1085D00007EE900A67EE877A0DA8CDED137A00F0CA
:1085E000C5F84FF4FA7002F003FC01340DF10202F9
:1085F0001CA90DF1010000F0DDF898B902F00CFCA7
:108600003D78002D7FF426AF2A462946284602F001
:10861000F5FB2846012102F005FC2946012002F065
:1086200001FC75E7BDF802209DF801001CA9FFF7C9
:10863000C9FDE3E7F5AD0000BD86000061810000E3
:108640000CCB000020CB000000000000CDCCCC3DC6
:1086500000FEFF4634CB0000BEB5243A0AD7233CC7
:1086600081F9223EFC50002054CC0000DB0FC940B1
:10867000D0B02B007100DC39FFFF243BBC74133DEC
:108680004728A3B70051002008B5002000F0BAF831
:1086900087220021034803F0B1FA0123014A02F8BE
:1086A000013C08BD85510020034B1A7812B108B176
:1086B000C3F88400704700BF84510020024B1B7830
:1086C00003B9704700F0A6BA8451002010B50C4CD5
:1086D00082B023780BB902B010BD00F0D3F90DF1D0
:1086E000060000F08BFA0028F5D0BDF8061000292E
:1086F000F1D0D4F88430002BEDD0984702B010BDF3
:10870000845100200FB410B5164C82B0237823B9E1
:1087100002B0BDE8104004B0704705AB8021049A58
:108720001148019303F0CAF90028F1DD2378002BEA
:10873000EED07F280246A8BF7F2206200A4992B2C7
:1087400000F0A0F90DF1020000F058FA0028DFD087
:10875000BDF802100029DBD0D4F88430002BD7D02C
:108760009847D5E7845100200451002010B5104CE3
:1087700082B023782BB120B190F83820531E0D2BF6
:1087800001D902B010BD01469200072000F07AF92D
:108790000DF1060000F032FA0028F2D0BDF8061004
:1087A0000029EED0D4F88430002BEAD09847E8E7CF
:1087B00084510020F0B50B46FF2483B007461646CF
:1087C0000E490DF106020DF105008DF805401D461C
:1087D00000F028F8044670B10949BDF806209DF85C
:1087E0000530A1F8822081F8813028463B700131A4
:1087F000328003F05AFA204603B0F0BD85510020C4
:108800008451002000218446054B862203F58270A6
:1088100083F88BC1C3F8001183F88A1103F0EEB915
:108820000C5200202DE9F04F904CA7B0B4F8005145
:10883000B4F802C105F58075A5EB0C08D8F100036A
:10884000DBB25FFA88F858BFC3F100081FFA88F955
:10885000B9F1030F029140F2DA80824693464AF260
:10886000B9500022CDF80CA00EE00CF1010C5FFA1B
:108870008CFCA5EB0C035FFA83F813F0FC0F4FF0B0
:108880000102C14600F0C1805FFA8CF3E15C013364
:10889000DBB2E65C61F3070E66F31F2E8645E4D17A
:1088A00003F1010A5FFA8AFA0AF10106F6B2A75D3E
:1088B000802FDAD8BE1D4E4500F2A6801FFA88F838
:1088C000B045C0F2A18014F80AA08DF810109BB238
:1088D00004A90DF1110914F80380013309F8018B83
:1088E000A9EB01081FFA88F84645DBB2F3D84FF62A
:1088F000FF7307F19808E844CDE900C638F8849C76
:1089000001F10408B84411F8016B734003F001064B
:1089100006EB860C06EB4C3686EA530606F001039E
:1089200003EB830CC6F34E0603EB4C3C8CEA060CBF
:108930000CF0010303EB8306CCF34E0C03EB46363D
:1089400086EA0C0606F0010303EB830CC6F34E0621
:1089500003EB4C3C8CEA060C0CF0010303EB8306A2
:10896000CCF34E0C03EB463686EA0C0606F0010308
:1089700003EB830CC6F34E0603EB4C3C8CEA060C6F
:108980000CF0010303EB8306CCF34E0C03EB4636ED
:1089900086EA0C0606F0010303EB830CC6F34E06D1
:1089A00003EB4C33734041459BB2ACD1DDE900C6CB
:1089B00099457FF45AAF5346DDF80CA00AB1A4F8EC
:1089C00002C18AF800303A4605A90298ABF8007057
:1089D00003F06BF9B4F80031B4F8021103F58073B9
:1089E0005B1A5A42D2B2DBB258BF53429BB29E428C
:1089F00003D87318DBB2A4F8023194F88B3193B921
:108A0000012027B0BDE8F08F0AB1A4F802C194F8A4
:108A10008B311BB9002027B0BDE8F08F144802F05D
:108A2000B1FF0020F7E7134802F0ACFF9AF80020EE
:108A3000BBF80010104802F035FF104802F0A2FF0A
:108A4000BBF800306BB10024029B5D1E0C4815F88A
:108A5000011F02F027FF0134BBF80030A4B2A3428B
:108A6000F4D80A2002F030FFCAE700BF0C52002001
:108A7000A8CB000044CB000064CB00008CCB0000EE
:108A80009CCB0000802A00D970474AF2B9532DE9E7
:108A9000F047DFF8649182B05FFA82F88DF8060043
:108AA000ADF804308DF807801546019BA9F5847652
:108AB000074606F2031A48460C4649F8043C03F000
:108AC000F4F84FF6FF73524606F58270E91C10FA6F
:108AD00081F112F8010F434003F0010000EB800C1C
:108AE00000EB4C3080EA530000F0010303EB830CF1
:108AF00003EB4C33C0F34E00584000F0010303EB8E
:108B0000830C03EB4C33C0F34E00584000F00103DC
:108B100003EB830C03EB4C33C0F34E00584000F0E2
:108B2000010303EB830C03EB4C33C0F34E005840BE
:108B300000F0010303EB830C03EB4C33C0F34E0056
:108B4000584000F0010303EB830C03EB4C33C0F3FC
:108B50004E00584000F0010303EB830CC0F34E00BD
:108B600003EB4C33434091429BB2B2D129F805301C
:108B700008F1060196F88B31C9B286F88A1113B94B
:108B800002B0BDE8F087174802F08CFE96F88A31F3
:108B90004FF0000863B114481AF8011F02F082FE7A
:108BA00008F1010896F88A311FFA88F84345F2D88F
:108BB0000A2002F089FE3A4629460C4802F072FE6D
:108BC0000B4802F0DFFE3DB1254414F8011B0948B3
:108BD00002F068FEA542F8D10A2002B0BDE8F047D5
:108BE00002F072BEC4CB0000ECCB000064CB0000EE
:108BF000DCCB00009CCB000014530020034630B1B6
:108C0000034890F88A2100F582701A8070477047F7
:108C10000C52002010B4104CB4F80031B4F802210A
:108C2000D21AFF32D2F1000C5FFA8CFCD2B258BFDC
:108C3000CCF1000292B291420BD841B1014410F83C
:108C400001CB5A1C884204F803C0D3B2F7D1A4F870
:108C500000315DF8044B70470C52002000220428BC
:108C600028BF1046034BC3E90022C3E90222187053
:108C7000704700BF9853002010B52DED088B9FED75
:108C8000928AB4EEC80AF1EE10FAF0EE418A07D4E7
:108C90009FED8E8AB4EEC80AF1EE10FA38FE008A13
:108CA0009FED899AF4EEC90AF1EE10FA07D49FED10
:108CB000879AF4EEC90AF1EE10FA39FE209AF5EE21
:108CC000C08AF1EE10FA06DBDFED817AF4EEE78A76
:108CD000F1EE10FA16D4DFED7F7A68EEA78AFDEE8A
:108CE000E87AF8EEE77A78EEE78AF5EEC08AF1EEF8
:108CF00010FA44BFF7EE007A78EEA78ADFED747AB7
:108D000068EEA78AB0EE680A00F044F9F0EE407A07
:108D1000B0EE680AF0EE678A00F0FAF868EE280A0A
:108D200069EE007A69EE288A28EE000A70EEE70AFA
:108D300030EE280A00F082F9DFED677A60EE277ADC
:108D4000FCEEE77A17EE903A28EE088A29EE099AA7
:108D50000133DCB2DFED61AA38EE098A07EE904AF2
:108D60009FED5FAAF8EEE78AB4EEEA8AF0EE409A49
:108D7000F1EE10FA28EE8A0A30EE690A4BD918EEA5
:108D8000102AF6EE007A574B68EE277AA3EB6203BF
:108D900007EE103A67EE877AB7EE089A67EE877AA1
:108DA000F7EE00AA39EE679A29EE079A00F0B0F8BC
:108DB00078EEEA8A9FED4CBA68EE8A8A29EE089A24
:108DC00020EE0B8A39EEE80A00F0A2F820EE0B0A3A
:108DD00028EE098A20EE090A78EE007AF4EEEA7AA3
:108DE000F1EE10FA05DD8AEEA77A28EE078A20EE6A
:108DF000070AF7EE007A77EEC87AB6EE007A77EED9
:108E0000C07A631E67EE877A052B56D8DFE803F039
:108E10002C353E454C1A00F07BF8F7EE007A78EEE0
:108E2000E78A9FED319A68EE8A8A20EE098A39EE48
:108E3000E80A00F06DF820EE090A28EE2A8A20EEF2
:108E40002A0AD6E738EE000A38EE277AF0EE676A8B
:108E500070EE277ABDEC088B244BC3ED017AC3ED8D
:108E6000026A83ED037A10BD38EE008A70EE276A3D
:108E7000B0EE677A78EE277AECE738EE000AB0EECB
:108E8000677A70EE276A78EE277AE3E738EE008A91
:108E900030EE277A78EE276ADCE738EE000A78EEC3
:108EA000276A30EE277AD5E738EE008AF0EE676A57
:108EB00038EE277A70EE277ACCE79FED087AF0EE4D
:108EC000476AF0EE477AC5E73ACD93BF3ACD933F74
:108ED000DB0FC94081F9223E4676743F0000000056
:108EE000920A863FDF59375FD7B35D3F9853002022
:108EF00050B149B142B1054BD3F804C0C0F800C02D
:108F000098680860DB681360704700BF98530020C2
:108F1000DFED1E7A20EE270AFCEEC07A17EE903ABB
:108F200013F4404FD9B24FEA1320C3F307220FD1F5
:108F3000174B501C33F8122033F810309B1A01FBEA
:108F400003F302EB232300EE103ABAEEE80A70476F
:108F500010F0800F0E4808D1C2F17F03C2F1800CDF
:108F600030F81C2030F81330E8E7BF2A95BFA2F193
:108F70007F03C2F1FF03A2F1800CC2F5807C30F8C0
:108F80001C2030F8133052425B42D7E783F9224667
:108F900064CC00009FED257ADFED257A30EE070ADC
:108FA000B4EEE70AF1EE10FAC8BF30EE670ADFED63
:108FB000217A20EE270AFCEEC07A17EE903A13F4DD
:108FC000404FD9B24FEA1320C3F307220FD11A4BF7
:108FD000501C33F8122033F810309B1A01FB03F3B6
:108FE00002EB232300EE103ABAEEE80A704710F0C5
:108FF000800F114808D1C2F17F03C2F1800C30F814
:109000001C2030F81330E8E7BF2A95BFA2F17F0398
:10901000C2F1FF03A2F1800CC2F5807C30F81C2065
:1090200030F8133052425B42D7E700BFDA0FC93F36
:10903000DB0FC94083F9224664CC0000B5EEC00ABC
:10904000F1EE10FAF5EEC00AB4BFB1EE406AB0EE30
:10905000406AF1EE10FAB4BFF1EE606AF0EE606AB9
:10906000F4EEC66AF1EE10FA9FED204A76FE865ABB
:1090700075EE845A58BFF0EE466A86EEA56ADFEDBB
:109080001C7A66EE066ADFED1B4A66EEA77A77EE7B
:10909000A47A9FED195A67EEA67A77EEC57A67EE45
:1090A000A67A67EE867AB0EE407AF5EEC00A37EE21
:1090B000860A44BFDFED117A37EEC00AF1EE10FAEE
:1090C000B5EEC07A44BFDFED0E7A37EEC00AF1EE9E
:1090D00010FA48BFB1EE400AB5EEC00AF1EE10FA40
:1090E00044BFDFED087A30EE270A7047FFE6DB2E3B
:1090F00016733EBD4423233E2CBEA73EDB0FC93F63
:10910000DB0F4940DB0FC94000BE704708B500F0D7
:1091100037F8FFF715F9FEE7F8B5174F05463E6833
:10912000A6B17C6806EB460604EB860602E00C342A
:10913000B4420BD0637AAB42F9D1D4E900020021EA
:10914000121A0C3402F05AFDB442F3D1BE6896B143
:10915000FC6804EB061602E01034A6420BD0637BD9
:10916000AB42F9D1D4E90002A168121A103402F01E
:109170009CFDA642F3D1F8BDF4CC0000704700BFBF
:109180004FF47001274B284A70B50020C3F88810AF
:109190009A60FFF7F3FF00F069F80120FFF7EEFF98
:1091A000224B83F30A880020FFF7B6FF00F048F84F
:1091B00000F000F9032000F03DFA00234FF6FF70A5
:1091C0001B4903F108020133092B21F81200F8D1E1
:1091D0000024032000F0FEF9032000F02BFA154BC9
:1091E00003205C609C60DC601C6100F0F3F90220ED
:1091F000FFF7C4FF0120FFF78FFF0F4D0F4B5B1BE5
:10920000A3424FEAA30605DD55F8043B0134984715
:10921000A642F9DC00F094F9BDE87040002000F0AF
:1092200021B900BF00ED00E00080000080100020A8
:10923000000D084000000E4008D300000CD30000D1
:10924000064B074993F826001A6A51F82030C2F3FA
:1092500002620449D3400B60704700BF00E0014048
:1092600080500020A8530020704700BFF8B54AF294
:10927000035001234449454AA1F8FE03A2F80431F2
:10928000B2F804319BB2002BFAD101214FF4004017
:109290004FF0200E4FF0090C3D4C3E4F3E4D6760A5
:1092A0003E4F394BE7603E4EA2F800113D4AA9609F
:1092B000296026606261A06093F826202061196A07
:1092C00054F82220384EC1F30261CA40326083F85C
:1092D00013E483F8A2C093F880241AB993F8813478
:1092E00099074CD0284D95F88034002B3CD00022B3
:1092F000254B83F8812483F880240023224981F8B8
:10930000323091F83C301A07FBD54FF4005000235F
:109310001D4A088581F82A3092F83C309B06FBD51F
:109320000320052319494FF0F10C81F81C011F4956
:10933000116282F8263092F82630156A54F823001C
:10934000C5F302640123E0403060F0244FF425406F
:10935000174981F80CC00B720C7382F8303082F818
:109360005230A2F8FE03F8BD0121C82085F8801410
:1093700000F082F895F88034012BFBD1B7E74FF469
:109380007A70FFF771FFB8E700E0014000C00140CC
:109390008050002000127A0000700040001BB700CF
:1093A000002D3101803DCD0BA8530020211201205A
:1093B0000020004038B50025284C0121C82084F841
:1093C000285000F059F884F8245094F82430002BE9
:1093D000FBD194F82430214943F0020384F824306F
:1093E00091F82430C3F340009B07F9D41B4A81F85D
:1093F000220092F8223003F0FF00002BF9D192F8FE
:109400004030164960F3C71382F8403091F840307D
:10941000DB09FBD191F84200104A63F3C71081F8D1
:10942000420092F84230DB09FBD192F844000B492C
:1094300063F3C71082F8440091F84430C3F3C014BA
:10944000DB09F9D1012000F0F5F8054B012083F884
:10945000BB44BDE8384000F0BDB800BF0030084054
:1094600000E00140704700BF00BEFEE7A0F1010030
:109470000028FBD1704700BF1F4B204A1B6800FB30
:1094800001F1934213D302F1854202F5071203F56D
:10949000741302F6834203F6FF03A2FB03231B0DA2
:1094A000A3FB01314FF0FF30F9B1FFF7DFBF4FF4FD
:1094B0007A7210B4A1FB02C41148B0FBF3F34FF071
:1094C000FF3044B9BCFBF3FC4FEA9C0088B15DF867
:1094D000044BFFF7CBBF9B00B1FBF3F1A1FB0212E2
:1094E000002AF4D1084620B1F1E71846002BDCD160
:1094F00070475DF8044B7047A853002000127A00B3
:1095000000CA9A3B70B500240B4B0C4EB3F82021D7
:10951000B3F84051ADB2154025FA04F3DB0704D58A
:1095200056F82430E0B203B198470134102CF3D13F
:10953000014BA3F8305170BD00600040AC530020D7
:1095400030B5032085B000F075F800256FF0FF00FE
:109550004FF0FF321B4B1C4C986421462B464FF0BA
:10956000010ECDE90122039231F8020B0EFA03FC41
:10957000013310B1012522EA0C02052BF4D1F5B11B
:109580000192124B0F4903200A67C3F88022029A06
:109590004A67C3F88422039A8A67C3F8882200F0D6
:1095A00019F800230A4834F8022B03F1C0010133F3
:1095B0000AB140F82120052BF5D105B030BD4FF0A0
:1095C000FF32DEE70080004010D2000000E100E042
:1095D00000600040EFF31081012383F31088124BE9
:1095E00033F8102092B22AB133F81020013A92B227
:1095F00023F8102033F810309BB293B90B4A10B403
:10960000B2F8FE330A4C9BB234F8100043F4254301
:1096100023EA0003A2F8FE3381F310885DF8044BBF
:10962000704781F3108870470454002000E0014027
:10963000E8CC000030B4EFF31081012383F31088ED
:109640000E4A32F810309BB26BB90D4C0D4DB4F888
:10965000FE3335F810C09BB243EA0C0343F42543B4
:109660009BB2A4F8FE3332F8103001339BB222F8DB
:10967000103081F3108830BC704700BF04540020C4
:1096800000E00140E8CC0000094908B50A688318E9
:10969000B3F5805F03D807480B60104408BD02F0A3
:1096A000FBFA0C2203464FF0FF301A6008BD00BFE2
:1096B000105400208000002003461A689B8A002076
:1096C0001380704703461B68103133F811300020B7
:1096D00013807047F0B5C769054689B017B3BE4619
:1096E0006C468C46BEE80F003E460FC49EE80F0055
:1096F00084E80F00BCE80F000FC69CE80F008EE85E
:109700000F00AB6938469847EB694BB19C46EE4673
:10971000BEE80F00ACE80F009EE80F008CE80F00D9
:1097200009B0F0BD0F46ECE710B5024688B0EFF384
:1097300003831249103B5BB251F82300EFF303831C
:10974000103B0F495BB2C03351F8234024F48034FE
:1097500041F8234051F82330002143688DF802205E
:109760001C88026A8369ADF8004001928DF80810E8
:1097700013B16946FFF7AEFF08B010BDF0530020EB
:10978000006000402DE9F04FD1E9005441F2360964
:10979000426883B052698E68019202681FFA85FCA4
:1097A000A2F804C01FFA84FCA2F814C024F0C04739
:1097B00045EA040C25F0C04BB4B226F0C04E14812B
:1097C0003F0C4FEA1B44DFF87CA14FEA1E4ED480C9
:1097D000574BD782A2F80AE0DAF820401B68C4F39E
:1097E0000267DFF86481C4F30214BB40E340A8FBC6
:1097F00003839B0909FB03F34E4CA4FB03439B0C1F
:109800000133072B38BF07231CF0005420D0EFF39F
:109810001085012282F31088474AD46824F480041A
:10982000D460D26885F310889024444A0D6814707F
:109830000268DCB215F0005F8E6882F8DE400CBF73
:109840004FF480644FF48074B70048BF44F00104C3
:109850001CF0804F0DD06F00DBB248BF44F40074A1
:1098600082F8DF3058BF44F40064730048BF44F00E
:109870000204CB68A4B25482002B57D01C89270560
:1098800029D5D3E900C6B3F80A80A2F890404FEA80
:109890001C4EA2F89C80B3F80C80370C2EF4C04EFE
:1098A000A2F89E801FFA8EFE1FFA8CF827F4C0479C
:1098B000CCF3417CA2F89480BFB2A2F896E082F883
:1098C00092C01FFA86FCC6F34176A2F898C0A2F8AF
:1098D0009A7082F89360A6051CD40B8AA2F8904077
:1098E000A2F88030019B1B796BB1BBFA8BFB13880C
:1098F000818A9BB223F01F031F33A3EB0B039BB2A0
:109900001943138081820E4BC0E90335002003B058
:10991000BDE8F08F9E7CDF7C3E4382F8A660DE8946
:109920001B8AA2F8A860A2F8AA30D6E71C46D4E7A2
:10993000A853002083DE1B430040084000300F4046
:109940004344415200E00140D34D621010B400F195
:10995000604C134C0901134BC9B20CF5614C8CF8E7
:10996000001300F1C00144F8202053F8212022F414
:10997000803243F8212053F82130BFF35F8F01225A
:1099800043099B0000F01F0003F1604303F56143AE
:109990008240C3F880211A605DF8044B704700BF15
:1099A000F0530020006000402DE9F0410027CA6814
:1099B0000B884E6982610A695B02C0E9077203F194
:1099C000804303F5B813416003608A78B378054695
:1099D0000C4630795203002B63D142F450710028B9
:1099E00064D189B2A982F0781B02227900F03F008D
:1099F00003F47C530343E078D20342EA40027078D8
:109A000096F800C042EA4012EFF31088012080F37C
:109A10001088B4F800E02B4FCEF1100E00FA0EF0D3
:109A2000D7F80CE02EEA0000F860F86888F3108898
:109A300090B247F6FF5211402A689BB21180138200
:109A4000D08182F80CC0B379A3F10103B3FA83F398
:109A50005B0982F8D03094F90600002803DB2A461F
:109A6000617AFFF773FF94F90700002803DB2A46A9
:109A7000A17AFFF76BFF96F90700002803DB2A465F
:109A8000717AFFF763FF96F90800002803DB2A4686
:109A9000B17AFFF75BFF00200B4B2861AB60BDE89C
:109AA000F0813F2B42F4107108D110B141F08001D8
:109AB00097E742F4024141F0400192E7002890D03C
:109AC000F4E700BF00400840434441520020FFF744
:109AD0002BBE00BF30B58646EFF31084012383F31D
:109AE00010880D4A906820F480409060926884F35A
:109AF00010880022094DC3F3120424B131F812C0BA
:109B0000141D25F824C00132DB18132AF3D1044BAD
:109B10000020CEF8003030BD004008400020084052
:109B2000434C45008022024B00201A70704700BF52
:109B30000020084003460020D3E9022393607047C9
:109B400003460020D3E902235360704703460020F8
:109B5000D3E90223D3607047034630B4D3E901232D
:109B6000D2690020D2E9011444F00045D46841F0E4
:109B7000004144F000445D619C61D2E904421961F6
:109B80005C629A6230BC70474FF0004100228368EB
:109B900010461961596199615A629A62704700BF13
:109BA00010B4D0E901231278032A0ED90C46996625
:109BB000DA6AD20705D44FF4AA01C2685C66196458
:109BC000DA6000205DF8044B70474C1E9C66002A4A
:109BD000EED14908013959659965E9E7032A836897
:109BE00008D0042A08BF0322013903EB82030020B6
:109BF000D96470470422F7E703469A680020D36AC5
:109C0000C3F300030B71936C0B6070478446002014
:109C1000CCE90632CCF81410704700BF30B4D0E95C
:109C2000012310785A6E03280C4D98BF01320C4C5A
:109C30008A60D86A2A6A2368C2F3026C03FA0CF3BA
:109C40004FF0010C30BC02F00702C0F3C350D34008
:109C5000C3404B60002081F800C0704700E0014025
:109C6000A853002010B490F800C0886EBCF1030F18
:109C700012D9002A3DD1019A12F0010F4A6B4CD142
:109C800002F01F020F2A8CBF00220122B2B9022269
:109C90005DF8044B5A6070470130B2B9019A12F076
:109CA000010F4A6B18BFC2F3044202F00C02A2F18A
:109CB0000402B2FA82F25209002AE8D00028E6D063
:109CC00003225DF8044B5A607047904220D8019CF3
:109CD000496BE40731D401F01F0101F00C01A1F13F
:109CE0000401B1FA81F149098242E9D30029E7D0A0
:109CF000CDE790420DD8019C496BE40716D401F0E2
:109D00001F010F298CBF002101210029D8D0BEE7F7
:109D1000013A5DF8044B1A607047C2F304420F2AFF
:109D20008CBF00220122002AB1D0C7E7C1F3044151
:109D30000F298CBF00210121D6E7C1F30441CCE7F4
:109D40009FED377B2DE9F043D0E90196144685B0AD
:109D500000920F46484602AB02F003080A4631461D
:109D60008DED027BFFF77EFF0399356B04F0400217
:109D7000A1B1002A3AD0336CB8F1010F43F480034B
:109D800033641ED025F4403545EA0145B8F1000F93
:109D900017D10020356305B0BDE8F08314F0080F3B
:109DA00014BF04230223A407029813D506EB8303F0
:109DB000D864186572B3336C25F4403543F48003DE
:109DC00033640A06002025F040751543356305B05D
:109DD000BDE8F083434406EB8303D864002ACAD16C
:109DE000B8F1010FEED025F44035D2E7B8F1010FFC
:109DF00013D025F44035022C45EA0145C6D1012196
:109E00003A4600914846314602ABFFF72BFF039AD2
:109E10001206D7E725F44035D4E7022CD1D1EEE77E
:109E2000FFFFFFFF0000000030B44368024693F9D3
:109E30001210DB69002910DB012401F01F05AC4082
:109E40004809544D203045F82040BFF34F8FBFF3F1
:109E50006F8F0024504840F8214093F928100029C2
:109E600010DB012401F01F05AC404809494D2030AA
:109E700045F82040BFF34F8FBFF36F8F0024464853
:109E800040F8214093F92910002910DB012401F04A
:109E90001F05AC4048093F4D203045F82040BFF336
:109EA0004F8FBFF36F8F00243B4840F8214093F958
:109EB0002A10002910DB012401F01F05AC404809DD
:109EC000344D203045F82040BFF34F8FBFF36F8FE4
:109ED0000024314840F8214093F92B10002910DB71
:109EE000012401F01F05AC4048092A4D203045F8F7
:109EF0002040BFF34F8FBFF36F8F0024264840F8F8
:109F0000214093F92C10002910DB012401F01F05DA
:109F1000AC4048091F4D203045F82040BFF34F8F1B
:109F2000BFF36F8F00241C4840F8214093F92D1097
:109F3000002910DB012401F01F05AC404809154D34
:109F4000203045F82040BFF34F8FBFF36F8F0024C0
:109F5000114840F82140DB6CA3B193F90130002B8C
:109F600010DB01200B4C590903F01F052031A840DC
:109F700044F82100BFF34F8FBFF36F8F00200649D5
:109F800041F823000020D2E9023130BC1060996012
:109F90005863704700E100E0F05300204FF0010CDF
:109FA0002DE9F04F464C0B7C85B01C4424020CFA82
:109FB00003F3C0E9024303F00F03B3FA83F3002273
:109FC0005B0903744B690F4643618B690546C0E921
:109FD0000623CE694160EFF310848CF310884FF0B4
:109FE000004C384B087C19692CFA00F021EA00017A
:109FF00019611B6984F310884FF42543AC68236012
:10A00000E262E263A26497F80080397A7B68B8F173
:10A01000030F4FEAC15103F1FF3000F0608253D9C2
:10A0200041EA0841E1624FF00042D6E906C0002152
:10A03000D6F8509022616261A2616162A162C4F8A7
:10A040001CC02062A366636600234FF0FF3A4FF006
:10A05000000B0093FA68686802AB2146CDE902ABB9
:10A06000FFF700FEDDE90232100640EA0240B8F1D7
:10A07000030F636540F0030CA36540F0010084BF4B
:10A08000E3652366B9F1000F3DD13378002B40F032
:10A0900019824946B378002B36D0F27897F800E061
:10A0A0001301BEF1020F43EA821300F0268240F250
:10A0B0002F820322134341EA034343F0807123E0DC
:10A0C0009016400000400840E162C4F810C0C4F897
:10A0D00014C0C4F818C06262A262B269D6F8509087
:10A0E000E261F2692262A0666066B8F1000F40F09A
:10A0F00008825B08013B636501204FF0030CA365F8
:10A10000B9F1000FC1D0494600236A68D26992F8BC
:10A1100048E002F1300A2EFA03F2D2070CD5032BE5
:10A120005AF8232000F06681042B00F06E81013A7A
:10A1300004EB830BCBF84C200133062BEBD1F26CF4
:10A14000002A00F0D0814FF0010A3B7C92F802E037
:10A1500092F803B00AFA03F34FEA0E6EC3F3090351
:10A160004EEA0B7E6BB1D2F808B0BBF1000F40F0A5
:10A17000C281D368003B18BF0123C4F88830C4F8FB
:10A180008CB0C4F838E0B9F1000F0ED1137F92F80B
:10A190001BE05B0643EA4E23194396F8213096F8FC
:10A1A00020E05B0743EA4E33194396F84830002B12
:10A1B00014BF4FF4A0034FF4AA03B8F1010F2364B6
:10A1C00002D10023E3642365EB686163C4F830C007
:10A1D0002063E36097F91230002B25DB797C03F1D3
:10A1E00060400901CF4CC9B200F5614080F800130E
:10A1F000CD4903F1C00044F8235051F8204024F425
:10A20000803441F8204051F82010BFF35F8F0121C6
:10A2100003F01F005B099B0003F1604303F56143FA
:10A220008140C3F88011196096F92830002B26DB95
:10A2300096F8221003F160400901BA4CC9B200F54A
:10A24000614080F80013B84903F1C00044F823507E
:10A2500051F8204024F4803441F8204051F8201077
:10A26000BFF35F8F012103F01F005B099B0003F127
:10A27000604303F561438140C3F88011196096F98A
:10A280002930002B26DB96F8231003F160400901EA
:10A29000A44CC9B200F5614080F80013A24903F153
:10A2A000C00044F8235051F8204024F4803441F891
:10A2B000204051F82010BFF35F8F012103F01F00F1
:10A2C0005B099B0003F1604303F561438140C3F8E0
:10A2D0008011196096F92A30002B26DB96F824109D
:10A2E00003F1604009018F4CC9B200F5614080F86C
:10A2F00000138D4903F1C00044F8235051F8204069
:10A3000024F4803441F8204051F82010BFF35F8FCF
:10A31000012103F01F005B099B0003F1604303F57B
:10A3200061438140C3F88011196096F92B30002BEE
:10A3300026DB96F8251003F160400901794CC9B27B
:10A3400000F5614080F80013774903F1C00044F83C
:10A35000235051F8204024F4803441F8204051F833
:10A360002010BFF35F8F012103F01F005B099B00EA
:10A3700003F1604303F561438140C3F88011196024
:10A3800096F92C30002B26DB96F8261003F160405E
:10A390000901644CC9B200F5614080F800136249BC
:10A3A00003F1C00044F8235051F8204024F48034D5
:10A3B00041F8204051F82010BFF35F8F012103F0D6
:10A3C0001F005B099B0003F1604303F5614381407B
:10A3D000C3F88011196096F92D30002B1FDA1AB1DD
:10A3E00092F90130002B45DA0020504B2B6005B06C
:10A3F000BDE8F08F013A1EF0100FE26538D004235B
:10A40000042BDAF810207FF492AE013A1EF0200FF0
:10A41000A2653FF494AE0523DAF8142087E696F897
:10A42000271003F160400901C9B200F5614080F8CE
:10A4300000133C483C4940F8235003F1C00051F858
:10A44000204024F4803441F8204051F82010BFF31C
:10A450005F8F01205909890003F01F0301F160415A
:10A4600001F5614100FA03F3C1F880310B60B6E7F2
:10A47000052350E6127803F1604112012948D2B257
:10A4800001F5614181F80023274A03F1C00140F83A
:10A49000235052F8210020F4803042F8210052F875
:10A4A0002120BFF35F8F01215A09920003F01F039F
:10A4B00002F1604202F5614201FA03F3C2F8803111
:10A4C000136091E773783A781901022A41EA8311FF
:10A4D00015D022D90323194341F48071DAE50346EC
:10A4E00041F480319EE5A263C4F88820B9F1000FE1
:10A4F0007FF45BAE51E653463FE60922DAE50923D5
:10A50000E9E7B8F1010F7FF49FAD4FF0FF33F2E5BB
:10A51000002A0CBF06220922CCE5002B0CBF062323
:10A520000923D8E7F0530020006000405450470052
:10A5300082680129536B02D043F4807309B143F060
:10A54000807300205363704782680129536B02D0E7
:10A5500023F4807309B123F08073002053637047A4
:10A5600003465A681B690020536070472DE9F0418B
:10A5700006460D4607460C4601F10C0854F8043F08
:10A58000D3E90001FFF70AFD23681B689B6847F8C1
:10A59000043F2A78022A03D1196C41F4202119645E
:10A5A0004445EBD16969044B327500203161B561D6
:10A5B0003360BDE8F08100BF335450470120CBB277
:10A5C000984080B202B900040B0A5B0103F180439A
:10A5D00003F5002398600020704700BF2DE9F84F75
:10A5E0000388DBB182464FF0000B4FF00109DFF822
:10A5F000D0800024304D4FEACB07DAF8043035F82C
:10A60000022BD919898891420AD00134032CF4D144
:10A61000BAF800300BF1010B5B45EAD8BDE8F88FC2
:10A62000DB5909FA04F603F0B853B3F1807FF6B2B0
:10A6300098F8BB3413D0334231D1204A04F12006BC
:10A6400012F81630DB09E0D012F81630012123F0A1
:10A650008003C82002F81630FEF70EFFD5E733421C
:10A6600011D0164A04F1200112F81130DB09CCD1C7
:10A6700012F81130C82043F0800302F81130012194
:10A68000FEF7FAFEC1E70120FEF7D4FF98F8BB34CD
:10A690000120334388F8BB34FEF79CFFE1E701203B
:10A6A000FEF7C8FF98F8BB34012023EA060388F8B8
:10A6B000BB34FEF78FFFC0E700CE0000003008403B
:10A6C00000E00140F8B50446FFF788FFEFF3108281
:10A6D000012383F31088234F3B681BB92249CB70B9
:10A6E0004023CB703B6801333B6082F310882388A2
:10A6F0002BB361681D4C01EBC30E06E01B01083152
:10A7000013448E4544F8230019D008688A88C5038D
:10A710004FEA1223D2B2F1D502EB031C54F82C609D
:10A720001B01083120F4803526F4803613448E4511
:10A7300044F82C6044F82C5044F82300E5D1EFF3A2
:10A740001082012383F310883B6813B13B68013BFF
:10A750003B603B681BB980200349CB70C87082F313
:10A760001088F8BDEC530020000D08400008084098
:10A7700008B5034B03600846FFF7A4FF002008BD9F
:10A7800054524F5010B4046AA37803F07B03A370B3
:10A79000837803F00303D21A0B440261A278C360EA
:10A7A000837842F0800203F00303022BA27005D0ED
:10A7B0000B780020E3705DF8044B70470B88002095
:10A7C00043F47E43E3815DF8044B7047F0B5846A3F
:10A7D00085B005460F4694466E46B4B194E80F0026
:10A7E0008DE80F00EB6920461B7884F804C02360D5
:10A7F000EB6AC4E902736B6A9847AC6A1CB196E8CD
:10A800000F0084E80F0005B0F0BD6C46EAE700BF1A
:10A810002DE9F04101240A780346944014F0060F14
:10A8200005D0C86940680078000700F1B0810020B9
:10A8300002F5800202F58C5218701202C3E9071269
:10A840004A6901255A628A699E78C3E90A024A78F0
:10A85000D04CB2FA82F25209524202F003026A402C
:10A8600062F301069E7091F90B6091F80AC07209BB
:10A8700006F01F07203205FA07F744F82270BFF3ED
:10A880004F8FBFF36F8FC44A06F1C00752F827E01D
:10A8900060F3104E42F827E052F82770BF4F4FEA9E
:10A8A0000C1C04EB060E5FFA8CFC8EF800C347F814
:10A8B000263091F9056091F804C04FEA561E06F063
:10A8C0001F080EF1200E05FA08F844F82E80BFF399
:10A8D0004F8FBFF36F8F06F1C00E52F82E8060F3DA
:10A8E000104842F82E8052F82EE04FEA0C1C04EB80
:10A8F000060E5FFA8CFC8EF800C347F8263091F9FB
:10A90000076091F806C04FEA561E06F01F080EF1C8
:10A91000200E05FA08F844F82E80BFF34F8FBFF3DE
:10A920006F8F06F1C00E52F82E8060F3104842F887
:10A930002E8052F82EE04FEA0C1C04EB060E5FFA54
:10A940008CFC8EF800C347F8263091F9096091F825
:10A9500008C04FEA561E06F01F080EF1200E05FA39
:10A9600008F844F82E80BFF34F8FBFF36F8F06F1C6
:10A97000C00E52F82E8060F3104842F82E8052F834
:10A980002E204FEA0C12D2B2344484F8002347F848
:10A990002630EFF3108785F310884FF000460C78CF
:10A9A0007F4AE640546824EA06045460526887F3FC
:10A9B00010881A6A40F2F9379070107150729072D4
:10A9C000D07250830878CC69854040F2F930054256
:10A9D00018BF40204FF0060518BFD074012015772E
:10A9E0000D788E78A840384218BF4FF478404D78E3
:10A9F000C97818BF9082C900032D41EA061100F002
:10AA0000C280002D0CBFE220F220C9B211709071FB
:10AA1000217B08290EBF0A21490001F00201517370
:10AA20006178A078C901400100F02000C9B201435B
:10AA30000020107294F800C0ACF10200012840F22E
:10AA40009880C9B2D171616888784D78507010785B
:10AA500065F301001070C87809789074D07901F01E
:10AA60005C0100F0A3000143D1710020D969186195
:10AA70009861D860586191F90550474A05F1C001C5
:10AA800052F8216060F3104642F8216052F821101C
:10AA9000BFF35F8F01266909890005F01F0501F1E9
:10AAA000604101F5614106FA05F5C1F880510D607C
:10AAB000D96991F90B5005F1C00152F8217060F38A
:10AAC000104742F8217052F82110BFF35F8F6909D7
:10AAD000890005F01F0501F1604106FA05F501F551
:10AAE0006141C1F880510D60D96991F907E00EF11B
:10AAF000C00152F8215060F3104542F8215052F83D
:10AB00002110BFF35F8F4FEA5E1189000EF01F0E18
:10AB100001F1604106FA0EF501F56141C1F880517D
:10AB20000D60D96991F9091001F1C00552F825703D
:10AB300060F3104742F8257052F82520BFF35F8F6D
:10AB40004A09920001F01F0102F160428E4002F5B5
:10AB50006142C2F8806116601A6A0CF0030C4CF076
:10AB6000700C618982F802C00E4A19815A60BDE8F2
:10AB7000F081FF20BCF1020F08BF41F01001C9B203
:10AB80005070D17171E7F22041F040013DE70320A0
:10AB9000BDE8F08100E100E000600040F0530020DB
:10ABA000004008405549435310B4EFF30383103B72
:10ABB000214A5BB203F1C00152F8210020F4803039
:10ABC00042F8210052F821201C4A52F82300C269A1
:10ABD000036912691AB11BB15DF8044B704783B960
:10ABE000D0E908240021937803F07F0343F00403A5
:10ABF0009370C160002CEFD080225DF8044BFFF70A
:10AC0000E5BD8278046A02F0030CBCF1020FC16852
:10AC10000AD091F800C084F803C002F003029B1A26
:10AC20001144C0E90313D6E7B1F800C04CF47E4CE0
:10AC3000A4F80EC0F1E700BF00600040F053002010
:10AC400010B582B0EFF30383103B1F4A5BB203F1F0
:10AC5000C00152F8210020F4803042F8210052F85F
:10AC600021201A4A52F82340A278236A02F00301F5
:10AC700002290CBF198A5979A3690CBFC1F30801D5
:10AC8000C9B2019143B9636AB3B10422204602B04C
:10AC9000BDE81040FFF79ABD02F0030201A9606908
:10ACA00001F003F8D4E90521A37803F003031A4463
:10ACB000C91AC4E9052109B102B010BD636A002BAD
:10ACC000FAD00122E2E700BF00600040F05300200C
:10ACD00010B5EFF303830E4A103B5CB252F8240028
:10ACE000D0E90821937803F07B03937019B1022215
:10ACF0000021FFF76BFD074A04F1C00352F823104F
:10AD000021F4803142F8231052F8233010BD00BFE7
:10AD1000F05300200060004010B5EFF303831A4A9F
:10AD2000103B5CB252F824008278036A02F00302FE
:10AD3000022A0CBF198A597993F804C00CBFC1F3D9
:10AD40000801C9B21CF0100F0CF0380206D093F8BD
:10AD50001CC01CF0010F08BF42F0400293F804C071
:10AD60000CF0C70C83F804C0436A0BB1FFF72EFD4B
:10AD7000064A04F1C00352F8231021F4803142F84E
:10AD8000231052F8233010BDF05300200060004023
:10AD900008B50E4B0E4AD3F8FC1F914203D1002296
:10ADA000C3F8FC2F62B600F0E1FA00F0BFFA00F041
:10ADB00029FB00F057F900F0B5F900F0CFF900F0E9
:10ADC00061F9BDE8084000F061B800BF00F0032061
:10ADD000504D554ABFF34F8F4FF0E023024AC3F85E
:10ADE0000C2DBFF34F8FFEE70400FA0500F0A4BA64
:10ADF00000F09EBA00F028BB00F020BB00F0E8B9DC
:10AE000000F050BA00F070BA00F078B800F082B8E4
:10AE100000F0A2B800F0D0B800F04CB900F070B962
:10AE200000F074B900F080B900F01EB900F01EB94E
:10AE300000F024B900F024B910B428210022124CEB
:10AE400005E034F813C084458CBF19461A46A1EBBF
:10AE5000020C8B18BCF1010F4FEA6303F1DC34F8EC
:10AE600012C034F81110A0EB0C0000EB800083003E
:10AE7000A1EB0C0193FBF1F31421053212FB01301D
:10AE80005DF8044B704700BF1CD2000008B52022BB
:10AE90000021114800F0B2FE10491148FEF784FD70
:10AEA00010490F48FEF76EFC0D48FEF705FC0E49F1
:10AEB0000E48FEF779FD0E490C48FEF763FC0B487F
:10AEC000FEF7FAFB0B490C48FEF704FEBDE808400C
:10AED0000948FEF727BE00BF3855002000D100000A
:10AEE000F0540020ECD0000038D1000014550020B0
:10AEF00024D1000008CE00001C540020044B10B5E3
:10AF0000202204460021184600F078FE048310BD7C
:10AF100038550020E0B1D9B1D2B130B40D4C237F07
:10AF20008BB12568A389B4F80EC064685B1B1B0154
:10AF3000ACEB040424015D420560234460420860D8
:10AF400030BC13607047036030BC0B601360704707
:10AF5000704700BF3855002020B370B50D46C1B111
:10AF6000144E0446F08AB0F5527F13D940F6DB3315
:10AF7000984218D8FFF760FF0346B08A2360B0F507
:10AF8000527F0DD940F6DB3398420FD8FFF754FFBC
:10AF9000286070BD6423B08A2360B0F5527FF1D879
:10AFA0006420F5E770474FF46173E6E74FF4617092
:10AFB000EEE700BF3855002018B1024B5B8ADB007A
:10AFC000036070473855002070B5857805B170BDB5
:10AFD0001E4C012122461E48FEF774FBA21C294686
:10AFE0001C48FEF76FFB227CA4F10C033ABBA58939
:10AFF000CDB154F80C1CE289988954F8086C0844C7
:10B000000132618892B231449542E28144F80C0CDD
:10B0100044F8081C07D890FBF2F091FBF2F10122F2
:10B0200044E90301227403210B4A0948FEF74AFB55
:10B03000BDE870400721094A0548FEF743BB084BAD
:10B040001B68002BEFD09847EDE700BF4455002068
:10B05000F0540020145500204A5500204C55002083
:10B0600058550020704700BF704700BF11B10AB1AA
:10B07000014B1B78704700BF040000200020704780
:10B08000704700BF08B508490848FEF787FF074822
:10B09000FEF762FD0548FEF753FD0022044BC3E9AD
:10B0A00000229A6008BD00BF74D00000D054002078
:10B0B0006055002010B50E4C0E482146FEF79CFD51
:10B0C00041F288300C4B21681A688A1A824205DDE9
:10B0D0009A68013A9A60C3E9001110BD074882429C
:10B0E000F9DA9A68C3E9001101329A6010BD00BF15
:10B0F0006C550020D05400206055002078ECFFFFF4
:10B10000014B5868704700BF60550020044942F267
:10B110001072D1E901300021C0FB0231184670479E
:10B1200060550020704700BF032811D8022870B571
:10B1300004460CD00D46074E0A1E18BF012236F8F1
:10B140002010054806EB8406FFF738FAB57070BD8D
:10B15000704700BF080000201454002070B5012281
:10B1600040F207311448FFF729FA14491448FFF751
:10B17000FDF9002640F2EE4240F2BC43114910486E
:10B180008D681149C5F888608C681049C4F88860DA
:10B190008968C1F88860EA642B656A65AB65E2641A
:10B1A00023656265A365CA64BDE870400B654A65A6
:10B1B0008B65FFF7D5B900BF1454002068CE00009E
:10B1C000545400207054002090540020B0540020AB
:10B1D00047F69913984270B44ADC40F6AB1440F637
:10B1E000911320EAE070C0F5004004FB00F0C00BB2
:10B1F000984247F6991428BF1846A14200F1190356
:10B20000A0F119003CDC40F6AB1540F6911421EAA0
:10B21000E171C1F5004105FB01F1C90BA14228BF55
:10B22000214647F69914A24201F11906A1F119012C
:10B230002EDC40F6AB1422EAE272C2F5004204FBB7
:10B2400002F240F69114D20BA24228BF224602F12C
:10B250001905193A104CA4686365104BA0659B68EA
:10B260000F485E65996583685D659A6570BC704737
:10B2700047F69914A1424FF062004FF09403C2DDEB
:10B2800047F69914A2424FF062014FF09406D0DDC8
:10B2900062229425DEE700BF705400209054002005
:10B2A000B054002008B500210C48FFF741F90121F6
:10B2B0000A48FFF73DF900210948FFF739F9012154
:10B2C0000748FFF735F900210648FFF731F9BDE8D7
:10B2D000084001210348FFF72BB900BF705400203C
:10B2E00090540020B054002008B500210C48FFF70E
:10B2F0002BF901210A48FFF727F900210948FFF738
:10B3000023F901210748FFF71FF900210648FFF73D
:10B310001BF9BDE8084001210348FFF715B900BF3C
:10B320007054002090540020B0540020704700BF9B
:10B330000121FEF7A1B800BF4FF47A71FEF79CB867
:10B3400030B4084C084DD4E900232D68501C43F15B
:10B350000001C4E9000115B12B4630BC184730BCD0
:10B36000704700BF805500207455002038B5FDF7A8
:10B3700007FF18491848FFF7FBF9184B184A1B68D4
:10B38000A2FB03129209013AB2F1807F0BD24FF077
:10B39000E0214FF0F00C00240720124D4A6185F89F
:10B3A00023C08C610861104AB7EE007AA2FB032328
:10B3B0009B0C07EE903A9FED0D6AF8EEE77AC7EE28
:10B3C000276A86EE277A0A490A4AC1ED006A82EDA9
:10B3D000007A38BD5CD1000014540020A85300202E
:10B3E000D34D621000ED00E083DE1B4300007A4481
:10B3F0007C55002078550020014BD3E900017047AF
:10B400008055002008B507490748FFF701FA0122D7
:10B41000064B1A7000B908BD1721054B054A0648AE
:10B42000FEF722F834CE000024540020180000203B
:10B43000F4CB000070D2000008CC000008B1014B32
:10B44000186070478855002048B32DE9F0410E463A
:10B4500009B9BDE8F0818046FFF7CEFF104F0446E2
:10B460000D4608E0FFF7C8FF001B61EB050132281D
:10B4700071F1000102DA3B78002BF3D0862E28BF51
:10B48000862600234146324606483B7000F00DFCFC
:10B490003246BDE8F04103490348FFF773B97047EE
:10B4A000180000208C550020245400200379022B22
:10B4B00007D0042B08D1054B1B682BB101210830A4
:10B4C00018470122024B1A70704700BF88550020B0
:10B4D000180000204FF0FF30704700BF4FF0FF30E2
:10B4E000704700BF4FF0FF30704700BF012070472A
:10B4F00010B51446084691B2FFF7A6FF204610BDCE
:10B5000080F0004002E000BF81F0004142001FBF18
:10B510005FEA410392EA030F7FEA226C7FEA236C21
:10B520006AD04FEA1262D2EB1363C1BFD218414016
:10B5300048404140B8BF5B42192B88BF704710F0AC
:10B54000004F40F4000020F07F4018BF404211F04F
:10B55000004F41F4000121F07F4118BF494292EAB7
:10B56000030F3FD0A2F1010241FA03FC10EB0C00E3
:10B57000C3F1200301FA03F100F0004302D5494270
:10B5800060EB4000B0F5000F13D3B0F1807F06D31D
:10B5900040084FEA310102F10102FE2A51D2B1F115
:10B5A000004F40EBC25008BF20F0010040EA03000A
:10B5B0007047490040EB0000013A28BFB0F5000F8A
:10B5C000EDD2B0FA80FCACF1080CB2EB0C0200FA40
:10B5D0000CF0AABF00EBC25052421843BCBFD0408F
:10B5E0001843704792F0000F81F4000106BF80F409
:10B5F00000000132013BB5E74FEA41037FEA226CCC
:10B6000018BF7FEA236C21D092EA030F04D092F096
:10B61000000F08BF0846704790EA010F1CBF0020CA
:10B62000704712F07F4F04D1400028BF40F0004027
:10B63000704712F100723CBF00F50000704700F047
:10B64000004343F0FE4040F4000070477FEA22626E
:10B6500016BF08467FEA23630146420206BF5FEA3F
:10B66000412390EA010F40F4800070474FF000033F
:10B6700004E000BF10F0004348BF40425FEA000C06
:10B6800008BF704743F0964301464FF000001CE0AE
:10B6900050EA010208BF70474FF000030AE000BF04
:10B6A00050EA010208BF704711F0004302D5404242
:10B6B00061EB41015FEA010C02BF844601460020B4
:10B6C00043F0B64308BFA3F18053A3F50003BCFACF
:10B6D0008CF2083AA3EBC25310DB01FA02FC63447C
:10B6E00000FA02FCC2F12002BCF1004F20FA02F283
:10B6F00043EB020008BF20F00100704702F1200276
:10B7000001FA02FCC2F1200250EA4C0021FA02F2D6
:10B7100043EB020008BF20EADC707047002310B53D
:10B7200004468360818119464366C2810822836191
:10B73000C0E90033C0E904335C3000F05FFA0D4B20
:10B74000246263620C4BA3620C4BE3620C4B2363D9
:10B750000C4B9C4206D003F16802944202D0D033D5
:10B760009C4205D104F15800BDE8104000F09ABA9F
:10B7700010BD00BFD9B90000FBB9000033BA00000A
:10B7800059BA000014560020024A0349034800F049
:10B790006BB800BF1C00002015C800002C00002062
:10B7A00041680C4B994210B5044601D001F032F8C3
:10B7B000A168094B994202D0204601F02BF8E168BC
:10B7C000064B994204D02046BDE8104001F022B853
:10B7D00010BD00BF145600207C560020E456002007
:10B7E0000C4B04210C4A0D4810B51A600022FFF7DB
:10B7F00095FF0A4B012209211C4603F16800FFF75F
:10B800008DFF022204F1D0001221BDE81040FFF7A5
:10B8100085BF00BF4C57002089B700001456002098
:10B82000014800F040BA00BF55570020014800F021
:10B830003BBA00BF5557002010B50446FFF7F0FF94
:10B84000236A1BB1BDE81040FFF7F0BF044B236231
:10B85000044B1B68002BF5D1FFF7C2FFF2E700BFD6
:10B86000A1B700004C5700202DE9F8430746884651
:10B8700014460026D4E90195B9F1010905D52468DB
:10B88000002CF7D13046BDE8F883AB89012B07D9EE
:10B89000B5F90E30013303D029463846C047064378
:10B8A0006835E9E70FB407B5064904AB086853F8F3
:10B8B000042B8168019300F083FC03B05DF804EB76
:10B8C00004B0704728000020024B014618688268C7
:10B8D00001F025B828000020036A70B505460E4621
:10B8E00084680BB9FFF7A8FF636EDB0705D4A38953
:10B8F000980502D4A06D00F0D6F9A389190702D5E6
:10B900002369002B35D12146284600F023F980B366
:10B910004FF0FF35636EDA0705D4A3899B0502D487
:10B92000A06D00F0C1F9284670BD002B04DAA269B1
:10B93000934217DB0A2915D023685A1C226019701C
:10B94000A36816F8011F013BA3600029EDD1002B6D
:10B9500011DA22460A21284600F0BEF80130D7D07D
:10B960000A25D7E72246284600F0B6F80130E7D18D
:10B97000CEE7013EE4E723685A1C22600A221A70CF
:10B98000EEE70000024B01461868FFF7A5BF00BFB5
:10B99000280000200EB410B59DB06FF000410024C7
:10B9A0001FAB02900690079104910948094953F88A
:10B9B000042B059102A9006801931B9400F0DAFAA8
:10B9C000029B1C701DB0BDE8104003B0704700BF63
:10B9D000280000200802FFFF10B50C46B1F90E1038
:10B9E00000F036F90028ABBF636DA3891B1823F460
:10B9F0008053ACBF6365A38110BD2DE9F0411F46A4
:10BA00008B8905460C46DB05164605D50223002228
:10BA1000B1F90E1000F00AF9A3893246B4F90E10FC
:10BA2000284623F48053A3813B46BDE8F04100F053
:10BA300021B910B50C46B1F90E1000F0F7F8421C10
:10BA4000B4F90C3015BF606523F4805343F4805380
:10BA5000A38118BFA38110BDB1F90E1000F0D6B8B4
:10BA600030B514469BB005461A46002C05DA8B23E8
:10BA700003604FF0FF301BB030BD4FF402730091F4
:10BA800004916946ADF80C304FF00003199314BFD0
:10BA900004F1FF332346029305934FF6FF73ADF88D
:10BAA0000E301E9B00F066FA431CBCBF8B232B603C
:10BAB000002CE0D0009B00221A70DCE707B5009351
:10BAC00013460A46014603480068FFF7C9FF03B062
:10BAD0005DF804FB28000020F8B50E461446054624
:10BAE00018B1036A0BB9FFF7A7FEA369A360A38986
:10BAF0001A0701D5236943B92146284600F02AF8E0
:10BB000018B14FF0FF373846F8BD2368F6B2226906
:10BB10003746981A6369834205DC2146284600F0BF
:10BB200079FE0028EDD1A368013BA36023685A1C6D
:10BB300022601E70431C62699A4204D0A389DB070D
:10BB4000E1D50A2EDFD12146284600F063FE002809
:10BB5000D9D0D6E738B5284B05460C46186818B139
:10BB6000036A0BB9FFF768FEB4F90C301A0721D449
:10BB7000D80607D409222A6043F040034FF0FF3073
:10BB8000A38130E0590712D5616B41B104F1440340
:10BB9000994202D0284600F095F800236363002202
:10BBA000B4F90C30626023F024032269226043F070
:10BBB0000803A38122693AB99A0501D5180603D56D
:10BBC0002146284600F072FEB4F90C3013F0010251
:10BBD0000AD00022A26062695242A261226942B97F
:10BBE00013F08000C8D138BD990758BF6269A260C0
:10BBF000F4E70020F7E700BF2800002002440346D6
:10BC0000934200D1704703F8011BF9E738B50023D0
:10BC1000054D044608462B60FFF75CFC431C02D12F
:10BC20002B6803B1236038BD5057002038B5044657
:10BC3000064D0846114600222A601A46FFF74EFCC0
:10BC4000431C02D12B6803B1236038BD505700203C
:10BC500038B50446064D0846114600222A601A46A9
:10BC6000FFF740FC431C02D12B6803B1236038BDB1
:10BC70005057002038B50446064D084611460022AC
:10BC80002A601A46FFF734FC431C02D12B6803B12B
:10BC9000236038BD50570020014B1868704700BF23
:10BCA000280000207047704770470A44431E9142A5
:10BCB00000D1704710B511F8014B914203F8014FC4
:10BCC000F9D110BD38B50546002941D051F8043CE2
:10BCD0000C1F002BB8BFE41800F0E0F81D4A1368F1
:10BCE00033B9636014602846BDE8384000F0DCB822
:10BCF000A34208D9206821188B4201BF19685B68EC
:10BD000009182160EDE71A465B680BB1A342FAD926
:10BD100011685018A0420BD12068014450181160DE
:10BD20008342E0D118685B68084453601060DAE72A
:10BD300002D90C232B60D6E7206821188B4202BF62
:10BD400019685B680918636008BF21605460CAE71E
:10BD500038BD00BF5C57002070B50F4E0C4605463D
:10BD6000316811B900F04AFE30602146284600F0E3
:10BD700045FE431C03D14FF0FF34204670BDC41C68
:10BD800024F00304A042F8D0211A284600F036FE21
:10BD90000130F2D1EFE700BF585700202DE9F843FA
:10BDA000CD1C064625F0030508350C2D38BF0C25A3
:10BDB000002D01DBA94204D90C2333600020BDE82B
:10BDC000F883DFF8D48000F069F8D8F800301C461A
:10BDD00044BB29463046FFF7BFFF431C044658D1F9
:10BDE000D8F800402746002F43D1002C4BD02368C1
:10BDF0003946304604EB030900F000FE814542D18C
:10BE0000216830466D1A2946FFF7A6FF01303AD067
:10BE100023682B442360D8F800305A6862BBC8F806
:10BE200000700FE02268521B20D40B2A17D9611929
:10BE3000A342256018BF5960636808BFC8F80010A6
:10BE400062514B60304600F02FF804F10B00231DC7
:10BE500020F00700C21A1CBF1B1AA350AFE762688C
:10BE6000A3420CBFC8F800205A60EBE72346646881
:10BE7000AEE73C467F68B6E71A465B68A342FBD153
:10BE800000235360DEE70C233046336000F00CF8EB
:10BE900094E70560D6E700BF5C5700200148FFF734
:10BEA00002BF00BF545700200148FFF7FDBE00BF8E
:10BEB000545700202DE9F0471F468E6882460C46F5
:10BEC000BE429046334653D8B1F90C0010F4906F3F
:10BED0002BD065692368096905EB4505A3EB0109CA
:10BEE00005EBD5757B1C6D104B442A46AB4284BFD5
:10BEF0001D462A46430527D511465046FFF74EFFFB
:10BF0000064658B34A462169FFF7CFFEA38923F4BA
:10BF1000906343F08003A38126614E4465613B46F4
:10BF2000A5EB090526603E46A5601F463A464146F8
:10BF3000206800F028FDA36800209B1BA3602368F5
:10BF40003B442360BDE8F087504600F075FD06468F
:10BF50000028E1D121695046FFF7B4FE0C234FF0D1
:10BF6000FF30CAF80030A38943F04003A381E9E71A
:10BF70003E46DBE72DE9F04F98468B899DB007469A
:10BF80001B060D46144610D50B6973B94021FFF707
:10BF900005FF2860286130B90C233B604FF0FF306B
:10BFA0001DB0BDE8F08F40236B610023CDF80C80FD
:10BFB0004FF00109DFF8A081099320238DF8293083
:10BFC00030238DF82A3023469A4613F8012B0AB104
:10BFD000252AF9D1BAEB040B0BD05B462246294641
:10BFE0003846FFF767FF013000F0A780099A5A44EE
:10BFF00009929AF80030002B00F09F8000234FF048
:10C00000FF320AF1010A049307938DF853301A9313
:10C01000CDE90523544605224F4814F8011B00F0D2
:10C02000FDFC049AD8B9D00644BF20238DF85330C4
:10C03000110744BF2B238DF853309AF800302A2B78
:10C0400015D0079A544600204FF00A0C214611F8EB
:10C05000013B303B092B4BD9B0B1079214E0A0EB68
:10C060000803A24609FA03F313430493D2E7039BA0
:10C07000191D1B68002B0391BBBF5B4242F00202FB
:10C0800007930793B8BF049223782E2B0AD16378C5
:10C090002A2B32D1039B02341A1D1B6843EAE37337
:10C0A00003920593DFF8C0A003222178504600F0E8
:10C0B000B5FC38B1A0EB0A004022049B0134824059
:10C0C0001343049314F8011B062224488DF828100A
:10C0D00000F0A4FC002836D0214B1BBB039B073388
:10C0E00023F0070308330393099B334409936AE75A
:10C0F0000CFB02320C460120A8E7002301344FF06C
:10C100000A0C19460593204610F8012B303A092AEB
:10C1100003D9002BC6D00591C4E70CFB01210446CE
:10C120000123F0E703AB2A4604A9384600930D4BE0
:10C13000AFF30080421C0646D6D1AB895B063FF5C3
:10C140002DAF09982CE703AB2A4604A93846009383
:10C15000044B00F0BFF9EDE77AD2000084D2000072
:10C1600000000000B5BE000080D200009368013BD3
:10C17000002B10B4936008DA9469A34201DB0A290A
:10C1800003D15DF8044BFFF7A7BC1368581C10607F
:10C19000084619705DF8044B7047F8B506460F461F
:10C1A0001446D518AC4201D1002007E03A4614F8F5
:10C1B000011B3046FFF7DAFF431CF3D1F8BD000046
:10C1C0002DE9F04F0D469DB014469846064618B12D
:10C1D000036A0BB9FFF730FB6B6ED90705D4AB8947
:10C1E0009A0502D4A86DFFF75EFDAB891B0701D548
:10C1F0002B699BB929463046FFF7ACFC70B16B6EDA
:10C20000DC0704D54FF0FF301DB0BDE8F08FAB89DF
:10C210009805F7D4A86DFFF747FDF3E70023CDF8A5
:10C220000C804FF00109DFF8B481099320238DF8C9
:10C23000293030238DF82A3023469A4613F8012BF3
:10C240000AB1252AF9D1BAEB040B0BD05B46224682
:10C2500029463046FFF7A1FF013000F0A780099A78
:10C260005A4409929AF80030002B00F09F80002376
:10C270004FF0FF320AF1010A049307938DF853300F
:10C280001A93CDE9052354460522544814F8011B9E
:10C2900000F0C4FB049AD8B9D10644BF20238DF81E
:10C2A0005330130744BF2B238DF853309AF80030D6
:10C2B0002A2B15D0079A544600204FF00A0C21462D
:10C2C00011F8013B303B092B4BD9B0B1079214E078
:10C2D000A0EB0803A24609FA03F313430493D2E741
:10C2E000039B191D1B68002B0391BBBF5B4242F0EF
:10C2F000020207930793B8BF049223782E2B0AD12A
:10C3000063782A2B32D1039B02341A1D1B6843EA3F
:10C31000E37303920593DFF8D4A0032221785046FB
:10C3200000F07CFB38B1A0EB0A004022049B0134F2
:10C3300082401343049314F8011B062228488DF809
:10C34000281000F06BFB00283FD0264B1BBB039B43
:10C35000073323F0070308330393099B3B440993F6
:10C360006AE70CFB02320C460120A8E700230134E7
:10C370004FF00A0C19460593204610F8012B303A6D
:10C38000092A03D9002BC6D00591C4E70CFB012173
:10C3900004460123F0E703AB2A4604A93046009384
:10C3A000114BAFF300800746781CD6D16B6ED907CE
:10C3B00005D4AB899A0502D4A86DFFF775FCAB894B
:10C3C0005B063FF51FAF09981EE703AB2A4604A999
:10C3D00030460093044B00F07DF8E4E77AD2000089
:10C3E00084D20000000000009BC1000080D2000049
:10C3F0002DE9F047164698468A6807460B690C46B1
:10C40000DDF820909342B8BF1346336091F8432083
:10C410000AB1013333602368990642BF336802339F
:10C420003360256815F0060506D104F1190AE368A2
:10C4300032689B1AAB422BDC94F843302268003BF5
:10C4400018BF0123920630D404F143024146384616
:10C45000C847013023D023681A3454F80A2C03F05B
:10C460000603042B0ABF54F80E5C002533684FF016
:10C47000000608BFED1A54F8123C08BF25EAE5751E
:10C480009342C4BF9B1AED18B5421AD1002008E0B0
:10C490000123524641463846C847013003D14FF088
:10C4A000FF30BDE8F0870135C1E7E1185A1C3020A4
:10C4B0000233224481F8430094F8451082F8431077
:10C4C000C2E70123224641463846C8470130E6D03C
:10C4D0000136D9E72DE9FF470F7E914680460C468D
:10C4E000782F9A460C9E01F1430207D8622F0AD892
:10C4F000002F00F0D280582F00F0B78004F14206E0
:10C5000084F842703AE0A7F16303152BF6D801A135
:10C5100051F823F06DC5000081C50000FDC4000086
:10C52000FDC40000FDC40000FDC4000081C5000082
:10C53000FDC40000FDC40000FDC40000FDC40000F7
:10C5400081C60000ABC5000037C60000FDC4000076
:10C55000FDC40000A3C60000FDC40000ABC5000080
:10C56000FDC40000FDC400003FC6000033681A1D72
:10C570001B68326004F1420684F8423001239DE0DA
:10C5800033682068191D3160060601D51D6803E077
:10C590004506FBD5B3F90050002D03DA2D236D427B
:10C5A00084F8433059480A2310E0216833680806AC
:10C5B00053F8045B02D4490648BFADB26F2F53480D
:10C5C000336059D10823002184F843106668002E97
:10C5D000A66005DB21682E4321F0040121604DD0C7
:10C5E0001646B5FBF3F103FB1157C75D06F8017D55
:10C5F0002F460D46BB42F4D9082B0BD12368DF0729
:10C6000008D5236961689942DEBF302306F8013CF2
:10C6100006F1FF36921B22614B4603AA2146404693
:10C62000CDF800A0FFF7E4FE01304CD14FF0FF3011
:10C6300004B0BDE8F087236843F020032360782727
:10C640003348236884F845701F06316851F8045B4D
:10C6500002D45F0648BFADB23160D90744BF43F092
:10C66000200323601DB11023ADE72848E9E72368C4
:10C6700023F020032360F6E70A23A4E71646BBE76E
:10C6800033682568181D616930602E061B6801D566
:10C69000196002E06806FBD5198000231646236165
:10C6A000BAE7336800211A1D32601E68626830469E
:10C6B00000F0B4F908B1801B606063682361002357
:10C6C00084F84330A8E72369324649464046D047BC
:10C6D0000130ABD023689B0713D4E068039B9842DA
:10C6E000B8BF1846A4E70123324649464046D04722
:10C6F00001309BD00135E36803995B1AAB42F2DC51
:10C70000EBE7002504F11906F5E700BF8BD2000026
:10C710009CD20000B1F90C202DE9F0411607054626
:10C720000C4651D44B68002B02DC0B6C002B49DD0E
:10C73000E66A002E46D0002312F480522F682B6048
:10C7400031D0626DA389590705D56368D21A636B2E
:10C750000BB1236CD21A0023E66A216A2846B0473F
:10C76000421CB4F90C3006D129681D2945D8284A45
:10C77000CA40D60741D50022D904626022692260EE
:10C7800004D5421C01D12B6803B96065616B2F6031
:10C79000C1B104F14403994202D02846FFF792FA4E
:10C7A000002363630EE00123216A2846B047024656
:10C7B000501CC7D12B68002BC4D01D2B01D0162BC9
:10C7C00019D12F6000201DE00F69002FFAD09307C8
:10C7D0000E680F600CBF4B690023A6EB07088B6047
:10C7E000B8F1000FEEDD43463A46216A2846A66AB4
:10C7F000B047002808DCB4F90C3043F040034FF098
:10C80000FF30A381BDE8F0810744A8EB0008E7E70B
:10C810000100402038B50B6905460C4613B90025C8
:10C82000284638BD18B1036A0BB9FFF705F8B4F90B
:10C830000C30002BF3D0626ED00704D4990502D4DB
:10C84000A06DFFF730FA28462146FFF763FF636EBD
:10C850000546DA07E4D4A3899B05E1D4A06DFFF770
:10C8600023FADDE770B50C46B1F90E1096B0154607
:10C8700000291E460ADAA18911F0800113D14FF474
:10C880008062002031602A6016B070BD6A4600F0F8
:10C8900093F80028EFDB019901F47041A1F50053F2
:10C8A00059425941EBE700214022EAE78B8973B5F1
:10C8B0009E0705460C4607D504F147032360236114
:10C8C0000123636102B070BD01AB6A46FFF7CAFF86
:10C8D000009E28463146FFF761FAB4F90C3038B9AA
:10C8E0009A05EFD423F0030343F00203A381E3E7A7
:10C8F00043F080032060A381019BC4E90406002B60
:10C90000E0D0B4F90E10284600F068F80028D9D01D
:10C91000A38923F0030343F00103A381D2E770B599
:10C920000D461446064618B1036A0BB9FEF784FF9C
:10C93000636ED80705D4A389990502D4A06DFFF7CB
:10C94000B2F9A368013B002BA36005DAA269934208
:10C9500012DBEBB20A2B0FD023685A1C22601D7029
:10C96000EDB2636EDA0705D4A3899B0502D4A06DEE
:10C97000FFF79AF9284670BD294622463046FFF750
:10C98000ABF80546EDE7884210B501EB020402D989
:10C990008442234607D8431EA14207D011F8012B39
:10C9A00003F8012FF8E70244824200D110BD13F8CA
:10C9B000011D02F8011DF7E738B50023064D0446B6
:10C9C000084611462B6000F06DF8431C02D12B681D
:10C9D00003B1236038BD00BF5057002038B5002395
:10C9E000054D044608462B60FEF780FD431C02D12E
:10C9F0002B6803B1236038BD5057002038B50023A1
:10CA0000054D044608462B60FCF73EFE431C02D150
:10CA10002B6803B1236038BD50570020C9B20346CC
:10CA2000024410B59342184601D1002003E0047877
:10CA300001338C42F6D110BD2DE9F0410746144672
:10CA40000D4621B91146BDE8F041FFF7A7B92AB953
:10CA50002546FFF737F92846BDE8F08100F01AF8BF
:10CA60008442064602D8B4EB500FF4D8214638462B
:10CA7000FFF794F9804608B94546ECE7B4422246F0
:10CA8000294628BF3246FFF710F929463846FFF7F6
:10CA900019F9F1E751F8043C181F002BBCBF0B58E3
:10CAA000C0187047024B58224FF0FF301A60704791
:10CAB000505700202D256C642E2530336C64000007
:10CAC000256C642E2530336C640000004F70656E59
:10CAD0004C6F6F70205671203A2025732025250A4F
:10CAE0000000000053746172740A0000526573659F
:10CAF00074202D3E20426F6F744C6F616465720D1F
:10CB00000A00000053746F700A0000004144432083
:10CB100063616C696220646F6E6521200D0A0000FC
:10CB200048656C6C6F204C76746F75212121200A4A
:10CB3000000000006F6666736574203D2025642048
:10CB40000D0A00000A70726F636573732070726F54
:10CB5000746F636F6C207375636365737321212138
:10CB60002000000064617461206C656E203D20250A
:10CB7000642C200920646174612074797065203A06
:10CB800020307825303258200A0000007265637624
:10CB9000206461746173203A2000000030782530F1
:10CBA000327820090000000070726F636573732093
:10CBB00070726F746F636F6C206661696C6564215D
:10CBC0002000000073656E642062756620286C6525
:10CBD0006E203D20256429203A200A0073656E648A
:10CBE000206461746173203A2000000030782530A1
:10CBF000327820004653505F5355434345535320EA
:10CC00003D3D206572720000443A5C446576656C77
:10CC10006F705C4C744D6F746F724C69625C4C54F5
:10CC20004D5F48414C5C6C746D5F68616C5F726114
:10CC3000366D345C7372635C647269766572735CC2
:10CC400073797374656D5C756172745C756172740F
:10CC50002E63000011223344567890ABCD000000C3
:10CC6000000000000000240348066B098C0CAB0F89
:10CC7000C812E215F9180C1C1A1F2422282527288F
:10CC80001F2B112EFC30DF33BA368D39573C173F3E
:10CC9000CE417B441D47B449404CC04E34519B5358
:10CCA000F6554358825AB45CD75EEC60F262E96490
:10CCB000D066A7686E6A246CCA6D5F6FE3705572A8
:10CCC000B673057542766C7785788A797D7A5D7B57
:10CCD0002A7CE47C8A7D1E7E9D7E0A7F627FA77F00
:10CCE000D97FF67F008000000100020008001000DC
:10CCF00020000000040000009CCD0000080000009F
:10CD00001CCD0000020000000CCD000000000068F7
:10CD10000000006880000020800000200000006803
:10CD2000000000680000006000010C0800000068BE
:10CD300000000068000000700001090800000068A1
:10CD40000000006800000008000102080000006800
:10CD5000000000685480000000010108000000206D
:10CD6000000000200000006000010C030000002013
:10CD700000000020000000700001090300000020F6
:10CD80000000002000000008000002030000002056
:10CD900078000020548000000000010300000068BB
:10CDA0000000006800010008000000680000006842
:10CDB000000100087800002080000020000000032F
:10CDC000A050002060570020000000039D9F00003D
:10CDD000419B0000359B00004D9B0000599B0000CB
:10CDE000899B0000A19B0000419D0000DD9B00008D
:10CDF0001D9C0000F99B00000D9C0000299E000076
:10CE0000020403040404000000000000000000000D
:10CE10000000000000000000FD00FC00FD0000001C
:10CE20000000000000000000000000000000000002
:10CE3000000000000902000007000C0107020C03BB
:10CE40000000000000000000ADB400000000000081
:10CE500054CE000000010000000000200F00FFFF82
:10CE600000000000FFFF00000100000088CE00006D
:10CE70002CCF0000D0CF000000000000C001000057
:10CE800000000000000000007054002094CE00005C
:10CE9000CCCD000004000000AB0900000000000041
:10CEA000D504000006FFDF000000000000000000C5
:10CEB000B4CE0000010001010000000000000000ED
:10CEC0000000000000000000000000000000000062
:10CED000000000000000FFFFFFFFFFFFDFDFDFDFDC
:10CEE000DFDF000000000000000000000000000084
:10CEF0000000000000000000000000000000000032
:10CF00000CCF00000000000000000000FFDF000068
:10CF100000000000320000003200000000000000AD
:10CF200000000000000000000000000090540020FD
:10CF300038CF0000CCCD000004000000AB09000099
:10CF400000000000D504000007FFDF000000000023
:10CF50000000000058CF00000100010100000000A7
:10CF600000000000000000000000000000000000C1
:10CF700000000000000000000000FFFFFFFFFFFFB7
:10CF8000DFDFDFDFDFDF0000000000000000000067
:10CF90000000000000000000000000000000000091
:10CFA00000000000B0CF0000000000000000000002
:10CFB000FFDF00000000000032000000320000002F
:10CFC0000000000000000000000000000000000061
:10CFD000B0540020DCCF0000CCCD000004000000E5
:10CFE000AB09000000000000D504000008FFDF00CE
:10CFF0000000000000000000FCCF00000100010163
:10D000000000000000000000000000000000000020
:10D010000000000000000000000000000000FFFF12
:10D02000FFFFFFFFDFDFDFDFDFDF000000000000CA
:10D0300000000000000000000000000000000000F0
:10D04000000000000000000054D0000000000000BC
:10D0500000000000FFDF00000000000032000000C0
:10D06000320000000000000000000000000000008E
:10D070000000000000000000102700000000000079
:10D080008813000004FFDF00000000000000000023
:10D0900094D000000000000000000000000000002C
:10D0A0000000000000000000000000000069000017
:10D0B000009600000000FFFFFFFFFFFFDFDFDFDF64
:10D0C000DFDF0000000000000000000000000000A2
:10D0D0000000000000000000000000000000000050
:10D0E000000000000000000000000000020000003E
:10D0F000880000000000000000000000018000180F
:10D1000000000100000FDFDF00FFFF000000000053
:10D110000000000018D100000001090A000000DF33
:10D12000DFFFFF0001000000000000000000000021
:10D13000000000000300001801000000000F04DFE1
:10D140000001FF00C9AF00000000000050D1000046
:10D150000001093F000000DFDFFFFF0015000000B5
:10D1600068D1000000000000008000000000000006
:10D170000080000001000000040000000200000028
:10D180000080000003000000008000000700000095
:10D190000000010306010000000001030701000078
:10D1A0000000010008010000000001050901000065
:10D1B000000001050A01000000000100000300005A
:10D1C000000001030103000000000103020300004E
:10D1D000000001030303000000000103040300003A
:10D1E0000400000006030000040000000703000024
:10D1F0000400000004040000040000000504000016
:10D200000000010300060000000001030106000009
:10D21000B601B701B801B9016601000048038103F6
:10D22000BC03F80335047304B204F104310571053D
:10D23000B205F20533067306B406F4063307720727
:10D24000B007ED072A0865089F08D80810094609A5
:10D250007C09B009E209140A440A720AA00ACC0A3D
:10D26000F60A200B480B6F0B940BB90BDC0B00007C
:10D27000756172745F696E697400232D302B200014
:10D28000686C4C0065666745464700303132333480
:10D290003536373839414243444546003031323320
:10D2A00034353637383961626364656600000000E2
:10D2B0004275696C7420776974682052656E657375
:10D2C000617320416476616E63656420466C6578A5
:10D2D00069626C6520536F66747761726520506176
:10D2E000636B6167652076657273696F6E20362E99
:10D2F000332E3000362E332E30000000000003069F
:04D30000F8B500BFBD
:04D30400F8B500BFB9
:04D308003D81000063
:04D30C001581000087
:020000040100F9
:04A10000FFFFFFFF5F
:04A20000FFFDFFFF60
:04A28000F8F8FFFFEC
:040000030000910D5B
:00000001FF
