:020000040200F8
:1080000060510022B99D00027DA70002B59D0002CB
:10801000B59D0002B59D0002B59D0002B59D000210
:10802000000000000000000000000000B59D0002FC
:10803000B59D000200000000B59D000265DA000257
:1080400095AF000241B00002F1B0000231B1000270
:1080500001D80002E5D8000221BE000221BE0002C4
:1080600001D80002E5D8000221BE000221BE0002B4
:10807000DDCC0002DDCC000235D10002A9D0000227
:10808000C5D1000211D2000255B70002D9B80002D2
:0C809000B1B9000255B7000225B800028B
:10809C0001000000185700220B0A0000785700223C
:1080AC0008080000000000000000000000000000B4
:1080BC0000000000010000000000000000000000B3
:1080CC000000000000000000080000000103000098
:1080DC000803000002030000020900000000101851
:1080EC00000000000000000000000000000008106C
:1080FC00000000000000000000000000000010184C
:10810C00000000000000000000000000000008104B
:10811C000000000000000000000000001040000003
:10812C0054F40002000000000100000000000000F8
:10813C0000000000CC00002201000000B000002272
:10814C000300000021000000737300007273000034
:10815C00000700000C0C0000006060000100000033
:10816C001D0000000A0000000400000001000000D7
:10817C003B0000001400000004000000010000009F
:10818C000000000003000000C8580022000100227B
:10819C0000000000C85800223059002298590022D3
:1081AC0000000000000000000000000000000000C3
:1081BC0000000000000000000000000000000000B3
:1081CC0000000000000000000000000000000000A3
:0C81DC0000000000000000000000000097
:1081E8000348044B834202D0034B03B1184770473E
:1081F8004C0100224C01002200000000064B0749F8
:10820800C91A891048BF0131491003D0044B0BB17A
:1082180001481847704700BF4C0100224C0100225A
:108228000000000010B5064C237843B9FFF7D8FFCB
:10823800044B13B10448AFF300800123237010BD31
:10824800905100220000000028F1C90208B5054B32
:108258001BB105490548AFF30080BDE80840FFF7AA
:10826800CDBF00BF000000009451002228F1C902D0
:1082780099B1F8B5002407460E46321B402AA8BF1C
:10828800402295B239192C4440F201102A46A4B272
:1082980001F0D2F8A642F0D8F8BD7047002300B527
:1082A80083B010490DF1060201A8ADF80430ADF80D
:1082B800063001F0C3F838B1BDF80430B3F5FE6FED
:1082C8000DD0B3F5807F02D003B05DF804FBBDF894
:1082D8000610044800F02AFB03B05DF804FB01F027
:1082E80085F8F1E7B051002210B586B0062821D8EC
:1082F800DFE800F00428364E20202200002301A8E1
:10830800019306F060F89FED517ADDED017AF4EE05
:10831800C77AF1EE10FA43DD4D4A002382ED007A68
:10832800642202AC20464B4905F0C2FE21464A4869
:1083380000F020FB06B010BD062006B0BDE81040D6
:1083480000F0FCBA01F066F80122444910460A70B0
:1083580000F0F4FA424806B0BDE8104000F00ABB4D
:108368009FED401A00233D4AF0EE410AB0EE410A63
:10837800137001F04DF801F04FF80122022037493F
:1083880000F0DCFA384806B0BDE8104000F0F2BA58
:10839800364800F0EFFA06B0BDE8104001F026B804
:1083A8009FED337AF4EEC77AF1EE10FA0CD5284A2D
:1083B800002382ED007A6FF0630202AC20462D495B
:1083C800524205F075FEB1E7BDEEE77A17EE102AC6
:1083D800F5EEC07A1E4BF1EE10FAC3ED007A82EA90
:1083E800E273A3EBE27307EE103AB8EEC77A17D43C
:1083F80077EEC77ADFED206AB6EE007A67EEA67AE6
:1084080077EE877AFDEEE77A17EE903AB3F57A7F42
:108418004FF0010101DB00230A44002A81DACCE78E
:10842800F1EE677AF6EE006A77EEC77A9FED126A88
:10843800B0EE667A07EE867AFDEEC77A17EE903AC6
:10844800B3F57A7FE9DB4FF0FF31E4E70000C8427B
:10845800F4510022E4F10002F0F10002F051002290
:1084680008F200020000000028F2000210F20002E8
:108478000000C8C2D8F1000200007A442DE9F04794
:108488002DED068BC2B000F08FFF00F035FA85485D
:1084980000F042FA844800F0B9FF844800F0D0FFA9
:1084A8000121022000F0C6FF0121002000F0C2FFD8
:1084B8000021012000F0BEFF00F0ACFF9FED7C1A08
:1084C8009FED7B8AF0EE410AB0EE410A00F0A0FF72
:1084D800C82000F097FF40F6C41000F09FFF4FF44B
:1084E800FA7000F08FFF734800F044FA4FF4FA7402
:1084F800F0EE488AB0EE489A08AA07A906A800F044
:108508008FFFDDED066A9DED077ADDED087A022022
:1085180039EE269A78EE878A38EE278A00F072FFBD
:10852800013CE9D19FED647AC9EE077ABDEEE77A9E
:1085380017EE102AF5EEC07A82EAE273A3EBE27333
:1085480006EE903AF1EE10FAF8EEE66A00F18C8148
:1085580037EEE67ADFED596AF6EE007A47EE267ACC
:10856800FDEEE77A17EE903AB3F57A7F02DB012148
:1085780000230A44002A16ACBABF52425049514956
:10858800204605F095FD9FED4C7AC8EE877ABDEE42
:10859800E77A17EE102AF5EEC07A82EAE273A3EBC7
:1085A800E27306EE903AF1EE10FAF8EEE66A00F1A0
:1085B800858137EEE67ADFED416AF6EE007A47EE1E
:1085C800267AFDEEE77A17EE903AB3F57A7F02DB6A
:1085D800012100230A44002A1AADBABF5242384981
:1085E8003849284605F064FD9FED337AC8EE077ACE
:1085F800BDEEE77A17EE102AF5EEC07A82EAE2734A
:10860800A3EBE27306EE903AF1EE10FAF8EEE66AA2
:1086180000F13F8137EEE67ADFED286AF6EE007A60
:1086280047EE267AFDEEE77A17EE903AB3F57A7FB1
:1086380002DB012100230A44002A1EAEB6BF2049EE
:1086480020495242304605F033FD21461E4800F0CD
:1086580091F929461D4800F08DF931461C4800F073
:1086680089F9032000F04AFC0121002000F0E2FE15
:10867800502400F0D9FE013CFBD1164800F07AF9ED
:108688009FED0B8ADFED149A9FED149ADFED148AA3
:108698009FED14AA6E46DFF85880DFF85890124D07
:1086A800124FB8E07982000235890002A5820002E3
:1086B8000000000030F200020000FA4300007A4493
:1086C800D8F10002E4F1000244F2000260F2000274
:1086D8007CF2000298F2000240D64648990DC9374C
:1086E8000AD7233C81F9223EC0F300024728A3B7EA
:1086F800F0510022F4510022DB0FC94000F096FE31
:1087080001EE100AB8EE411A31EE691AF2EE047A57
:1087180021EE091A21EE271AB5EEC01AF1EE10FA69
:1087280006DB5FED0B7AB4EEE71AF1EE10FA14D41B
:1087380021EE0A1AFDEEC17AF8EEE77A31EE671AF1
:10874800B5EEC01AF1EE10FA44BFF7EE007A31EE3A
:10875800271A5FED177A21EE271AD9ED000AB0EE35
:10876800480A60EEA80A00F0D7FB0CAA0BA90AA8D1
:1087780000F00EFD9DED0C1ADDED0B0A9DED0A0AC9
:1087880000F046FE0021084600F054FE012108468C
:1087980000F050FE07FB04F3534AB2EBB30F0FD9B6
:1087A80095E807004FF0000C0CAB03C308201A80B3
:1087B8000CA91022CDF83AC0ADF83EC000F03CFE3E
:1087C8000BAA0AA909A800F02BFE0CA800F02AFEA3
:1087D80005238DF85430099B013433600A9B0193BB
:1087E8000B9B02930C9B039396ED007F8DED107FFE
:1087F80000F01EFE05F0E2FA9FED3C7A07EE900AC3
:1088080067EE877A10A8CDED147A00F0E7F84FF4F8
:10881800617000F0F9FD0DF1160222A90DF11500A5
:1088280000F000F9C0B900F0FFFD98F800A0BAF117
:10883800000F7FF463AFDFED2E0AB0EE481AB0EEFA
:10884800600A00F0E5FD5046012100F0F3FD5146B5
:10885800012000F0EFFD9DE7BDF816209DF81500FA
:1088680022A9FFF741FDDEE7B1EE677A9FED216AA5
:10887800F6EE007A37EE667A47EE067AFDEEE77A8C
:1088880017EE903AB3F57A7FFFF674AE4FF0FF31EA
:108898006EE6B1EE677A9FED176AF6EE007A37EE6C
:1088A800667A47EE067AFDEEE77A17EE903AB3F568
:1088B8007A7FFFF6C1AE4FF0FF31BBE6B1EE677AC3
:1088C8009FED0C6AF6EE007A37EE667A47EE067A86
:1088D800FDEEE77A17EE903AB3F57A7FFFF67BAEB6
:1088E8004FF0FF3175E600BFD0B02B000000B43A5E
:1088F8000000000000007A4408B5002000F0BCF831
:1089080087220021034805F007FD0123014A02F8E8
:10891800013C08BD79520022034B1A7812B108B104
:10892800C3F88400704700BF78520022024B1B78BE
:1089380003B9704700F0C0BA7852002210B50C4C49
:1089480082B023780BB902B010BD00F0E7F90DF141
:10895800060000F0A5FA0028F5D0BDF80610002999
:10896800F1D0D4F88430002BEDD0984702B010BD78
:10897800785200220FB410B5164C82B0237823B970
:1089880002B0BDE8104004B0704705AB8021049ADE
:108998001148019305F020FC0028F1DD2378002B15
:1089A800EED07F280246A8BF7F2206200A4992B24D
:1089B80000F0B4F90DF1020000F072FA0028DFD0DF
:1089C800BDF802100029DBD0D4F88430002BD7D0B2
:1089D8009847D5E778520022F851002210B5104C7C
:1089E80082B0237823B118B1027D531E042B01D91C
:1089F80002B010BD01469200072000F08FF90DF17A
:108A0800060000F04DFA0028F2D0BDF80610002943
:108A1800EED0D4F88430002BEAD09847E8E700BFBE
:108A280078520022FF23F0B583B00D46144607465E
:108A38000F490DF106020DF105008DF8053000F023
:108A48002BF82E462546044670B10A49BDF8062083
:108A58009DF80530A1F8822081F8813030463B70BE
:108A680001312A8005F0AFFC204603B0F0BD00BFFD
:108A7800795200227852002200218446054B862232
:108A880003F5827083F88BC1C3F8001183F88A114B
:108A980005F042BC005300222DE9F04F994C814665
:108AA800B4F80071B4F802C107F58077A7EB0C0E93
:108AB800DEF10003DBB25FFA8EFE5EEA43BE1FFA08
:108AC8008EF0A7B00328029140F2ED8093464FF054
:108AD80000084AF2B952CDF80C900EE00CF1010CE6
:108AE8005FFA8CFCA7EB0C035FFA83FE13F0FC0F14
:108AF8004FF00108704600F0D4805FFA8CF14B1CEF
:108B0800DBB2615CE65C61F3070566F31F259542FD
:108B1800E4D103F101095FFA89F909F10106F6B216
:108B280014F806A0BAF1800FD8D80AF106068642D2
:108B380000F2B4801FFA8EFEB645C0F2AF800DF188
:108B480011006FEA000E8DF81010B64404A98E4487
:108B5800022E1FFA8EFE0EF1010E38BF4FF0010EE5
:108B68004EF001E014F809909BB2CDF800C014F85B
:108B780003C0013300F801CBDBB20FF009C00AF1E2
:108B8800040E4EF001E04FF6FF730AF198006844B6
:108B980030F8840C019611F8016B734003F001065C
:108BA80006EB860C06EB4C3686EA530606F0010304
:108BB80003EB830CC6F34E0603EB4C3C8CEA060C25
:108BC8000CF0010303EB8306CCF34E0C03EB4636A3
:108BD80086EA0C0606F0010303EB830CC6F34E0687
:108BE80003EB4C3C8CEA060C0CF0010303EB830608
:108BF800CCF34E0C03EB463686EA0C0606F001036E
:108C080003EB830CC6F34E0603EB4C3C8CEA060CD4
:108C18000CF0010303EB8306CCF34E0C03EB463652
:108C280086EA0C0606F0010303EB830CC6F34E0636
:108C380003EB4C3373409BB20FF053C8DDE900C619
:108C480098427FF44BAF4B46DDF80C90B8F1000F1B
:108C580001D0A4F802C189F80030524605A902984B
:108C6800ABF800A005F0AFFBB4F80031B4F802117E
:108C780003F580735B1A5A42D2B2DBB253EA42B3AD
:108C88009BB29E4203D87318DBB2A4F8023194F861
:108C98008B31A3B9012027B0BDE8F08FB8F1000FE0
:108CA80001D0A4F802C194F88B311BB9002027B079
:108CB800BDE8F08F144805F0F3F90020F7E71348F2
:108CC80005F0EEF999F80020BBF80010104805F0FF
:108CD80077F9104805F0E4F9BBF800306BB10024CF
:108CE800029B5D1E0C4815F8011F05F069F9013457
:108CF800BBF80030A4B2A342F4D80A2005F072F9F8
:108D0800C8E700BF0053002210F30002ACF20002D3
:108D1800CCF20002F4F2000204F30002802A00D927
:108D280070474AF2B9532DE9F047154682B05FFA09
:108D380082F8DFF868918DF806008DF80780ADF8A5
:108D48000430019BA9F5847607464846C6F80431E5
:108D58000C4605F038FB06F5827205F1030E12FA8F
:108D68008EFE06F2031AAEEB0A0E4FF6FF734EF0B4
:108D780001E0524612F8011F4B4003F0010101EBDC
:108D8800810001EB403181EA530101F0010303EB5B
:108D9800830003EB4033C1F34E01594001F0010356
:108DA80003EB830003EB4033C1F34E01594001F05C
:108DB800010303EB830003EB4033C1F34E01594039
:108DC80001F0010303EB830003EB4033C1F34E01D1
:108DD800594001F0010303EB830003EB4033C1F377
:108DE8004E01594001F0010303EB830003EB4033CC
:108DF800C1F34E01594001F0010303EB830003EB7B
:108E08004033C1F34E014B409BB20FF04DC829F8D7
:108E1800053008F1060196F88B31C9B286F88A1137
:108E280013B902B0BDE8F087174805F0C9F896F8FD
:108E38008A314FF0000863B11AF8011F134805F092
:108E4800BFF808F1010896F88A311FFA88F84345F7
:108E5800F2D80A2005F0C6F83A4629460C4805F02B
:108E6800AFF80C4805F01CF93DB1254414F8011B76
:108E7800094805F0A5F8A542F8D10A2002B0BDE8D6
:108E8800F04705F0AFB800BF2CF3000254F300021E
:108E9800CCF2000244F3000204F30002085400225A
:108EA800034630B1034890F88A2100F582701A8091
:108EB800704770470053002210B50F4CB4F80031CA
:108EC800B4F80221D21AFF32D2F1000C5FFA8CFCFE
:108ED800D2B252EA4CB292B291420BD841B141F0AF
:108EE80001E010F8011B5A1CE154D3B20FF007C877
:108EF800A4F8003110BD00BF00530022002204284E
:108F080028BF1046034BC3E90022C3E902221870A8
:108F1800704700BF8C54002210B52DED088B9FEDD3
:108F2800928AB4EEC80AF1EE10FAF0EE418A07D43C
:108F38009FED8E8AB4EEC80AF1EE10FA38FE008A68
:108F48009FED899AF4EEC90AF1EE10FA07D49FED65
:108F5800879AF4EEC90AF1EE10FA39FE209AF5EE76
:108F6800C08AF1EE10FA06DBDFED817AF4EEE78ACB
:108F7800F1EE10FA16D4DFED7F7A68EEA78AFDEEDF
:108F8800E87AF8EEE77A78EEE78AF5EEC08AF1EE4D
:108F980010FA44BFF7EE007A78EEA78ADFED747A0C
:108FA80068EEA78AB0EE680A00F044F9F0EE407A5D
:108FB800B0EE680AF0EE678A00F0FAF868EE280A60
:108FC80069EE007A69EE288A28EE000A70EEE70A50
:108FD80030EE280A00F082F9DFED677A60EE277A32
:108FE800FCEEE77A17EE903A28EE088A29EE099AFD
:108FF8000133DCB2DFED61AA38EE098A07EE904A48
:109008009FED5FAAF8EEE78AB4EEEA8AF0EE409A9E
:10901800F1EE10FA28EE8A0A30EE690A4BD918EEFA
:10902800102AF6EE007A574B68EE277AA3EB620314
:1090380007EE103A67EE877AB7EE089A67EE877AF6
:10904800F7EE00AA39EE679A29EE079A00F0B0F811
:1090580078EEEA8A9FED4CBA68EE8A8A29EE089A79
:1090680020EE0B8A39EEE80A00F0A2F820EE0B0A8F
:1090780028EE098A20EE090A78EE007AF4EEEA7AF8
:10908800F1EE10FA05DD8AEEA77A28EE078A20EEBF
:10909800070AF7EE007A77EEC87AB6EE007A77EE2E
:1090A800C07A631E67EE877A052B56D8DFE803F08F
:1090B8002C353E454C1A00F07BF8F7EE007A78EE36
:1090C800E78A9FED319A68EE8A8A20EE098A39EE9E
:1090D800E80A00F06DF820EE090A28EE2A8A20EE48
:1090E8002A0AD6E738EE000A38EE277AF0EE676AE1
:1090F80070EE277ABDEC088B244BC3ED017AC3EDE3
:10910800026A83ED037A10BD38EE008A70EE276A92
:10911800B0EE677A78EE277AECE738EE000AB0EE20
:10912800677A70EE276A78EE277AE3E738EE008AE6
:1091380030EE277A78EE276ADCE738EE000A78EE18
:10914800276A30EE277AD5E738EE008AF0EE676AAC
:1091580038EE277A70EE277ACCE79FED087AF0EEA2
:10916800476AF0EE477AC5E73ACD93BF3ACD933FC9
:10917800DB0FC94081F9223E4676743F00000000AB
:10918800920A863FDF59375FD7B35D3F8C54002280
:1091980050B149B142B1054BD3F804C0C0F800C082
:1091A80098680860DB681360704700BF8C54002221
:1091B800DFED1E7A20EE270AFCEEC07A17EE903A11
:1091C80013F4404FD9B24FEA1320C3F307220FD14B
:1091D800174B501C33F8122033F810309B1A01FB40
:1091E80003F302EB232300EE103ABAEEE80A7047C5
:1091F80010F0800F0E4808D1C2F17F03C2F1800C35
:1092080030F81C2030F81330E8E7BF2A95BFA2F1E8
:109218007F03C2F1FF03A2F1800CC2F5807C30F815
:109228001C2030F8133052425B42D7E783F92246BC
:10923800D0F300029FED257ADFED257A30EE070A9C
:10924800B4EEE70AF1EE10FAC8BF30EE670ADFEDB8
:10925800217A20EE270AFCEEC07A17EE903A13F432
:10926800404FD9B24FEA1320C3F307220FD11A4B4C
:10927800501C33F8122033F810309B1A01FB03F30B
:1092880002EB232300EE103ABAEEE80A704710F01A
:10929800800F114808D1C2F17F03C2F1800C30F869
:1092A8001C2030F81330E8E7BF2A95BFA2F17F03EE
:1092B800C2F1FF03A2F1800CC2F5807C30F81C20BB
:1092C80030F8133052425B42D7E700BFDA0FC93F8C
:1092D800DB0FC94083F92246D0F30002B5EEC00A7D
:1092E800F1EE10FAF5EEC00AB0EE406AB8BFB1EE82
:1092F800406AF1EE10FAF0EE606AB8BFF1EE606A0B
:10930800F4EEC66AF1EE10FA9FED204A76FE865A10
:1093180075EE845A58BFF0EE466A86EEA56ADFED10
:109328001C7A66EE066ADFED1B4A66EEA77A77EED0
:10933800A47A9FED195A67EEA67A77EEC57A67EE9A
:10934800A67A67EE867AB0EE407AF5EEC00A37EE76
:10935800860A44BFDFED117A37EEC00AF1EE10FA43
:10936800B5EEC07A44BFDFED0E7A37EEC00AF1EEF3
:1093780010FA48BFB1EE400AB5EEC00AF1EE10FA95
:1093880044BFDFED087A30EE270A7047FFE6DB2E90
:1093980016733EBD4423233E2CBEA73EDB0FC93FB8
:1093A800DB0F4940DB0FC94008B50E4B0E4AD3F816
:1093B800FC1F914203D10022C3F8FC2F62B604F0CF
:1093C80063FB04F041FB04F0ABFB00F095F900F0FF
:1093D800E9FB00F001FC00F00BFBBDE8084000F0E1
:1093E800A5B800BF00900E22504D554ABFF34F8FCD
:1093F8004FF0E023024AC3F80C2DBFF34F8FFEE76E
:109408000400FA0504F026BB04F020BB04F0A4BB5A
:1094180000F0FEBB00F076BC00F09EBC00F0C4B8C3
:1094280000F0CCB800F002B900F0F4BA00F0A8BB24
:1094380000F0ACBB00F0B8BB00F07AB900F084B91A
:1094480000F0AAB9817831B9038B70B5012B14D01B
:10945800022B01D070BD704706212E4A2E4801F01C
:1094680069FA08212D4A2C4801F064FABDE87040D9
:1094780007212B4A284801F05DBA2A4C2648224683
:1094880001F058FA02212448621801F053FA042125
:109498002148621801F04EFA227CA4F10C0392BB19
:1094A8001D8B002DD6D01A46598B03F10A000131C5
:1094B80089B2598330F802CF92ED007A07EE90CA4C
:1094C800F8EEE77A77EE877AE2EC017A9442F1D106
:1094D8008D42BFD807EE901AD3ED006AF8EEE77A0E
:1094E80093ED017AD3ED025A012286EEA76AC7EE00
:1094F800276A85EEA77A1A7783ED006AC3ED016AB9
:1095080083ED027A70BD084B1B68002BA2D0BDE822
:1095180070401847B2540022F0560022B45400227A
:10952800B6540022AC540022C054002200B52022B8
:1095380083B00021154804F0EFFE002314491A46B1
:10954800144801F0C1F91449124801F049FA1349C5
:10955800104801F04DFB00210E4801F0E3FC0D48D6
:1095680001A901F0D3F99DF80430002BF7D10321AC
:10957800084801F0B1F90A490A4802F079FC09489B
:1095880002F06EFC03B05DF804FB00BFA05400229B
:109598004D940002F0560022A8FB0002FCFC0002D9
:1095A80020F900026C560022034B1A7F12B91A8B5D
:1095B80002B91883704700BFA054002288B381B352
:1095C8007AB310B4174B1C7F24B39C89D3ED005A8F
:1095D80007EE904ADC8993ED016A07EE104AF8EE2F
:1095E800677AB8EE477ADFED106A77EEE57A37EEFC
:1095F800467A67EEE67A27EE667AC0ED007A77EE6D
:10960800877AF1EE677A81ED007A5DF8044BC2ED56
:10961800007A704700235DF8044B03600B60136009
:1096280070477047A0540022AD01A53A58B1064BC7
:109638009FED067A5B8A07EE903AF8EE677A67EE56
:10964800877AC0ED007A7047A05400227D66BF3C3F
:10965800082A70B58C4614462BD9402A35D8551F90
:10966800AD100835EDB20F2D28BF0F254FF0000EB5
:109678001C4E755D1C4EAA423060A6F804E0B3602B
:10968800B5712CD206F10C0004F09DFE2A1B013A9C
:1096980092B204F10C0000210132304404F03CFE87
:1096A8000021124B104A19701148BDE8704001F0B2
:1096B80035BE4FF000050C4908608B608A718D80BB
:1096C80061460C4804F07FFEEAE740244FF00005AD
:1096D8000549224608608B608D808C71F0E72A4628
:1096E800EEE700BF58F500023855002200000022BE
:1096F800085800224455002208B50849084801F0D6
:109708008BFE22220021074804F006FE01200022D9
:109718000549064B08701A7008BD00BF20FF0002FB
:1097280008580022C854002200000022EA540022EF
:1097380019B112B1034B1B7803B970470623FFF721
:1097480087BF00BF000000220346E0B1E1B170B559
:109758001446DAB10E4D2A7802F0FF0002B970BD46
:109768000C4E0846326806F10C011A80B279228044
:1097780004F029FE0022B3682A7013F0040F0CBF0E
:109788000220012070BD704708467047104670BD22
:10979800EA540022EC54002208B1014B18607047CB
:1097A800C45400228388B3F5806F12D007D8802B69
:1097B8000BD023D8082B08D0102B06D07047B3F550
:1097C800006F02D0B3F5805FF8D10122174B1A70F1
:1097D8007047174A014692F82130B3B192F8203009
:1097E8009BB15B00023B5B08B0F814C0013332F850
:1097F800020B844509D0013BF9D17047B3F5807F4E
:10980800E3D0B3F5007FD9D1DFE74C22143110B58E
:10981800084804F0D8FD0121074B084A1B6811705D
:1098280013B1BDE81040184710BD00BF000000226A
:10983800C8540022EC540022C4540022EA540022E6
:1098480008B50649064803F03BFE0649064803F0FA
:1098580037FE0022054B9A719A7308BDD4FD0002A9
:109868001857002260FE00027857002204000022E8
:109878002DE9F04F012889B04FD80D4600294CD06A
:109888009846013B072B48D84FF000090446DFF8FB
:109898009CB0002A0BEBC006B788924604AB394649
:1098A8004A46214808BF9A4686F8069003F000F910
:1098B8005BF834000F24434652462946009403F0CF
:1098C800A1FD08BB41F288330293B379ABB90821F3
:1098D800029B5A1E002B02920FDD0391039B5A1E16
:1098E80003923BB1039B00BF0393039B5A1E039251
:1098F800002BF7D1B379002BEAD0029C002CD4BFFF
:109908004FF000094FF0010901223946064803F0DB
:10991800CFF8484609B0BDE8F08F4FF00009484637
:1099280009B0BDE8F08F00BF645600220400002291
:109938000379012B04BF014A937170470400002288
:109948000379012B04BF014A937370470400002276
:109958002DE9F0434FF6FF77224D041E224987B0C8
:1099680005EB041002914FF00303007B04AA02A93F
:1099780014BF4FF0FF360126ADF80C70FFF778FFE3
:1099880068B3DDF81230BDF812205BBA01930023EA
:10999800BDF81410154F4FEA1228D0B224014FEA2F
:1099A800112E5FFA81F901AA0DF1070C12F8011BBB
:1099B8004B406245FB5CF9D1994510D1430143EA1C
:1099C800483343EADE03DB08013604BF5B42C3F3D6
:1099D8001103184625446B6007B0BDE8F0834FF0CB
:1099E800FF30F9E71800002230A0FFFF68F50002F9
:1099F80010B5FFF725FF0824002303480349044A4C
:109A080004600B60136010BD3800002288550022E6
:109A18008455002238B50020FFF79AFF504D0446C0
:109A28002B68002B13DC431C09D04E4A1368C31A59
:109A3800B3F5003F04DD9368013B9360146038BDC3
:109A480013F5003FFADA936801339360F6E70120D3
:109A5800FFF77EFF611C0CD0421C0AD04249434AE2
:109A68000B6823440B601368034413602B68013BA5
:109A78002B602B68002BE2DC3B4A3C4B92ED005AF2
:109A8800D3ED004ADFED3A7AB8EEC55AF8EEE44A6B
:109A98000022F7EE005ADFED373A9FED374AF6EE2F
:109AA800006ABEEE006A25EE275A64EEA74A1346FE
:109AB800B0EE657A07EE903AF8EEE77A77EE857AB7
:109AC80067EEA37A77EE847AF4EEC77AF1EE10FAAD
:109AD80037DB77EEC77AF4EEC77AF1EE10FAF8DAE8
:109AE80077EEE47AF4EEE67AF1EE10FA31DD77EE0D
:109AF800C77AF4EEE67AF1EE10FAF8DCF5EEC07A01
:109B0800F1EE10FAB8BFF1EE677AF4EEE57AF1EE0D
:109B180010FA48BF1A4603F1010348BFF0EE675A2E
:109B2800162BC7D1DFED157A25EE275AFCEEC57A3C
:109B380017EE903A0B49C1E900338A6038BD77EED9
:109B4800877AF5EEC07AF1EE10FAF8D4C8E777EE26
:109B5800877AF4EEC67AF1EE10FAF8D4CEE700BFB1
:109B6800380000221800002288550022845500225F
:109B780000000035185D743F0000000000008048B8
:109B8800014B5868704700BF1800002204494FF481
:109B98008022D1E901300021C0FB0231184670470C
:109BA80018000022704700BF032800D9704770B51D
:109BB80004460D46064E0A1E18BF012236F820102C
:109BC800044806EB840602F073FFB57070BD00BF51
:109BD8003C0000226456002230B50B4987B00B4880
:109BE80002F03EFF094802F017FF40F6C41440F6A1
:109BF800C41340F6C41569460448CDE900450293EC
:109C080002F010FF07B030BD90F900027456002230
:109C1800B5EEC00AF1EE10FA10B586B006DDDFED3C
:109C2800357AB4EEE70AF1EE10FA60D5B5EEC00A5F
:109C3800DFED316AF1EE10FAF7EE007A30FE260A0F
:109C48009FED2E7A77EEC07A67EE877AFCEEE77A98
:109C580017EE904AF5EEC00AF1EE10FA06DDDFEDD8
:109C6800257AF4EEE70AF1EE10FA3ED5F5EEC00AD1
:109C7800DFED216AF1EE10FAF7EE007A70FEA60A1F
:109C88009FED1E7A77EEE07A67EE877AFCEEE77A48
:109C980017EE902AB5EEC01AF1EE10FA06DDDFEDE8
:109CA800157AB4EEE71AF1EE10FA1CD5B5EEC01A23
:109CB800DFED116AF1EE10FAF7EE007A31FE261A9E
:109CC8009FED0E7A77EEC17A67EE877AFCEEE77A37
:109CD80017EE903A69460A48CDE90042029302F02D
:109CE800A1FE06B010BDFA23F4E7FA22D2E7FA245F
:109CF800B0E700BF3333733F0000000000409C45CD
:109D08007456002208B5012240F602010E4802F0FE
:109D1800CFFE00210D4802F067FE01210B4802F03A
:109D280063FE00210A4802F05FFE0121084802F0A4
:109D38005BFE0021074802F057FEBDE808400121FC
:109D4800044802F051BE00BF64560022905600221B
:109D5800B0560022D056002208B5002240F6020173
:109D68000E4802F0A5FE00210D4802F049FE01212F
:109D78000B4802F045FE00210A4802F041FE01218D
:109D8800084802F03DFE0021074802F039FEBDE810
:109D980008400121044802F033BE00BF6456002287
:109DA80090560022B0560022D056002200BE7047BE
:109DB80008B500F039F8FEF761FBFEE7F8B5174F74
:109DC80005463E68A6B17C6806EB460604EB8606A7
:109DD80002E00C34B4420BD0637AAB42F9D1D4E937
:109DE80000020021121A0C3404F096FAB442F3D19E
:109DF800BE6896B1FC6804EB061602E01034A64271
:109E08000BD0637BAB42F9D1D4E90002A168121AE6
:109E1800103404F0D8FAA642F3D1F8BD74F6000263
:109E2800704700BF00000000F8B5644A644B5A61EF
:109E3800BFF34F8FBFF36F8F1B6803F47002B2F547
:109E4800801F00F0928013F4600F7AD05D4A136887
:109E580023F004031360BFF34F8FBFF36F8F4FF4EA
:109E68007002594B564C0020C4F88820A360FFF7B5
:109E7800D7FF002500F0B0F94AF202514FF425420D
:109E8800524B0120A3F8FA1383F8B05AA3F8FA2327
:109E9800FFF7C6FF4E4B83F30A884A4B1A689207AE
:109EA80003D5A268B2F1007F63D00020FFF786FFD8
:109EB80000F098F800F00EFC032000F0C3FC00232B
:109EC8004FF00E0E1C464EF001E0424903F10C0221
:109ED80021F8224001330FF007C8032000F082FC6C
:109EE800032000F0AFFC3C4B03205C609C60DC600E
:109EF8001C6100F077FC0220FFF792FF0120FFF7BA
:109F08005DFFBFF34F8FBFF36F8F2D4BC3F85042E8
:109F1800BFF34F8FBFF36F8F304B314D5B1B002B5F
:109F28004FEAA30606DD002455F8043B01349847A0
:109F3800A642F9DC00F040FCBDE8F840002000F043
:109F4800CBBB204A136843F004031360BFF34F8F61
:109F5800BFF36F8F4FF0E022936843F48033936030
:109F6800BFF34F8FBFF36F8F79E719077FF46EAF99
:109F780069E701211A695869C2F3C302093201FA73
:109F880002F300260027DB0843F007C0AFF3008088
:109F9800E5E802670FF005C0C0F3C303093301FA0F
:109FA80003F34FF00052DB0843F007C0AFF3008023
:109FB800E2E802670FF005C077E700BF01020E0074
:109FC80000ED00E000E001E00080000200E0014058
:109FD80060110022000D4040004020404401010271
:109FE80040010102174B184993F826009A8C51F842
:109FF800203002F00F02A2F1080103291FD8DFE880
:10A0080001F017100902114AA2FB03231B09104A89
:10A01800136070470D4AA2FB03230D4ADB08136047
:10A0280070470A4AA2FB0323094A9B08136070473A
:10A03800064AA2FB0323064A5B0813607047D34015
:10A04800E5E700BF00E0014060510022ABAAAAAAE0
:10A058008C550022704700BF4AF20351F8B5594B9E
:10A06800594AB3F8FA43A3F8FA1353680746D903D1
:10A07800A4B21AD5544B00255A68920329D5002654
:10A08800504A524992F8753092F86D2003F00F0348
:10A0980002F00F0251F82330072A00F28D80DFE822
:10A0A80002F02929298789818385EFF31086012504
:10A0B80085F31088536843F48033536053681E2037
:10A0C800294600F013FB86F310883F4B5A68920329
:10A0D800D5D4EFF31086012181F310885A6842F431
:10A0E80000325A605B681E2000F000FB86F310887F
:10A0F8000226C5E7012101FA02F2B3FBF2F30121BE
:10A10800334AA2FB03239B0C03FA01F000F0EEFA9A
:10A118002C4A92F8753043F0400382F8753092F873
:10A128007530DB09FBD07B7882F86D303B7843F0E3
:10A13800400182F87510234982F8753091F875301E
:10A14800DB09FBD135B9BEB91E4B44F42544A3F84D
:10A15800FA43F8BDEFF31085012181F310881A4BFB
:10A168005A6822F480325A605B681E2000F0BEFAFA
:10A1780085F31088002EE7D0EFF31085012181F3D5
:10A188001088114B5A6822F400325A605B681E200E
:10A1980000F0ACFA85F310880A4B44F42544A3F880
:10A1A800FA43F8BD0322A8E70522A6E70A22A4E796
:10A1B8000622A2E70822A0E71021083A01FA02F2D3
:10A1C8009BE700BF00E001400030204060510022C2
:10A1D80083DE1B43000000004AF203529FEDBE4B92
:10A1E8009FEDBF5B30B5C44BC448C54983B0C54C6F
:10A1F800C3E90801C4499FEDBC6B9FEDBD7B996223
:10A20800A4F8FA23A3EC045F83ED007FFFF7EAFECE
:10A2180009230A2284F8502A84F8A23094F8003CD2
:10A2280023B994F8013C9C0700F04C82B54C94F893
:10A23800003C002B00F03B820022B24B83F8012C3B
:10A2480083F8002C0022AF4B83F8362083F83220A5
:10A2580093F83C201007FBD540F2234400204FF62A
:10A26800021140F25142A94DC3F8C850A3F84E401C
:10A2780083F84A00C3F8AC10A3F84C20BFF34F8F03
:10A28800BFF36F8FA24A516921F400315161C2F8BE
:10A298005002BFF34F8FBFF36F8F9E490A6822F4B5
:10A2A80040520A60BFF34F8FBFF36F8F0120197DB3
:10A2B800944A60F302011975137DD906FCD4954AB6
:10A2C800136843F440531360BFF34F8FBFF36F8F8E
:10A2D800A2F57342536913F4003311D1BFF34F8FC2
:10A2E800BFF36F8FC2F85032BFF34F8FBFF36F8F3A
:10A2F800536943F400335361BFF34F8FBFF36F8F3C
:10A308000023804A82F82A3092F83C309B06FBD51D
:10A318000022814B1A701A781A781A785A68FA2A21
:10A3280004D07E4959605A68FA2AFBD17A4B9A6858
:10A338007D2A04D07A4999609A687D2AFBD1052242
:10A3480042F220216F4B77481862998483F82620BF
:10A35800FFF748FE01211E2000F0C8F96E4A536835
:10A36800C3F30903642B84BF01231370FFF73AFE7C
:10A378004AF201526C4B1A80BFF35F8F01221A72A6
:10A38800BFF35F8F4FF425425E491A8091F8DA30A7
:10A3980043F0400381F8DA3091F8DA30DB09FBD07A
:10A3A800C923032081F8D40081F8DA3091F8DA3033
:10A3B800544A03F0BF0381F8DA3092F8DA30DB0947
:10A3C800FBD10120802482F8300082F8520082F804
:10A3D800530082F83E3082F83E4092F87430494982
:10A3E80043F0400382F8743091F87430DB09FBD0F5
:10A3F80007204A220A23434C81F86C0081F8742014
:10A4080081F8743094F87430DB09FBD14FF00703FE
:10A4180001A8ADF80430FFF71FFE94F87630394AEA
:10A4280043F0400384F8763092F87630DB09FBD0AD
:10A43800CA23032082F86E0082F8763092F87630CC
:10A44800304903F0BF0382F8763091F87630DB09A3
:10A45800FBD191F855302B4A43F0400381F8553031
:10A4680092F85530DB09FBD0CA23022082F8540049
:10A4780082F8553092F85530224903F0BF0382F82C
:10A48800553091F85530DB09FBD191F857301D4A0A
:10A4980043F0400381F8573092F85730DB09FBD07E
:10A4A800C723002082F8560082F8573092F85730B8
:10A4B800144903F0BF0382F8573091F85730DB098D
:10A4C800FBD191F85D300F4A43F0400381F85D30CD
:10A4D8002CE000BFAFF30080006CDC0200127A00B1
:10A4E8000080000000366E010080000000CA9A3B20
:10A4F8000046C3235543DE13605100220084D7175A
:10A508000008AF2F00E0014000389C1C022B01001E
:10A5180000ED00E000E001E000C01340FA00001E7A
:10A528007D0000E1323423320020004092F85D3093
:10A53800DB09FBD0C62082F85C3082F85D0092F817
:10A548005D30634903F0BF0382F85D3091F85D30F8
:10A55800DB09FBD191F878305D4A43F0400381F87C
:10A56800783092F87830DB09FBD0C923022082F8D2
:10A57800700082F8783092F87830554903F0BF03BC
:10A5880082F8783091F87830DB09FBD191F85B30AC
:10A598004F4A43F0400381F85B3092F85B30DB09A7
:10A5A800FBD0C823022082F85A0082F85B3092F868
:10A5B8005B30474903F0BF0382F85B3091F85B30AA
:10A5C800DB09FBD191F8DB30414A43F0400381F8C5
:10A5D800DB3092F8DB30DB09FBD0C523022082F8A0
:10A5E800D50082F8DB3092F8DB30394903F0BF033D
:10A5F80082F8DB3091F8DB30DB09FBD191F8DC30F5
:10A60800334A43F0400381F8DC3092F8DC30DB0950
:10A61800FBD0C52082F8D63082F8DC0092F8DC3016
:10A628002B4903F0BF0382F8DC3091F8DC30DB09FA
:10A63800FBD191F8DE30264A43F0400381F8DE3042
:10A6480092F8DE30DB09FBD0C823082082F8D80056
:10A6580082F8DE3092F8DE301D4903F0BF0382F83D
:10A66800DE3091F8DE30DB09FBD191F8DD30184A95
:10A6780043F0400381F8DD3092F8DD30DB09FBD090
:10A68800C823022082F8D70082F8DD3092F8DD3046
:10A698000F4903F0BF0382F8DD3091F8DD30DB09A4
:10A6A800FBD14FF42543A1F8FA3303B030BD0121A3
:10A6B800C82084F8001C00F019F894F8003C012B1D
:10A6C800FBD1B9E54FF47A70FFF7C4FCBAE500BFD7
:10A6D80000E00140704700BF704700BF00BEFEE7C2
:10A6E800A0F101000028FBD1704700BF1E4B1F4A94
:10A6F8001B6800FB01F1934213D302F1854202F576
:10A70800071203F5742302F6834203F23F23A2FBE8
:10A7180003239B0CA3FB01314FF0FF30E1B1FFF79E
:10A72800DFBF4FF47A7210B4114C4FF0FF30B4FB16
:10A73800F3F3A1FB02C434B9BCFBF3F080B15DF8BC
:10A74800044BFFF7CDBFB1FBF3F1A1FB0212002AC6
:10A75800F5D1084620B1F2E71846002BDFD1704743
:10A768005DF8044B704700BF8C55002200127A0038
:10A7780000CA9A3BF8B5002401260D4B0D4FD3F8BB
:10A788000021D3F82051154006FA04F32B4204D0D7
:10A7980057F82430E0B203B198470134152CF3D1AF
:10A7A800034AC2F81051D2F820312B42FBD1F8BD30
:10A7B80000C00040905500220022172310B407481B
:10A7C800074C30F8021F02F5C65C013209B144F8A3
:10A7D8002C10013BF5D15DF8044B7047760001025F
:10A7E80000600040EFF31081012383F31088124BBF
:10A7F80033F8102092B22AB133F81020013A92B2FD
:10A8080023F8102033F810309BB293B90B4A10B4D8
:10A81800B2F8FA330A4C9BB234F8100043F42543DB
:10A8280023EA0003A2F8FA3381F310885DF8044B99
:10A83800704781F3108870474456002200E00140B9
:10A8480068F6000230B4EFF31081012383F3108817
:10A858000E4A32F810309BB26BB90D4C0D4DB4F85E
:10A86800FA3335F810C09BB243EA0C0343F425438E
:10A878009BB2A4F8FA3332F8103001339BB222F8B5
:10A88800103081F3108830BC704700BF4456002256
:10A8980000E0014068F60002094908B50A68831813
:10A8A800B3F5805F03D807480B60104408BD03F078
:10A8B80081FD0C2203464FF0FF301A6008BD00BF2F
:10A8C800505600226001002284460020CCE906325E
:10A8D800CCF81410704700BF84460B4ADCF80430EB
:10A8E80010B4D2F8084C0B402343C2F8083CDCF8FB
:10A8F8000840D2F8103C2140194300205DF8044B71
:10A90800C2F8101C704700BF00803340084BD3F8D2
:10A91800802C0378013B032B05D9131E18BF012394
:10A9280000200B707047022300200B70704700BF97
:10A9380000803340162992BF054B064B603953F807
:10A948002130002BB4BF252000201380704700BFA2
:10A9580000A0334080A1334003461A78052A3AD82C
:10A96800DFE802F035291C170303052010B41A6923
:10A978001A49526992F8902002F00704C2F30212B1
:10A98800C1F88042C1F88C2218705DF8044B002091
:10A99800704702224FF440701A70704704210F4A22
:10A9A8001970D2F88C124907D7D007234FF480606A
:10A9B800C2F88C3270470321084A1970D2F8801205
:10A9C8004807CAD007230420C2F880327047012202
:10A9D80003201A7070470020704700BF0080334082
:10A9E8002DE9F04100230546D1E903022B704E6999
:10A9F800C5E90410C5E90632EFF31087012181F398
:10AA08001088744CE36823F40013E360E3681E20A5
:10AA1800FFF76CFE87F31088317F01F003010129ED
:10AA280000F0C8800023316A6B4AD1601360536814
:10AA3800002BFCD10120F1699160674910604A68D8
:10AA4800012AFCD196F82420706A12F00C0F0864D1
:10AA580005D102F00302012A0CBF0F23072396F841
:10AA6800252012F00C0F07D102F00302012A14BFAF
:10AA780043F4E06343F470634FF0080E4EF001E0D6
:10AA8800554A71695364D6F89C30C2F8603296F81A
:10AA9800903003F00700C3F30213C2F88002C2F833
:10AAA8008C32D6F89430C2F88832D6F89830C2F88A
:10AAB8009432B369C2F84013C2F84433716E474BFD
:10AAC800C2F86412B16EC2F8B01206F19C0252F8D4
:10AAD800041F043343F8041C116AD961516C1964CA
:10AAE8000FF00BC8002240F2FF171C214FF0010E97
:10AAF8002B69D6F8E0005B69DC6E374B04EB010C80
:10AB0800C3F8A003308FC3F80024C3F80424C3F8A3
:10AB18000824C3F80C24728FC3F8C004C3F8C424F3
:10AB2800F26B2F48C3F8C824326CC3F8CC24726C7B
:10AB3800C3F8D024B26CC3F8D424F26C294EC3F8FD
:10AB4800D824C3F8F07C284F1CF9013B0134002BB2
:10AB580022DB14F8012C00EB03081201D2B288F8AA
:10AB6800002303F5C65247F8235056F8228028F4EC
:10AB7800803846F8228056F82220BFF35F8F5A09A2
:10AB8800920003F01F0302F160420EFA03F302F58C
:10AB98006142C2F8803113600139D5D103224FF4E4
:10ABA80040340D4B11499C6200201A625A62696256
:10ABB800BDE8F081EFF3108781F31088236923F053
:10ABC8000043236123691E20FFF790FD87F3108857
:10ABD80028E700BF003020400080334060833340C6
:10ABE80000E100E000600040E8550022484344418D
:10ABF8002DE9F04F4FF0210E002282464EF001E081
:10AC08008B4601699A4B496987B0027043F8102B4B
:10AC18000FF005C04FF0080E4EF001E0C86A954BE2
:10AC28000A6BD8641A65486B0A6D5865C3F8C02169
:10AC3800D1E91502C3F8C401C3F8C821D1E9170244
:10AC4800C3F8CC018C48C3F8D021401A01F16C0339
:10AC5800C21853F8041F11600FF007C00023CAE997
:10AC680001339BF80020002A00F0FE809946184620
:10AC78005346CA461A46814EDFF810820127DBF890
:10AC8800043053F829502978D5E9013495F804C0DF
:10AC980023F07F4323F0FF038F400CFA01FCBFB27F
:10ACA80023434AEA0C0A40EA070040F0B58093685B
:10ACB8003B4393600B016F7903F1804303F54E1317
:10ACC800C3F8C070AF79C3E931746D4F2B690024A4
:10ACD80047F82130EB78002B72D0CDE90102694F9B
:10ACE8000AE0652A03D10121624AC2F82013E978F3
:10ACF8000134E2B2914261D9AA6952F8240002787B
:10AD08004168120102F1804202F54E12C2F80016A3
:10AD18008168C2F80416C168C2F808160169C2F849
:10AD28000C164268C2F30622642ADAD13278D209B4
:10AD3800DDD1EFF310820121039281F31088D8F856
:10AD48000C0020F48000C8F80C00D8F80C001E2075
:10AD5800FFF7CCFC039A82F3108897F8DC2A0121CC
:10AD680013074FF01E00C2F3C00C18D44AF2205249
:10AD78004FF4254EA7F8FA2397F8E02A6CF300025F
:10AD880087F8E02A97F8DC2A42F0080287F8DC2ADC
:10AD980097F8E02A0A4387F8E02AA7F8FAE3327816
:10ADA800013442F080023270FFF7A0FC327842F0A2
:10ADB80010023270E978E2B291429DD8DDE90102D1
:10ADC8009BF8003009F101095FFA89F18B423FF6DF
:10ADD80055AF114652468A4609694F6997F82210BD
:10ADE800CC43C1F3400181F001018DF8151004F046
:10ADF80001018DF8141013B1DAF8041081B9012398
:10AE08001C49CAF80C30886400201F4CCA65CAF86F
:10AE1800204007B0BDE8F08F53683B43536049E7D3
:10AE28000024A446B7F820809B00043B9B08C8F385
:10AE38000A08DBF804E001334E374FEA48085EF8A9
:10AE4800041037F8026F497808EB06056944097D54
:10AE580001B9351DAC4538BFAC46013B04F10404CB
:10AE6800EDD10CF10103CBE701231046C8E700BF81
:10AE78000086334000803340D48133400050234063
:10AE88000082334000E00140484344410030204004
:10AE98002DE9F04391B09DF86050EFF30384204E04
:10AEA800103C64B256F8246077699FB3CDE9042357
:10AEB800F369D6F818900193FF238DF80200ADF8D6
:10AEC8001810ADF800508DF80830B9F1000F25D0F2
:10AED800CC46C846BCE80F00EE4608AD0FC59CE856
:10AEE8000F0085E80F00BEE80F00A8E80F009EE8F5
:10AEF8000F008CE80F004846B847B36953B19C4629
:10AF08000DF1200EBEE80F00ACE80F009EE80F0020
:10AF18008CE80F00204611B0BDE8F083E946EAE767
:10AF2800E85500220023164AC16810B50370C2F81C
:10AF3800083C29B141F001E0D2F8803C0FF005C08F
:10AF48000F4AD2F8803C3BB140F20113C2F8603C92
:10AF5800D2F8803C002BFBD10323094C09490A4A4B
:10AF6800C4F88C3CC4F8B43CC4F8B81CC4F8C42C6D
:10AF7800FFF7F2FC03460020C4F8003C10BD00BFF8
:10AF880000803340FFFF7F00730377002DE9F04313
:10AF9800264B83B0D3F8881CD3F8A05C11F0010FBE
:10AFA80014BF0727032715F001053DD0D3F8A45C8B
:10AFB800D3F8B03C07279946EFF303831C4A103BAC
:10AFC8005CB252F824804046FFF7C6FC032F0646C1
:10AFD80025D00623002688F800304FF0FF0C2A46BB
:10AFE8004B4638460021CDF800C0FFF751FF01203D
:10AFF8000E4A1049C2F89C0C04F5C65351F8234078
:10B0080024F4803441F8234051F82330D2F8803CAE
:10B01800002BFBD1C2F8006C03B0BDE8F08398F8B0
:10B028000030042BE3D9D8E7A946C5E700803340B0
:10B03800E8550022006000402DE9F043274B83B01B
:10B04800D3F8881CD3F8A02C11F0020F14BF4FF0CE
:10B0580007084FF00308C2F3400592073BD5D3F821
:10B06800A45CD3F8B03C4FF007089946EFF303838C
:10B078001B4A103B5CB252F824703846FFF76CFC50
:10B08800B8F1030F064622D0062300263B70FF279F
:10B098002A464B46404600210097FFF7F9FE02205A
:10B0A8000E4A1049C2F89C0C04F5C65351F82340C7
:10B0B80024F4803441F8234051F82330D2F8803CFE
:10B0C800002BFBD1C2F8006C03B0BDE8F0833B78DD
:10B0D800042BE4D9DBE7A946C8E700BF008033406A
:10B0E800E85500220060004010B5FF2482B000221D
:10B0F8000023012100940020FFF7CAFE0121084A1D
:10B10800084B00F5C650C2F8541D53F8202022F40D
:10B11800803243F8202053F8203002B010BD00BF21
:10B12800008033400060004010B5FF2482B0002248
:10B138000023022100940020FFF7AAFE0221084AFA
:10B14800084B00F5C650C2F8541D53F8202022F4CD
:10B15800803243F8202053F8203002B010BD00BFE1
:10B1680000803340006000401F2910B53FD84C24B0
:10B1780001F0070E04FB0EFECB080EEB832E0EF536
:10B18800126E8644DEF80030C3F380745471DEF822
:10B19800084004F00704946023F06044DB0F137147
:10B1A800DEF8043014601A4C1B0FE45C0EF10C033B
:10B1B800947164B10C34A644AEEB030E4EF001E07A
:10B1C8000B3213F801CB02F801CF0FF007C01F298B
:10B1D80004D801238B40DB43436310BD27294FF07C
:10B1E800FF030FD900EB810141F8443C10BD4FF03B
:10B1F8004C0E0EFB010E27298CBFAEF5C56EAEF5C1
:10B208008C6EBFE700EB810040F8343C10BD00BFF6
:10B21800A8F8000270B5456904460E4698B0A5B175
:10B2280060222946684603F0CEF860223146284657
:10B2380003F0C9F8284623699847606918B1602265
:10B24800694603F0C0F818B070BD0D46F2E700BFBC
:10B2580010B40C06026801F00F0C34D4546863076C
:10B2680023D4E30702D4BCF1050F20D0536823F0A0
:10B27800070343EA0C035360936803F007039C45F4
:10B28800FAD1A4070AD0CB0708D44368516D1B69CB
:10B29800DB699B6903F001030B43536553685DF851
:10B2A800044B03F0070303737047CB07D9D45368E3
:10B2B80023F0070343F001035360936803F0070387
:10B2C800012BFAD1D2E7946914F0010401D1CB071C
:10B2D80016D4936923F0070343EA0C039361D369F7
:10B2E80003F007039C45FAD1002CD7D0C907D5D461
:10B2F80043681B69DB69D3E90213D1631364CDE7A3
:10B30800D36B23F00103D363136C23F0010313649D
:10B31800536D23F001035365DBE700BF2DE9F041CE
:10B32800137955791468DB0743EA8573272905687B
:10B3380043EA04033ED86C1894F87440240765D493
:10B348004C2404FB0154C4F804369679082E61D9BC
:10B35800182E95BFB708370906370B374C2301FB62
:10B3680003F3946805EB030804F0070E3F0703F5A1
:10B37800C263C8F808760C4602F10C0CC8F80CE653
:10B388002B4486B10C3602EB060EAEEB0C0E4EF0DB
:10B3980001E0013B1CF8012B03F8012F0FF007C057
:10B3A800272905682BD80123254485F8703000200B
:10B3B800BDE8F0814C26A1F1280406FB0456C6F826
:10B3C800B8359679082E1FD9182E95BFB7083709B2
:10B3D80006370B374FF04C0893683F0703F0070E0A
:10B3E80004FB08F305EB030803F2C453C8F8BC7563
:10B3F80002F10C0CC8F8C0E52B44002EC2D1FF2383
:10B4080005EB8405EB65D2E73746E3E74EF66320A4
:10B41800BDE8F0813746A1E700222DE9F04F0F681B
:10B428008B6807F50035D1F810A083B005F5E075F5
:10B438000361CB686D030C468346C0E90051C0E93F
:10B448000523DAF81C60EFF31088012181F31088D6
:10B45800B64BC7F11B009A6801FA00F022EA000215
:10B468009A609B681E20FFF741F988F31088EB6902
:10B478001B07FCD481215846FFF7EAFE7368012FA9
:10B488006B6100F035814FF48013EB620022D6E93E
:10B4980002C3D6F810E0C5F8B020C5F830E0C5F80A
:10B4A8003CC02B6496F815C0A14BA2499A654FEA97
:10B4B8000C13A148DBB281F81633D0F8583362F385
:10B4C8001043C0F85833D0F85833BFF35F8F4FF4A8
:10B4D8008003C1F880310B60B369326823F001033F
:10B4E800AA616B65002F00F0088110264FF480795F
:10B4F80046F001E0914B07F0010843F827B0CDF87A
:10B5080004A0DAF80070C5F82890C6F1220C05EB03
:10B518000C1C97E80F00C5F828908CE80F00C6F1BE
:10B52800100A05EB0A1ADAF82831013E68F3C71346
:10B538001037CAF828310FF019C0DDF804A001212E
:10B548005846AE62FFF784FEDAF81470D4F804C0E7
:10B558007968DCF80030FF29084628BFFF205A1E0A
:10B568003B680139013BDBB243EA0123DCF80410F4
:10B57800C2F30902013942EA4142DCE902E10EF173
:10B58800FF3C013942EA4C6242EA81222A60D7E94B
:10B598000212013943EA0143013A43EA0263C5F85A
:10B5A80000319AF818305B0243EA004343F48063A1
:10B5B80043F00103C5F80431DAF80830C5F88830DB
:10B5C800DAF8103043F003036B6094F91530002B60
:10B5D80026DB227D03F160411201D2B201F56141FF
:10B5E80081F800235249564A41F823B003F5C65161
:10B5F80052F8210066F3104042F8210052F8212049
:10B60800BFF35F8F01215A09920003F01F0302F173
:10B61800604202F5614201FA03F3C2F88031136017
:10B6280094F91730002B26DB227D03F160411201CB
:10B638003F48D2B201F5614181F80023404A03F541
:10B64800C65140F823B052F8210020F4803042F867
:10B65800210052F82120BFF35F8F01215A0992007F
:10B6680003F01F0302F1604202F5614201FA03F39D
:10B67800C2F88031136094F91630002B26DB227D46
:10B6880003F160401201D2B200F5614080F8002356
:10B6980027482B4903F5C65240F823B051F8220039
:10B6A80020F4803041F8220051F82220BFF35F8F48
:10B6B80001215A09920003F01F0302F1604202F5CA
:10B6C800614201FA03F3C2F88031136058468021C1
:10B6D800FFF7BEFD0021FFF7BBFD4FF00003002080
:10B6E800184AABF80C30CBF8082003B0BDE8F08F4F
:10B6F8004FF48012144BDA62C8E6337D0C4A1B0102
:10B70800DBB2C2F854B081F81533D0F8543367F37C
:10B718001043C0F85433D0F85433BFF35F8F4FF45D
:10B728000013C1F880310B60DFE600BF0030204015
:10B73800E855002200E100E000C000405456002215
:10B748000060004044464352002038402DE9F04153
:10B7580098B0EFF30383103B5CB2152C3FD14FF048
:10B7680000082B4D05F1080755F8046BD6B1602287
:10B778000021684602F0D0FD4FF480533268ADF8DE
:10B788000430136A69464FEA134C1B0403EB0C732D
:10B7980002939B033046C2F8208013D4B369049304
:10B7A800FFF738FDBD42DFD11A4A04F5C65352F8F7
:10B7B800231021F4803142F8231052F8233018B0B6
:10B7C800BDE8F081936E93FAA3F3B3FA83F302EB27
:10B7D80083020393536C23F004035364DEE70E4B98
:10B7E80060220021684653F8245002F095FD4FF47A
:10B7F800807300202A68ADF80430D36869469BB28C
:10B808000293AB69D06028460493FFF703FDCBE7AA
:10B818005456002200600040E85500222DE9F04708
:10B82800294F98B0BA465AF8043BCBB100267403A6
:10B8380004F1804404F56014E56E95FAA5F51DB190
:10B84800B5FA85F5012D15DDE36E43B91F4AD2F827
:10B85800581363F31041C2F85813D2F8583336B965
:10B86800DAF800301BB101260AF1040ADFE718B044
:10B87800BDE8F0874FF001084FF48062236E08FAA4
:10B8880005F805F1200913EA080FCDF80C90ADF87A
:10B89800042011D14946204605AA0096FFF764FC0A
:10B8A800009B694657F8230083690493FFF7B2FCAD
:10B8B800236E13EA080FEDD004EB85056B6C23F0BB
:10B8C80008036B64C0E700BF5456002200C0004064
:10B8D800F0B599B0EFF30384314B103C64B253F8E0
:10B8E8002470D7E90063BA6919681D6996F8A4300D
:10B8F80000910492002B44D0324625E04FF40060BA
:10B9080002F180010B68ADF8040093FAA3F31BB1B0
:10B91800B3FA83F3072B07DD4B6893FAA3F3002BE5
:10B928003CD0B3FA83F320331A4492F8741021F010
:10B93800060182F87410694638460393FFF76AFCDB
:10B9480096F8A430EBB13A6896F8A430D9B2DB0780
:10B95800D4D40B0710D5EB69916D9B6921F01001C8
:10B9680013F4805F0CBF4FF400504FF4006028239D
:10B978009165ADF80400DEE74FF4007002F1840130
:10B98800C0E7084B04F5C65453F8242022F480324B
:10B9980043F8242053F8243019B0F0BD4023C3E7FE
:10B9A800E85500220060004070B598B0EFF30386B8
:10B9B80028224FF480611A4B103E76B253F8264085
:10B9C800D4E900031B6803920093036EADF80410DA
:10B9D800DA0510D4134D282105AAFFF7C5FB009BF3
:10B9E800694655F8230083690493FFF713FC206820
:10B9F800036EDB05EFD5836D23F008038365836D44
:10BA080013F008030AD1084A06F5C65652F826105C
:10BA180063F3104142F8261052F8263018B070BD72
:10BA2800E8550022545600220060004003460901F0
:10BA38009B6841F00101C9B200205977704700BFE7
:10BA48000023826818465377704700BF03460122D7
:10BA58009B6800201A7770474FF4803283680A6029
:10BA68001A8AD86812F4404F48609B684FF000006B
:10BA78009BB2CB600CBF4FF6FF734FF480638B60B3
:10BA8800704700BF0620704703460020D9605A61FE
:10BA9800704700BF30B400240346D0E90120526843
:10BAA800114D117801F5C55145F82140D168047749
:10BAB800A9B14FF0010C92F901100C4D480901F0A1
:10BAC8001F0120300CFA01F145F82010BFF34F8F09
:10BAD800BFF36F8F064992F9012041F822400020F8
:10BAE80030BC1860704700BF0060004000E100E013
:10BAF800E85500222DE9F047D0E9012300255668D2
:10BB080091F80280327891F803C09200778902F1A7
:10BB1800804202F54042C8F3810EC2F88052CCF34D
:10BB280081091D774FEA8E1EC2F880724FEA9C1277
:10BB38005D7792034EEA893ECCF30119CC8942EA3B
:10BB480009220CF0C009B9F1800FA4B218D0B9F1DC
:10BB5800400F15D0B9F1C00F00F0C08042F4005278
:10BB6800002F00F0B380C76842F00102002F00F0F8
:10BB7800C88018F0200800F0C080AA461C271AE0E8
:10BB88008D8904EB0444C8F3001C24F0FC241FFA3C
:10BB980085FA42EA0C32002F5AD0C76842F00102F7
:10BBA800002F58D018F0200F00F08E80B9F1C00F88
:10BBB80014BF1C271027B37896F901C01B01BCF1EC
:10BBC800000FDBB278DB0CF1604808F5614888F8B3
:10BBD80000334D4B0CF5C65843F82C004B4B53F82B
:10BBE800289029F4803943F8289053F82830BFF377
:10BBF8005F8F4FF001084FEA5C139B000CF01F0C9D
:10BC080003F1604303F5614308FA0CFCC3F880C1F3
:10BC1800C3F800C091F803C083680CF0C000C028C6
:10BC28001CD00020844692B21FFA8EFEC3F828C0AA
:10BC3800D862A3F814E01A824868726818608968A4
:10BC480059609C60C3F80CA09A61DF74BDE8F08766
:10BC5800C568002DA6D13846BC46E4E791F80280B5
:10BC680088890CF00C0CBCF1040F80B208BF844624
:10BC7800B1F80E9008F00C0818BFB6F808C01FFA03
:10BC880089F908BF4EF4005EB8F1040F18BF10FB25
:10BC980009F9D1F8048018BF1FFA89F0C3F8208089
:10BCA800D1F8088008BF4EF0200E0CEB0C4C00EBCE
:10BCB8000040C3F82480B6E7DFF854800CF00F0981
:10BCC800C84488F8183084E7102774E7C568BDB100
:10BCD80018F0200811D0BA461C276CE78D8904EBB0
:10BCE800044424F0FC241FFA85FA0FB142F0010243
:10BCF800C768002F7FF456AFB2E7C24610275AE74D
:10BD08002F46BA46A7E700BFE8550022006000406A
:10BD1800FCEC00E010B50446FFF7ECFE0122A36836
:10BD280000201A7710BD00BF2DE9F04100264A68AF
:10BD3800416013780D4603F18073D16803F52073D1
:10BD480052699B010446C0E90231C0E90462EFF37D
:10BD58001088012787F310880B4B1A6822F4800299
:10BD68001A601B681E203946FEF7C0FC88F310884D
:10BD7800064B20461F7029681E74FFF7BBFE044B54
:10BD880030462360BDE8F0810030204000A8004024
:10BD980043414D440346002210B4D3E9014164688D
:10BDA8001046237864899B0003F1804303F54043E0
:10BDB800C3F880220A77C3F880425DF8044B4A77BB
:10BDC800704700BF10B4002483B001910092D0E9FD
:10BDD8000121506802784089920002F1804202F500
:10BDE8004042C2F880420C77C2F880024C77019A30
:10BDF8000AB1019A0A60009A0AB1009A4A600A8A4E
:10BE0800002012F4404F14BFCB608B6001230B77E6
:10BE180003B05DF8044B704710B582B0EFF30383AD
:10BE2800103B0D4A5BB203F5C65152F8210020F4CD
:10BE3800803042F8210052F82120084A01A852F81F
:10BE480023406269E36801929847A368DA680AB1F7
:10BE580001221A7702B010BD00600040E8550022A8
:10BE68008022024B00201A70704700BF001020404B
:10BE7800F8B505460C46EFF31087012686F31088BF
:10BE8800144B9A6822F480429A609B681E203146BF
:10BE9800FEF72CFC87F3108800223346352096469F
:10BEA8000D490E4F03EA010CC2F314065CEA060CB6
:10BEB80005D034F81EC00EF1080627F826C0DB1896
:10BEC800524101380EF1010EECD1054B00202B60D8
:10BED800F8BD00BF00302040FFF0FBCF001020402D
:10BEE800434C450003460020D3E902239360704782
:10BEF80003460020D3E9022353607047034600201D
:10BF0800D3E90223D3607047034670B4D3E9012311
:10BF1800D2690020D2E90115D46845F0004544F003
:10BF2800004441F000415D61D2E904659C611961FA
:10BF38005E629D6270BC70474FF0004100228368CA
:10BF480010461961596199615A629A62704700BF37
:10BF580010B4D0E901231278032A0ED90C46996649
:10BF6800DA6AD20705D44FF4AA01C2685C6619647C
:10BF7800DA6000205DF8044B70474C1E9C66002A6E
:10BF8800EED14908013959659965E9E7032A8368BB
:10BF980008D0042A08BF0322013903EB82030020DA
:10BFA800D96470470422F7E703469A680020D36AE9
:10BFB800C3F300030B71936C0B6070478446002039
:10BFC800CCE90632CCF81410704700BF10B490F8D2
:10BFD80000C0886EBCF1030F12D9002A3DD1019A26
:10BFE80012F0010F4A6B4CD102F01F020F2A8CBFCE
:10BFF80000220122B2B902225DF8044B5A60704750
:10C008000130B2B9019A12F0010F4A6B18BFC2F39E
:10C01800044202F00C02A2F10402B2FA82F25209BE
:10C02800002AE8D00028E6D003225DF8044B5A60C5
:10C038007047904220D8019C496BE40731D401F045
:10C048001F0101F00C01A1F10401B1FA81F14909C4
:10C058008242E9D30029E7D0CDE790420DD8019C70
:10C06800496BE40716D401F01F010F298CBF00218A
:10C0780001210029D8D0BEE7013A5DF8044B1A60C7
:10C088007047C2F304420F2A8CBF00220122002A03
:10C09800B1D0C7E7C1F304410F298CBF00210121AA
:10C0A800D6E7C1F30441CCE72DE9F04FD0E901B65A
:10C0B8004FF0FF384FF00009144685B000920F4644
:10C0C800584602AB02F0030A0A463146CDE9028916
:10C0D800FFF77CFF0399356B04F04002A1B1002AF9
:10C0E8003AD0336CBAF1010F43F4800333641ED0A5
:10C0F80025F4403545EA0145BAF1000F17D1002073
:10C10800356305B0BDE8F08F14F0080F14BF0423A1
:10C118000223A407029813D506EB8303D864186595
:10C1280072B3336C25F4403543F4800333640A0654
:10C13800002025F040751543356305B0BDE8F08F44
:10C14800534406EB8303D864002ACAD1BAF1010F1D
:10C15800EED025F44035D2E7BAF1010F13D025F41B
:10C168004035022C45EA0145C6D101243A465846D5
:10C17800314602AB0094FFF729FF039A1206D7E76E
:10C1880025F44035D4E7022CD1D1EEE730B5D0E91B
:10C198000104626E00781F4D032852EA82928A6079
:10C1A800E06A2C6AAA8C04F00F0502F00F0C1A4BF7
:10C1B80045EA0C0E1EF0080F1B68C0F3C35013D0DD
:10C1C80092B212F0080F18D1012214F0080F02FAE7
:10C1D8000CF21BD0032504F0070405FA04F402FB53
:10C1E80003F3B3FBF4F302E003FA0CF3EB40012290
:10C1F800C3404B6000200A7030BD4FF0030C02F0C2
:10C20800070214F0080F0CFA02F2E3D10124AC4043
:10C21800E5E700BF00E001408C55002230B44368D8
:10C22800024693F91210DB69002911DB01245A4DEB
:10C23800480901F01F0C203004FA0CF445F820409E
:10C24800BFF34F8FBFF36F8F0024544840F821404D
:10C2580093F92810002911DB01244F4D480901F0FA
:10C268001F0C203004FA0CF445F82040BFF34F8F20
:10C27800BFF36F8F0024494840F8214093F92910F3
:10C28800002911DB0124444D480901F01F0C20301E
:10C2980004FA0CF445F82040BFF34F8FBFF36F8FBB
:10C2A80000243E4840F8214093F92A10002911DB68
:10C2B8000124394D480901F01F0C203004FA0CF410
:10C2C80045F82040BFF34F8FBFF36F8F00243348EA
:10C2D80040F8214093F92B10002911DB01242E4D41
:10C2E800480901F01F0C203004FA0CF445F82040EE
:10C2F800BFF34F8FBFF36F8F0024284840F82140C9
:10C3080093F92C10002911DB0124234D480901F071
:10C318001F0C203004FA0CF445F82040BFF34F8F6F
:10C32800BFF36F8F00241D4840F8214093F92D106A
:10C33800002911DB0124184D480901F01F0C203099
:10C3480004FA0CF445F82040BFF34F8FBFF36F8F0A
:10C358000024124840F82140DB6CA3B193F9013066
:10C36800002B10DB01200C4C590903F01F0520316C
:10C37800A84044F82100BFF34F8FBFF36F8F002010
:10C38800064941F823000020D2E9023130BC106090
:10C3980099605863704700BF00E100E0E85500224B
:10C3A8004FF0010C2DE9F04FA24C0B7C85B01C44DA
:10C3B80024020CFA03F3C0E90243C3F30D03B3FAF2
:10C3C80083F300265B0903744B699B4A43618B69BD
:10C3D800416086610F46CE690546C361C2F810CF39
:10C3E800EFF310848CF31088097C944B0A1F052AFC
:10C3F80083BF4FF00042CA40D2436FF000621B690E
:10C4080013408E4A1361136901211E20FEF76EF94D
:10C4180084F31088EB6819070DD0EFF3108101231E
:10C4280083F31088864AE86853889BB223EA00039E
:10C43800538081F3108800214FF42542AC687B6853
:10C448002260E162E163A16497F800A03A7ABAF148
:10C45800030F03F1FF304FEAC25200F0A18240F20D
:10C468008A8042EA0A42E2620021D6E906C04FF019
:10C478000042D6F850B022616261A2616162A16295
:10C48800C4F81CC02062A366636600234FF0FF381F
:10C498004FF0000900932146FA68686802ABCDE9BD
:10C4A8000289FFF793FDDDE90232100640EA0240F7
:10C4B800BAF1030F636540F0030CA365594688BFC2
:10C4C800E36540F0010088BF2366BBF1000F73D01D
:10C4D80000236A68D26992F848E002F130082EFA1F
:10C4E80003F2D2070CD5032B58F8232000F08B80D9
:10C4F800042B00F09480013A04EB8309C9F84C201E
:10C508000133062BEBD14FF0010E3B7CF26C0EFA97
:10C5180003F3C3F30D03002B00F09480002363643E
:10C52800002A00F03482734692F802E092F8038001
:10C538004FEA0E6E4EEA087ED2E90289B8F1000F82
:10C5480000F03282C4F88830C4F88C80C4F8909027
:10C55800537E92F818801B0243EA881392F81A80D7
:10C5680043EA0833636413794EEA034E1369236779
:10C578005369E36770E0E2624FF00042D6E906ECE7
:10C58800D6F850B022616261A2616162A162C4F80A
:10C598001CE0C4F820C0A0666066BAF1000F40F045
:10C5A8000C825B08013B636501204FF0030C594680
:10C5B800A365BBF1000F8BD133786BB173783A78F0
:10C5C8001901022A41EA831100F0F38140F2FC814B
:10C5D8000323194341F48071B378002B3FF478AFFB
:10C5E800F27897F800E01301BEF1020F43EA8213D4
:10C5F80000F0E18140F2ED810322134341EA034355
:10C6080043F0807164E7013A1EF0100FE26500F014
:10C61800BC810423042BD8F810207FF46CAF013AB6
:10C628001EF0200FA2653FF46EAF0523D8F8142042
:10C6380061E700BF20324000003032400030204027
:10C6480000403240002A00F0A28192F802E0D3783C
:10C658004FEA0E6E4EEA037EC4F838E0BBF1000FD5
:10C668000ED1137F92F81BE05B0643EA4E23194371
:10C6780096F8213096F820E05B0743EA4E331943D9
:10C6880096F84830002B14BF4FF4A0034FF4AA03C8
:10C69800BAF1010F236402D10023E36423656163C7
:10C6A80096F85410E36A43EA011396F8551043EAE2
:10C6B8004113E362EB68C4F830C02063E36097F984
:10C6C8001230002B26DB797C03F160400901C9B2E6
:10C6D80000F5614080F80013C048C14940F8235074
:10C6E80003F5C65051F8204024F4803441F8204026
:10C6F80051F82010BFF35F8F01205909890003F01A
:10C708001F0301F1604101F5614100FA03F3C1F82B
:10C7180080310B6096F92830002B27DB96F8221021
:10C7280003F160400901C9B200F5614080F80013C7
:10C73800AA48AB4940F8235003F5C65051F82040A9
:10C7480024F4803441F8204051F82010BFF35F8F63
:10C7580001205909890003F01F0301F1604101F527
:10C76800614100FA03F3C1F880310B6096F9293072
:10C77800002B27DB96F8231003F160400901C9B2AA
:10C7880000F5614080F800139448954940F823501B
:10C7980003F5C65051F8204024F4803441F8204075
:10C7A80051F82010BFF35F8F01205909890003F069
:10C7B8001F0301F1604101F5614100FA03F3C1F87B
:10C7C80080310B6096F92A30002B27DB96F824106D
:10C7D80003F160400901C9B200F5614080F8001317
:10C7E8007E487F4940F8235003F5C65051F8204051
:10C7F80024F4803441F8204051F82010BFF35F8FB3
:10C8080001205909890003F01F0301F1604101F576
:10C81800614100FA03F3C1F880310B6096F92B30BF
:10C82800002B27DB96F8251003F160400901C9B2F7
:10C8380000F5614080F800136848694940F82350C2
:10C8480003F5C65051F8204024F4803441F82040C4
:10C8580051F82010BFF35F8F01205909890003F0B8
:10C868001F0301F1604101F5614100FA03F3C1F8CA
:10C8780080310B6096F92C30002B27DB96F82610B8
:10C8880003F160400901C9B200F5614080F8001366
:10C898005248534940F8235003F5C65051F82040F8
:10C8A80024F4803441F8204051F82010BFF35F8F02
:10C8B80001205909890003F01F0301F1604101F5C6
:10C8C800614100FA03F3C1F880310B6096F92D300D
:10C8D800002B31DA52B392F90130002B26DB1278A3
:10C8E8003E4C03F1604012013D49D2B200F561406F
:10C8F80080F8002303F5C65244F8235051F822006B
:10C9080020F4803041F8220051F82220BFF35F8FD5
:10C9180001215A09920003F01F0302F1604202F557
:10C92800614201FA03F3C2F88031136000202D4BF5
:10C938002B6005B0BDE8F08F96F8271003F1604032
:10C948000901264CC9B200F5614080F8001324495A
:10C9580003F5C65044F8235051F8204024F480349D
:10C9680041F8204051F82010BFF35F8F012059098A
:10C97800890003F01F0301F1604101F5614100FAEC
:10C9880003F3C1F880310B60A4E70523A7E5002372
:10C99800A363C4F88830BBF1000F7FF471AE67E67B
:10C9A800034642F480325EE5B9F1000318BF012363
:10C9B800C8E509230DE609221FE6BAF1010F7FF445
:10C9C80064AD4FF0FF33EEE5002B0CBF06230923BF
:10C9D800FFE5002A0CBF062209220EE6E8550022D0
:10C9E800006000405450470082680129536B02D010
:10C9F80043F4807309B143F0807300205363704798
:10CA080082680129536B02D023F4807309B123F0A3
:10CA1800807300205363704703465A681B690020DF
:10CA280053607047024610B590F814E0043900F1DD
:10CA38000C0C52F8043F51F8044FBEF1020F5C652C
:10CA48009C6509D08469646864682478062C03D0DE
:10CA58006245EED1002010BDCC68DC651C66F7E7A6
:10CA68002DE9F04106460D4607460C4601F10C0833
:10CA780054F8043FD3E90001FFF792FC23681B68D0
:10CA88009B6847F8043F2A78022A03D1196C41F4BD
:10CA9800202119644445EBD16969044B32750020A3
:10CAA8003161B5613360BDE8F08100BF3354504750
:10CAB8000120CBB2984080B202B900040B0A5B0196
:10CAC80003F1804303F5800398600020704700BF9E
:10CAD8002DE9F84F0388DBB14FF0000A80464FF08C
:10CAE8000109DFF8D4B00024314D4FEACA07D8F85D
:10CAF800043035F8022BD919898891420AD00134BB
:10CB0800032CF4D1B8F800300AF1010A5345EAD8E9
:10CB1800BDE8F88FDB5909FA04F603F0B853B3F10E
:10CB2800807F244BF6B293F84C2C12D0324230D18D
:10CB380004F120021BF81230DB09E0D01BF8123098
:10CB4800012123F08003C8200BF81230FDF7CEFD39
:10CB5800D5E7324210D004F120021BF81230DB096D
:10CB6800CDD11BF81230012143F08003C8200BF807
:10CB78001230FDF7BBFDC2E70120FDF763FE0D4B48
:10CB8800012093F84C2C324383F84C2CFDF72AFEF5
:10CB9800E1E70120FDF756FE064B012093F84C2CE7
:10CBA80022EA060283F84C2CFDF71CFEC0E700BF02
:10CBB80018F9000200E0014000202040F8B50446C2
:10CBC800FFF786FFEFF31082012383F31088254EC9
:10CBD80033681BB9402024490B7508753368013345
:10CBE800336082F31088218849B3C9000839C9081D
:10CBF80060681E4D013107E01B011344013945F8F7
:10CC0800234000F108001AD004688288E7034FEA3D
:10CC18001223D2B2F0D502EB031C55F82CE01B010D
:10CC280024F480372EF4803E1344013945F82CE073
:10CC380000F1080045F82C7045F82340E4D1EFF3E3
:10CC48001082012383F31088336813B13368013BE2
:10CC5800336033681BB9802003490B75087582F36C
:10CC68001088F8BDE4550022000D404000084040FF
:10CC780008B5034B03600846FFF7A0FF002008BD76
:10CC880054524F50F0B5446985B005460F466E467C
:10CC9800ECB194E80F008DE80F006A68B7F5803FA3
:10CCA8001268AB69226018BF0022E36008BFEB6816
:10CCB800204608BFDA68A7602B69626098476C69EC
:10CCC8001CB196E80F0084E80F0005B0F0BD6C4673
:10CCD800E3E700BF38B5EFF30383103B114A5BB2BB
:10CCE80003F5C65152F8210020F4803042F82100A3
:10CCF80052F821200C4A52F82350EB681C68E303D1
:10CD08000AD434F4403400D138BD21462846FFF710
:10CD1800B9FFEB681C6138BD4FF480312846FFF736
:10CD2800B1FFEEE700600040E8550022844610B4E9
:10CD3800046AA36823F44013A360A36C5800FCD5CD
:10CD4800A36823F01003A360237FC3F30010DB065E
:10CD5800FAD4A368CCF8102043F01013CCF80C10C8
:10CD6800A3605DF8044B704730B40124164D530995
:10CD780002F01F0C203304FA0CF445F82340BFF3EB
:10CD88004F8FBFF36F8F114B02F5C65C53F82C40E1
:10CD980024F4803443F82C4053F82C300901002A3D
:10CDA800C9B207DB15440A4B85F8001330BC43F8B9
:10CDB80022007047074B02F00F0423441976044BF6
:10CDC80030BC43F82200704700E100E000600040FA
:10CDD800E8550022FCEC00E0F0B5846A85B0054611
:10CDE8000F4694466E46B4B194E80F008DE80F00E4
:10CDF800EB6920461B7884F804C0EA6A2360A760C0
:10CE08006B6AE2609847AC6A1CB196E80F0084E848
:10CE18000F0005B0F0BD6C46EAE700BF00222DE91F
:10CE2800F0410D460B78027003F5800303F5565365
:10CE38001B024969C0E90753AB694162C0E90A238B
:10CE48006B788278B3FA83F35B095B4203F00303E0
:10CE580083F0010363F30102EE69827095F90B20F8
:10CE6800A97AFFF781FF95F905202979FFF77CFF5B
:10CE780095F90720A979FFF777FF95F90920297A0D
:10CE8800FFF772FF0446EFF31087012181F3108842
:10CE98004FF000402A787A4BD0405A6822EA0002C4
:10CEA8005A605B681E20FDF721FC87F310884FF459
:10CEB8008063EA69206A576883606B78E97892F83A
:10CEC80000C01B02890392F801E001F4804103F4D9
:10CED80040730B434FEA0C68517B4FEACE3E08F093
:10CEE80040781FFA8EFE490543EA080301F4001151
:10CEF80043EA0E030B43ACF1020143F480530129CA
:10CF080095F800E0AD78436140F2B2803B68036178
:10CF1800117B01F0030141F0300135B1022D14BF3E
:10CF28004FF440734FF48073194301250027937819
:10CF380005FA0EF51B0703F080530B43C5F30905EB
:10CF4800C36087610DB14F4B4362937BD17B03F084
:10CF5800010301F01F0143EA01230021127C7689B5
:10CF6800494D02F01F0243EA0243E269036321616B
:10CF7800A1612681E1606161856692F90520434BD4
:10CF880002F5C65053F8205061F3104543F820507D
:10CF980053F82000BFF35F8F012002F01F055209EC
:10CFA800920002F1604202F5614200FA05F5C2F80A
:10CFB80080511560E26992F90B2002F5C65553F8C5
:10CFC800256061F3104643F8256053F82550BFF3F8
:10CFD8005F8F02F01F055209920002F1604200FAC9
:10CFE80005F502F56142C2F880511560E26992F9CF
:10CFF800072002F5C65553F8256061F3104643F83B
:10D00800256053F82550BFF35F8F02F01F055209C2
:10D01800920002F1604200FA05F502F56142C2F899
:10D0280080511560E26992F9092002F5C65553F856
:10D03800256061F3104643F8256053F82530BFF3A7
:10D048005F8F53099B0002F01F0203F16043904079
:10D0580003F56143C3F8800118600D4B226A9360A1
:10D06800137FDB07FCD50B4B00206360BDE8F08124
:10D07800BCF1020F01D0084B49E7084B47E700BF56
:10D088000030204000001F1F1000079D0060004076
:10D09800110401004249435304FF00FF24FF00FF2D
:10D0A80030B4EFF30383103B1E4A5BB203F5C6515D
:10D0B80052F8210020F4803042F8210052F8212053
:10D0C800194A52F82300C2690369126912B113B1EF
:10D0D80030BC70477BB9D0E908240021936823F459
:10D0E800801343F400139360C160002CF0D030BC6F
:10D0F8008022FFF771BE8278056A02F00304022CD1
:10D10800C16808D00C782C7102F003029B1A1144F4
:10D11800C0E90313DBE70C8824F4DC44A4B26C6098
:10D12800F2E700BF00600040E855002210B582B069
:10D13800EFF30383103B1F4A5BB203F5C65152F865
:10D14800210020F4803042F8210052F821201A4AA8
:10D1580052F82340A278236A02F0030102290CBF87
:10D1680019681978A3690CBFC1F30801C9B2019104
:10D1780043B9636AB3B10422204602B0BDE8104047
:10D18800FFF72ABE02F0030201A9606901F01BF94A
:10D19800D4E90521A37803F003031A44C91AC4E9A2
:10D1A800052109B102B010BD636A002BFAD0012233
:10D1B800E2E700BF00600040E855002210B5EFF339
:10D1C80003830F4A103B5CB252F82400D0E90821CF
:10D1D800936823F4401323F01003936019B10222DB
:10D1E8000021FFF7F9FD074A04F5C65352F823104A
:10D1F80021F4803142F8231052F8233010BD00BFCB
:10D20800E85500220060004038B5EFF303831F4A59
:10D21800103B5CB252F824008378056A03F00303DC
:10D22800022B0CBF29682978AA6C08BFC1F3080132
:10D23800C2F30073C2F3006C4FEA031343EA4C13C2
:10D24800C2F3C06243EAC20318BFC9B24FFA83FCF3
:10D2580003F03802DB0604D5AB6C1B0458BF4CF056
:10D268004002AB6E43F0C853AB66436A0BB1FFF79D
:10D27800B3FD074A04F5C65352F8231021F4803150
:10D2880042F8231052F8233038BD00BFE855002279
:10D29800006000402DE9F8431D4683689DF820C0D2
:10D2A8001E6E002E40F09780BCF10F0F04460F460B
:10D2B800C0E90312C0E90566C56180F820C04ED8F0
:10D2C800BCF1070F94BF4FF000084FF001086068E9
:10D2D800D0F814C0BCF1000F1BD00220DCF80430D9
:10D2E800A5611968ABB2CB81CB788A6068F3051366
:10D2F800CB708B7860F383038B70002A6FD0DCF8D7
:10D308000830DCF800005B68984700285FD1D4E952
:10D318000103026990F809E0D0F82090002A36D07D
:10D328005168656109681FFA85FCC87868F30510BB
:10D33800C870BEF1000F15D1B9F1000F12D099F8DD
:10D348000D0001280ED1E06901280BD00CF1FF3C3B
:10D35800013D1FFA8CFC6561A1F80EC004E04FF096
:10D368000208B4E7A1F80EC00225C8784F6065F33B
:10D378008300C870002F39D0986820F48010986016
:10D38800936810685B68984708BBD4E901035A6939
:10D3980094F8201022F4F81242EA0142417A59B96D
:10D3A800016A49B1497B012906D1E169012914BF04
:10D3B80042F0800222F0800201215A61D9669A68FF
:10D3C800304642F480120A439A60BDE8F883064664
:10D3D8003046BDE8F88308263046BDE8F883DBB25E
:10D3E80062F383038B70054B8B6088E7C0B267F3E9
:10D3F8008300C87002484860BEE700BF605600223C
:10D408005C56002210B49DF8044001945DF8044B6A
:10D41800FFF740BF42684369517A21B9126A12B1D5
:10D42800527B012A1DD0C1698B420FD08268C16826
:10D43800A9B190F820C0BCF10F0F08D951F82310FA
:10D4480011604FF000510133916643617047BCF1A0
:10D45800070F03D931F813101160F2E7C95C1160A6
:10D46800EFE78268116D8900F0D5C16901F1FF3CD1
:10D478009C45D9D1516921F080015161D7E700BF9E
:10D4880030B5836A85B004468C4601ADABB193E8EC
:10D49800070085E8070062681846117883F804C019
:10D4A800E26A19609A60636A9847A36A1BB195E8B3
:10D4B800070083E8070005B030BD2B46EBE700BF47
:10D4C8002DE9F04F0B78D1F8108003F5800303F5B0
:10D4D80057530C46054683B01F02B8F1000F10D011
:10D4E8004FF00062D8F80410D8F800000B681A60F2
:10D4F8009F60D8F808301B6898470646002840F017
:10D508000B8163696BB14FF4002059680A68106099
:10D5180057609A681868126890470646002840F0D5
:10D52800FF80D4E906120023C5E90A326C606962FB
:10D53800237803F5800303F557531802A86094F87D
:10D5480009C0BCF1000F00F0F8804FF44411627B71
:10D55800E67A236A1203A47A42EA46022243DC7975
:10D5680041EAC4741978002940F0E980BCFA8CF1CA
:10D57800490942EAC112597809B944F40034DE78FD
:10D588009F7844EA0174197AB74047EA0127197964
:10D598003606894629B102290CBF4FF440194FF4C9
:10D5A8000019597929B1012914BF44F4807444F44D
:10D5B8004074597A01F0030146EA810616439A79C4
:10D5C8000192BCF1000F40F0BD805A7B012A00F0A7
:10D5D800F08093F80CB0DA7A4FEA0B4B9B7A4BEA5F
:10D5E800022B46F460464BEA030BEFF3108A4FF028
:10D5F800010888F310886B6871491B784868C3F183
:10D60800130308FA03F320EA03034B604B681E2058
:10D618004146FDF76BF88AF310886A4AAB680199AE
:10D628009A6624F080421F61C3F804B0C3F80C90D6
:10D638005E6119649A606A6899689C6092F9023020
:10D64800002B80F28280604892F90130002B26DBA3
:10D65800527903F1604412015C49D2B204F5614485
:10D6680084F8002303F5C65240F8235051F82240AD
:10D6780024F4803441F8224051F82220BFF35F8F10
:10D6880001215A09920003F01F0302F1604202F5DA
:10D69800614201FA03F3C2F8803113606A68137AB1
:10D6A80092F904201B01002ADBB27CDB02F1604105
:10D6B80001F5614181F80033444B02F5C65140F849
:10D6C800225053F8214024F4803443F8214053F881
:10D6D8002130BFF35F8F012153099B0002F01F0225
:10D6E80003F1604303F5614301FA02F2C3F88021B4
:10D6F8001A606A68D37992F903201B01002ADBB209
:10D708004BDB02F1604101F5614181F800330026ED
:10D718002F4B40F822502B60304603B0BDE8F08F05
:10D72800B8F1000FF8D0D8F80830D8F800001B6A14
:10D738009847304603B0BDE8F08F264907E744F024
:10D74800807418E74FF0000B4FE7927903F16041BE
:10D7580012011D48D2B201F5614181F800231B4A2C
:10D7680003F5C65140F8235052F8214024F4803480
:10D7780042F8214052F82120BFF35F8F5A099200E6
:10D7880003F01F0302F1604208FA03F302F5614255
:10D79800C2F8803113606A6856E70F4902F00F0437
:10D7A80021440B76B3E70C4902F00F0421440B76B1
:10D7B80082E7426C44F4005442F44072426408E741
:10D7C80000302040000080FDE85500220060004045
:10D7D8004950535200103140FCEC00E0436893F983
:10D7E8000330012203F01F0002495B09824041F81F
:10D7F8002320704700E100E030B4EFF30382103AD1
:10D80800334953B203F5C65051F8204002F0FF02E5
:10D8180024F4803441F8204051F820102D4951F863
:10D8280023008168096D890105D54168497A012974
:10D8380001D030BC70470121274C5B0902F01F0260
:10D84800203301FA02F244F82320BFF34F8FBFF3CD
:10D858006F8F436893F90230002B08DA8268012140
:10D86800936823F00103936030BCFFF709BE5A099F
:10D8780003F01F0301FA03F3203244F82230BFF308
:10D888004F8FBFF36F8F8468114BA26822F001029B
:10D89800A260426892F9022002F5C65453F8245057
:10D8A80025F4803543F8245053F82430BFF35F8FB4
:10D8B80053099B0002F01F0203F16043914003F5F6
:10D8C8006143C3F880111960012130BCFFF7D8BD4E
:10D8D80000600040E855002200E100E070B5EFF379
:10D8E8000383354A103B5CB252F82460736893F99D
:10D8F8000230002B1CDAB3689A6822F001029A60A1
:10D908001D6D2E4A9A662A0151D4EB0141D405F0C7
:10D91800A055B5F1A05F45D0294A04F5C65352F881
:10D92800231021F4803142F8231052F8233070BDBF
:10D9380001222448590903F01F03203102FA03F396
:10D9480040F82130BFF34F8FBFF36F8FB0681C4B87
:10D95800816821F001018160716891F9021001F577
:10D96800C65053F8205025F4803543F8205053F81A
:10D978002030BFF35F8F4B099B0001F01F0103F1BB
:10D9880060438A4003F56143C3F880211A60B36895
:10D99800B6E70421304605F0A055FFF771FDB5F153
:10D9A800A05FB9D108213046FFF76AFDB4E7052129
:10D9B8003046FFF765FDA8E7E8550022000080FD26
:10D9C8000060004000E100E038B54468637A256AE9
:10D9D8003BB92DB16B7B012B12D06B78012B05D095
:10D9E80038BD002DFCD06B78012BF9D194F90320B8
:10D9F800084902F01F008340520941F8223038BD1F
:10DA0800C369012BE9D08268136D9B00FCD5FFF731
:10DA180001FDE2E700E100E00148FFF7D5BF00BFE4
:10DA2800785700220148FFF7CFBF00BF18570022E0
:10DA38000148FFF7D3BE00BF785700220148FFF71F
:10DA4800CDBE00BF18570022704700BF0121FCF768
:10DA58004DBE00BF4FF47A71FCF748BE30B4084C95
:10DA6800084DD4E900232D68501C43F10001C4E996
:10DA7800000115B12B4630BC184730BC704700BFB9
:10DA8800305800222458002238B5FCF7CDF918493F
:10DA98001848FFF7EDF8184B184A1B68A2FB031249
:10DAA8009209013AB2F1807F0BD24FF0E0214FF09A
:10DAB800F00C00240720124D4A6185F823C08C61C0
:10DAC8000861104AB7EE007AA2FB03239B0C07EE0D
