:020000040800F2
:10000000E80C0020910200082F3E00084F3D000838
:100010002B3E0008690D0008454A0008000000005A
:100020000000000000000000000000009D3E0008ED
:10003000250E000800000000313E00089F3E000829
:10004000AB020008AB020008AB020008AB020008DC
:10005000AB020008AB020008AB020008AB020008CC
:10006000AB020008AB020008AB0200086D0D0008EF
:10007000AB020008AB020008AB020008AB020008AC
:10008000AB020008AB020008AB020008AB0200089C
:10009000AB020008AB020008AB020008AB0200088C
:1000A000AB020008BD3E0008AB020008AB0200082E
:1000B000AB020008AB020008AB020008AB0200086C
:1000C000AB020008AB020008AB020008AB0200085C
:1000D000AB0200081D4A0008AB020008AB02000892
:1000E000AB020008AB020008AB020008AB0200083C
:1000F000AB020008AB020008AB020008AB0200082C
:10010000AB020008AB020008AB020008AB0200081B
:10011000AB020008AB020008CD3E0008AB020008AD
:10012000AB020008AB020008AB020008AB020008FB
:10013000AB020008AB020008AB020008AB020008EB
:10014000AB020008AB020008AB020008AB020008DB
:10015000AB020008AB020008AB020008AB020008CB
:10016000AB020008AB020008AB020008AB020008BB
:10017000AB020008AB020008AB020008AB020008AB
:10018000AB020008AB020008AB020008AB0200089B
:10019000AB02000800000000AB020008AB02000840
:1001A000AB020008AB020008AB020008AB0200087B
:1001B000AB020008AB020008AB020008AB0200086B
:1001C000AB020008AB020008AB020008AB0200085B
:1001D000AB020008AB02000800F002F800F048F89B
:1001E0000AA090E8000C82448344AAF10107DA4592
:1001F00001D100F03DF8AFF2090EBAE80F0013F09C
:10020000010F18BFFB1A43F001031847849A00003E
:10021000A49A0000103A24BF78C878C1FAD85207CF
:1002200024BF30C830C144BF04680C607047000070
:100230000023002400250026103A28BF78C1FBD8EF
:10024000520728BF30C148BF0B607047642900F0D7
:100250007781732900F00883002070471FB509F0EB
:10026000D2FC9DE8030000F053FA1FBD10B510BD8D
:1002700000F072FB1146FFF7F1FF08F071FE00F08D
:1002800090FB03B4FFF7F2FF03BC05F0C7FB0000CF
:100290000948804709480047FEE7FEE7FEE7FEE71A
:1002A000FEE7FEE7FEE7FEE7FEE7FEE70448054956
:1002B000054A064B70470000A93E0008D901000816
:1002C000E8060020E80C0020E8080020E8080020EC
:1002D000704770B5064600F0FFF9056806F10B009F
:1002E00020F00704B4429CBF002070BD2B466A6812
:1002F000BAB11068A04210D304F1080188423CBF93
:100300005068586007D35168101941601168091B83
:10031000016058601460101D70BD13465268002AB9
:10032000E7D12146284600F0DFF90028DED170BD74
:1003300070B50446051F00F0CFF90068002C14BF0B
:10034000446870BD002C18BFAC423CBF20466468B6
:10035000F8D301680A18AA4218BF456003D12A6879
:1003600005461144016028684119A1421CBF6C6018
:1003700070BD6168696021680844286070BD53EAF7
:10038000020C00F069802DE9F04B4FF00006002BC5
:100390001FBFB3FA83F503FA05F424FA05F65E40AD
:1003A00012BF1643B2FA82F502FA05F4C5F1200530
:1003B0001EBF22FA05FC44EA0C04203556EA044C20
:1003C0004FEA144418BF641C4FF000084FF00009B6
:1003D000904271EB030C39D3002919BFB1FA81F7B0
:1003E00001FA07F6B0FA80F700FA07F6C7F120071E
:1003F0001EBF20FA07FC46EA0C062037B6FBF4FCC9
:10040000A7EB0507103F07F01F0BCBF120060CFAF6
:100410000BFB2CFA06F644BFB3460026202FA4BFE0
:100420005E464FF0000B5BEA060C08BF4FF0010B75
:1004300019EB0B09ABFB027C48EB0608C01B06FB63
:1004400002CC0BFB03CC71EB0C01C1E70B4602465F
:1004500041464846BDE8F08B13B54FF000004FF021
:100460000001AFF30080BDE81C4070470FB40449A1
:1004700010B503AA029800F0FBF910BC5DF814FB5C
:10048000880000202DE9F0410E460446002020623D
:100490002046E168884730B3252805D0D4E90121FA
:1004A0009047206A401CF2E7E16820460027884711
:1004B000050018D0A5F14100192802D820354FF4C5
:1004C00000673246294620462760FFF7BFFE40B14D
:1004D000012804D0F61D26F007060836D8E7361D99
:1004E000D6E72846DAE7206ABDE8F08170B50C4609
:1004F0000546012A05D02878800600D5EA69002340
:1005000002E0012305E05B1C934202D2E05C00287C
:10051000F9D1A869E618C01AA861286A18442862A7
:100520002846AFF3008004E0D5E9012114F8010B5F
:100530009047B442F8D32846AFF3008070BD000066
:100540002DE9F0410646002410687529314616A5AC
:1005500010D0AFF30080002802DA404213A507E074
:1005600031688A0701D512A502E0490704D511A513
:10057000012401E0AFF3008000210A2206F12407E4
:1005800009E0B0FBF2FCB0FBF2F302FB1C003030E0
:1005900078541846491C0028F3D123462A46304691
:1005A000BDE8F04100F0F5B8000000002D000000AB
:1005B0002B000000200000000EB5054614460E4634
:1005C00013A000F072F9284600F06FF916A000F0B1
:1005D0006CF9304600F069F915A000F066F90021C9
:1005E0008DF80B100A210DF10A008DF80A1008E0B1
:1005F00094FBF1F201FB124294FBF1F4303200F86B
:10060000012D002CF4DC00F050F900F043F900005B
:100610002A2A2A20617373657274696F6E2066617D
:10062000696C65643A2000002C2066696C652000C6
:100630002C206C696E65200040EA0103024630B54B
:100640009B0710D14FF0013400E008C208C91D1B00
:100650009D4315EAC41FF8D013F0FF0102F8011BF7
:100660000DD01B0AF8E711F8013B002B02F8013B03
:1006700005D011F8013B002B02F8013BF3D130BD4E
:100680004FF0000200B5134694469646203922BF2B
:10069000A0E80C50A0E80C50B1F12001BFF4F7AF76
:1006A000090728BFA0E80C5048BF0CC05DF804EB58
:1006B000890028BF40F8042B08BF704748BF20F8C6
:1006C000022B11F0804F18BF00F8012B70477047C4
:1006D0007047704770470000004870478C06002044
:1006E000704770477047704738B504460A46002087
:1006F0006946AFF30080002808BF38BD0246009964
:10070000204600F0E5F8012038BD012000F01DB9B9
:10071000F8B5AFF30080054600200C46102000BF5E
:100720000646A819A0420DD9324669460020AFF30B
:100730000080070008BF00F008F90098A04218BF29
:100740000546C419FFF7C8FF05600746F01D20F0F5
:1007500007004619284600F00AF8B44208BFF8BD61
:10076000A21B31463868BDE8F84000F0B1B800215E
:100770000160C0E9011070471020704710B500F00B
:10078000A3F8006810BD10B5044600F09DF80460A1
:1007900010BD2DE9F0470D4699469246044600F1FA
:1007A00024080168880604D5E06921F01001216061
:1007B00000E00120A84201DD471B00E00027A169FD
:1007C0007A1902EB0900081AA0612078C00602D449
:1007D0002046AFF30080002608E0D4E901211AF892
:1007E00006009047206A401C761C20624E45F4DBD0
:1007F0002078C0060AD52046AFF3008006E0D4E991
:10080000012130209047206A401C2062381EA7F149
:100810000107F4DC07E0D4E9012118F8050090474E
:10082000206A401C2062281EA5F10105F3DC204649
:10083000AFF300802078000602D50220BDE8F087E3
:100840000120FBE710B5436913B1AFF3008001E06D
:10085000FFF74CFE012010BD127800F124010A7050
:1008600000224A700122EDE711684FF0FF32E9E7FC
:10087000074B70B50D467B4400F049F80446284606
:1008800000F058F810B14FF0FF3070BD204670BD39
:100890009F58000010B5002000F050F8FFF7E6FC6C
:1008A000BDE81040012005F0B9B810B5044602E0DB
:1008B000641C05F0B5F820780028F9D110BD0000BF
:1008C00000487047840600200048704784060020D6
:1008D000034640688C46002818BF88423CBF034648
:1008E0004068F8D318681844884207D00CF1030018
:1008F00020F00700001D411A521A0146081D0A6027
:10090000FFF716BD01694A1C02610878704700B5FF
:100910008FB0CDE901310021059105497944CDE938
:10092000031011466846FFF7ADFD0FB000BD000093
:10093000E5FFFFFF007B00F08000704710B500F07E
:100940003FF8BDE8104000F035B810B500F050F8A1
:10095000BDE8104000F02EB87546FFF7B1FFAE4677
:1009600005006946534620F00700854618B020B5BB
:10097000FFF79CFCBDE820404FF000064FF0000759
:100980004FF000084FF0000B21F00701AC46ACE837
:10099000C009ACE8C009ACE8C009ACE8C0098D46A4
:1009A000704710B50446AFF300802046BDE8104004
:1009B000FFF767BC002801D005F030B87047000091
:1009C00010B5002102A000F03BF8012010BD00008E
:1009D000534947414252543A2041626E6F726D61F1
:1009E0006C207465726D696E6174696F6E000000D1
:1009F00010B5012805D0002103A000F021F8012046
:100A000010BD09A1F8E7000053494752544D454D28
:100A10003A204F7574206F662068656170206D659F
:100A20006D6F7279000000003A2048656170206D9A
:100A3000656D6F727920636F727275707465640092
:100A400070B505460C460A2000E06D1C04F0E8FF76
:100A500035B128780028F8D102E0641C04F0E0FFEA
:100A600014B120780028F8D1BDE870400A2004F0C5
:100A7000D7BF00002DE9F05F044688464FF000091B
:100A80004746206803F090F98246206803F078F921
:100A90008346BAF1000F02D1BBF1000F72D020687B
:100AA000C06800F0007000B3607F01281DD1207F76
:100AB00001281AD101270FE0334881450AD3E06DA0
:100AC00040F01000E065206E40F00100206601203B
:100AD000BDE8F09F09F1010920680068C0F38010AB
:100AE0000028E9D0402021680860022F10D020683B
:100AF00003F05AF960B1206803F047F940B9206863
:100B00008168224A114041F01001816000BF00BF9E
:100B1000012F10D0206803F033F960B1206803F092
:100B200034F940B920688168184A114041F0200129
:100B3000816000BF00BF022F03D0032F03D10C251B
:100B400003E0082501E0042500BF00BF01F05EFAC4
:100B5000064612E001F05AFA801B05280DD92068DC
:100B60008068284048B1E06D40F01000E065206EDC
:100B700040F0010020660120AAE720688068284034
:100B80000028E7D10020A3E7000040A3C0FFFF7FBB
:100B900070B50546AC6AE06D00F0500098BBE06DA2
:100BA00040F40070E0652068006800F00800A8B11B
:100BB000206803F0FEF810B32068C06800F400500D
:100BC000E8B9E06D20F48070E065E06D00F48050DD
:100BD000A8B9E06D40F00100E06510E02068C06851
:100BE00000F0020058B9E06D20F48070E065E06D1F
:100BF00000F4805018B9E06D40F00100E065204637
:100C000000F028FC0CE0FFE7E06D00F0100018B1E8
:100C1000204600F086FC03E0606D416B2846884763
:100C200070BD70B50546AC6AE06D40F04000E0650F
:100C3000206E40F004002066204600F072FC70BD7B
:100C400070B50446A56A284600F06AFC70BD000035
:100C500070B50446206803F098F80646206803F053
:100C600099F898B396BB2068806800F00D000128C1
:100C70000AD1206881681A4A1140891C816000BF2E
:100C800003202168086009E0E06D40F01000E06595
:100C9000206E40F001002066012070BD01F0B6F921
:100CA000054614E001F0B2F9401B02280FD9206874
:100CB000806800F0010050B1E06D40F01000E06588
:100CC000206E40F0010020660120E6E705E0206884
:100CD000806800F001000028E4D10020DDE700007A
:100CE000C0FFFF7F70B50446206803F053F800286A
:100CF00036D1206880681B49084048B1E06D40F05B
:100D00001000E065206E40F001002066012070BDFB
:100D1000206803F01FF801F079F905461AE0206811
:100D200003F038F810B9206803F014F801F06EF9F8
:100D3000401B02280ED92068006800F0010048B965
:100D4000E06D40F01000E065206E40F0010020668C
:100D50000120DCE72068006800F001000028DED0F8
:100D60000020D4E73F00008000BFFEE710B5024836
:100D700000F0FFFE10BD00005001002030B50E4D08
:100D80000468AC4201D20D4901E00C4920310B4608
:100D90000478083C1425B4FBF5F2446CA40803EB7A
:100DA00084048464054C8034C46402F01F0501246B
:100DB000AC40046530BD0000080402400008024059
:100DC00001794A1E064B03EB82024265044A403217
:100DD00082654A1E02F01F0301229A40C2657047D5
:100DE0000009024030B5D0E913546C60446D14B171
:100DF000D0E916546C6090F8444004F01F050124BB
:100E0000AC40056C6C60046863608468102C04D18D
:100E10000468A2600468E16003E00468A1600468FB
:100E2000E26030BD70470000F8B504460D46002072
:100E3000009000BF94F85800012801D10220F8BDAD
:100E4000012084F8580000BF2046FFF701FF064646
:100E50008EBBE06D20F4885040F00200E065206811
:100E600081681B4A114005F0804242F00042114364
:100E7000816000BF13E00098401C00901549009865
:100E800088420CD3E06D20F0020040F01000E065D5
:100E900000BF002084F8580000BF0120CFE7206881
:100EA0008168C90F0029E6D1E06D20F0020040F012
:100EB0000100E06504E0FFE7E06D40F01000E06550
:100EC00000BF002084F8580000BF3046B7E700009C
:100ED000C0FFFF3F02DE04002DE9F84F05460C4637
:100EE0004FF0000A00200090F749E068884200D0E7
:100EF00000E000BF00BF95F85800012802D1022091
:100F0000BDE8F88F012085F8580000BF286802F07E
:100F10004BFF00287DD12968D4E9002001F1300C75
:100F2000C0F3012B0CEB8B03D3F800C000F01F0EB5
:100F30004FF01F0B0BFA0EFB2CEA0B0C00F01F0BF3
:100F4000C2F3846E0EFA0BFE4CEA0E0CC3F800C01E
:100F500000BF286802F028FF8146286802F010FFD1
:100F60008046B9F1000F64D1B8F1000FFBD1A06841
:100F7000B0F1004F0AD121680022286802F02AFF50
:100F80004FF00041286802F04AFF08E0A26821689B
:100F9000286802F01FFF0021286802F040FF606906
:100FA0002968C968C1F3C101490000FA01F7206945
:100FB00004283FD028682268216900F1600C0CEBFE
:100FC0008103D3F800C0DFF804B30CEA0B0C02F085
:100FD000F84B4BF0004B4BEA070B4CEA0B0CC3F8F9
:100FE00000C000BF2868A269216900F1600C0CEB09
:100FF0008103D3F800C02CF0807C4CEA020CC3F8CB
:1010000000C000BF2868227F2169012A02D1520650
:1010100001E0F9E10022134600F1600C0CEB8102C3
:10102000D2F800C02CF0007C4CEA030CC2F800C0DF
:1010300000BFA7E00021286802F099FEC0F312006B
:1010400030B90021286802F092FEC0F3846007E006
:101050000021286802F08BFE90FAA0F0B0FA80F030
:101060002168C1F3120119B92168C1F3846104E058
:10107000216891FAA1F1B1FA81F1884204D10022EC
:101080001146286802F0C0FE0121286802F06FFEB8
:10109000C0F3120030B90121286802F068FEC0F3E5
:1010A000846007E00121286802F061FE90FAA0F058
:1010B000B0FA80F02168C1F3120119B92168C1F3B7
:1010C000846104E0216891FAA1F1B1FA81F18842CA
:1010D00004D100220121286802F096FE022128682E
:1010E00002F045FEC0F3120030B90221286802F078
:1010F0003EFEC0F3846007E00221286802F037FE5C
:1011000090FAA0F0B0FA80F02168C1F3120119B989
:101110002168C1F3846104E0216891FAA1F1B1FA78
:1011200081F1884204D100220221286802F06CFE7D
:101130000321286802F01BFEC0F3120030B903211E
:10114000286802F014FEC0F3846007E003212868D9
:1011500002F00DFE90FAA0F0B0FA80F02168C1F321
:10116000120119B92168C1F3846104E0216891FA80
:10117000A1F1B1FA81F1884204D10022032128684B
:1011800002F042FE286802F005FE002874D12868AB
:10119000E26821684C4B9A4208D1D0F8B030C1F3D4
:1011A000120C43EA0C03C0F8B03007E0D0F8B030BE
:1011B000C1F3120C23EA0C03C0F8B03000BF42495F
:1011C000E068884258D12368C3F312031BB923682F
:1011D000C3F3846304E0236893FAA3F3B3FA83F3BD
:1011E0005B1C03F01F03092B3ED82368C3F31203D3
:1011F0001BB92368C3F3846304E0236893FAA3F361
:10120000B3FA83F35B1C03F01F034FF0010C0CFADD
:1012100003FC2368C3F312031BB92368C3F384637D
:1012200004E0236893FAA3F3B3FA83F35B1C03F09F
:101230001F034CEA836C2368C3F312031BB92368B2
:10124000C3F3846304E0236893FAA3F3B3FA83F34C
:101250005B1C03F01F0303EB43034FF0000B4BEA4F
:1012600003534CEA030344E02368C3F3120323B996
:101270002368C3F3846305E040E0236893FAA3F393
:10128000B3FA83F35B1C03F01F034FF0010C0CFA5D
:1012900003FC2368C3F312031BB92368C3F38463FD
:1012A00004E0236893FAA3F3B3FA83F35B1C03F01F
:1012B0001F034CEA836C2368C3F3120343B923680A
:1012C000C3F3846309E0000000007F4000F0FF03E7
:1012D000236893FAA3F3B3FA83F35B1C03F01F03B1
:1012E0000A3B03EB43034FF0007B4BEA03534CEA0A
:1012F00003031946A268286802F06CFD494920687A
:101300000840002843D02968B1F1A04F03D0464AD5
:101310002968914201D1454900E045490846816864
:1013200001F0E07600BF43492068884203D042497B
:10133000206888422CD106F4000048BB2868B0F130
:10134000A04F03D03D492868884263D12A68B2F192
:10135000A04F03D0344B2A689A4201D1334A00E0AF
:10136000334A104646F4000102F048FD3448006854
:101370003449B0FBF1F0401C00EB400080000090CD
:1013800002E00098401E009000980028F9D141E04A
:101390002D49206888421BD106F08070C0B92249CF
:1013A0002868884203D129492868884232D02A68AF
:1013B000B2F1A04F03D01C4B2A689A4201D11B4ABC
:1013C00000E01B4A104646F0807102F017FD21E054
:1013D0001F49206888421DD106F48000D0B9124907
:1013E0002868884216D02A68B2F1A04F03D00B4675
:1013F0002A689A4201D10D4A00E00D4A104646F48F
:10140000800102F0FBFC05E0E86D40F02000E8659B
:101410004FF0010A00BF002085F8580000BF504679
:101420006EE500000000088000010050000300503D
:1014300000070050000021C31000C09000060050BB
:1014400000000020400D0300000052C700050050BE
:10145000000084CB70B506463068B0F1A04F56D17D
:101460002B48006890F8390000F0080000284BD1A4
:10147000284800F0FFFA002521E000241BE0244862
:1014800000681C3000EB8400D0ED000A05EB8500FD
:101490002044214931F8100000EE100AB8EE400A4D
:1014A00030EE800A1A4800681C3000EB840080EDA2
:1014B000000A601CC4B2032CE1DB681CC5B2322DEB
:1014C000DBDB002413E0124800681C3000EB8400D2
:1014D00090ED000ADFED110A80EE201A0C4800683A
:1014E0001C3000EB840080ED001A601CC4B2032C99
:1014F000E9DB0748006890F8390040F0080004492B
:10150000096881F8390002E0012007F09FFC70BDF6
:1015100074000020B00100201C020020000048429E
:10152000704770472DE9F84F04464FF0000900203E
:10153000009014B90120BDE8F88F606920B194F8DB
:101540002400012800D100BFE06D30B9204600F032
:101550004BF90020206684F8580020688168C1F3A8
:10156000407131B120688168944A1140816000BFA8
:1015700000BF206802F013FCB0B920688168904A6F
:10158000114041F08051816000BF8E4800688E4953
:10159000B0FBF1F0401C4000009002E00098401EBB
:1015A000009000980028F9D1206802F0F8FB48B9B3
:1015B000E06D40F01000E065206E40F00100206614
:1015C0004FF00109206802F0EFFB0646E06D00F0E5
:1015D000100000287ED1002EFCD1E06D20F4807038
:1015E00040F00200E065206802F0D4FB88BB206870
:1015F000B0F1A04F03D075492068884201D17448EA
:1016000000E07448724988420AD14FF0A04002F0CD
:10161000C1FB82466D4802F0BDFB4AEA00000DE0C6
:101620006D4802F0B7FB82466C4802F0B3FB4AEA11
:10163000000A6B4802F0AEFB4AEA000048B9226893
:10164000B2F1A04F03D0614B22689A4202D1604AA6
:1016500001E009E05F4A10466168826822F47C126A
:101660000A43826000BF00BF607FE16B41EA403007
:10167000E1680843A168084394F8241040EA014552
:1016800094F82400012803D1208D401E45EA4045EE
:10169000E06A28B1A08D00F47870216B08430543FF
:1016A0002068C0684F49084028432168C860206806
:1016B000006920F04060616B084321680861206880
:1016C00002F072FB8046206802F05AFB0746B8F130
:1016D000000F00E06AE04FD1F7BB207F002141EA14
:1016E000803194F8380041EA40052068C06844F22F
:1016F0000201884328432168C860206980B12068BE
:10170000006940F48030216808612068D0F8C0008A
:101710006FF30D00216908432168C1F8C0000DE096
:101720002068006920F48030216808612068D0F8C2
:10173000C0006FF30D002168C1F8C00094F84000AC
:10174000012813D1606C40F00101A06C0843E16CEA
:101750000843216D084300E00EE02168096940F26A
:10176000FC72914308432168086105E02068006924
:1017700020F00100216808616069012809D1206812
:10178000006B20F00F00216A491E0843216808639E
:1017900005E02068006B20F00F0021680863E06D11
:1017A00020F0020040F00100E06505E0E06D40F04F
:1017B0001000E0654FF001094846BCE6C0FFFF5F3E
:1017C000C0FFFF7F00000020400D0300000100501B
:1017D00000030050000700500004005000050050B6
:1017E000000600500740F0FF10B59CB0044620688A
:1017F000B0F1A04F7ED1542102A8FEF741FF4FF473
:10180000004002908003139002A800F03FFD00BF4B
:1018100000BF4048C06C40F400503E49C8640846D0
:10182000C06C00F40050019000BF00BF00BF00BFBB
:1018300000BF0846C06C40F00100C8640846C06C98
:1018400000F00100019000BF00BF00BF00BF00BF5B
:101850000846C06C40F00400C8640846C06C00F044
:101860000400019000BF00BF00BF00BF00BF0846DA
:10187000C06C40F00400C8640846C06C00F004006E
:10188000019000BF00BF00BF00BF00BF0846C06C92
:1018900040F00400C8640846C06C00F004000190E9
:1018A00000BF00BF00BF00BF00BF0846C06C40F0D3
:1018B0000400C8640846C06C00F00400019000BF3A
:1018C00000BF00BF08201790032018900020199037
:1018D00017A94FF0904000F095FA0120179017A932
:1018E0000D4800F08FFA0220179017A90A4800F05F
:1018F00089FA00E00CE00420179017A9064800F0D0
:1019000081FA0820179017A9034800F07BFA00BF5E
:101910001CB010BD00100240000800482DE9F04145
:1019200004460F4690462168B1F1A04F03D0484AC3
:101930002168914201D1474900E04749084602F039
:1019400011FA0646206802F02FFA00287CD100BF69
:1019500094F85800012802D10220BDE8F08101204E
:1019600084F8580000BF3D492068884201D1012019
:1019700000E0002020B91EB1052E01D0092E5DD156
:101980002046FFF7AFF90546002D52D1E06D40F635
:101990000161884340F48070E0652D4920688842E9
:1019A00002D14FF0A04006E02D492068884201D1C5
:1019B0002C4800E020682168884200D01EB9E06D04
:1019C00020F48010E065E06D00F4805020B1206EBE
:1019D00020F00600206601E0002020662248616DAC
:1019E000C8622248616D08632148616D48631C200C
:1019F0002168086000BF002084F8580000BF2068FC
:101A0000406840F01000216848602068C06840F0DD
:101A100001002168C860226802F1400143463A464D
:101A2000606D00F08DF90546206802F0CBF90CE0FE
:101A30000AE000BF002084F8580006E0012500BF3E
:101A4000002084F8580000E00225284685E70000C1
:101A50000001005000030050000700500006005035
:101A60000005005000040050910B0008410C0008D4
:101A7000230C000870B5044600BF94F858000128F4
:101A800001D1022070BD012084F8580000BF03215D
:101A90002046FEF7EFFF05464DBB2068C06820F0EA
:101AA00001002168C860606D90F82500022808D107
:101AB000606D00F023F805461DB1E06D40F0400078
:101AC000E0652068406820F010002168486025B972
:101AD0002046FFF7BDF8054602E02046FFF7B8F8BC
:101AE0002DB9E06D20F4885040F00100E06500BFA2
:101AF000002084F8580000BF2846C3E701460020B4
:101B000091F82520022A03D00422CA63012027E08D
:101B10000A68126822F00E020B681A608A6C12685A
:101B200022F480728B6C1A600A68126822F001023B
:101B30000B681A6091F8442002F01F0301229A40BA
:101B40000B6C5A60D1E913325A604A6D42B14A6D4A
:101B5000126822F480724B6D1A60D1E916325A6015
:101B6000012281F8252000BF002281F8242000BF37
:101B7000704770B50446206C05682068066894F8C4
:101B8000440000F01F01042088402840E0B106F026
:101B90000400C8B12068006800F0200028B920685F
:101BA000006820F004002168086094F8440000F008
:101BB0001F0104208840216C4860206B002856D00B
:101BC0002046216B884752E094F8440000F01F0142
:101BD00002208840284018B306F0020000B32068B5
:101BE000006800F0200040B92068006820F00A007A
:101BF00021680860012084F8250094F8440000F072
:101C00001F0102208840216C486000BF002084F83A
:101C1000240000BFE06A50B32046E16A884726E00E
:101C200094F8440000F01F01082088402840F0B1DB
:101C300006F00800D8B12068006820F00E00216886
:101C4000086094F8440000F01F0101208840216CD6
:101C500048600120E06384F8250000BF002084F87C
:101C6000240000BF606B10B12046616B884770BDD7
:101C700070B504460CB9012070BD2F492068884218
:101C80000BD22E492068401A1421B0FBF1F08000DD
:101C900060642A48083820640AE027492068401A0E
:101CA0001421B0FBF1F08000606423480838206400
:101CB000022084F825002068056847F6F070854307
:101CC000D4E9020108432169084361690843A16915
:101CD0000843E1690843216A084305432068056019
:101CE0002046FFF74BF8A068B0F5804F01D10020E7
:101CF00060602079A16C0860D4E9131048606068C6
:101D000060B16068042809D82046FFF759F8002020
:101D1000616D0860D4E91610486003E0002060653A
:101D2000A065E0650020E063012084F82500002024
:101D300084F8240000BF9FE7080402400800024026
:101D40002DE9F04104460D4616461F464FF00008A7
:101D500000BF94F82400012802D10220BDE8F081E0
:101D6000012084F8240000BF94F8250001283FD109
:101D7000022084F825000020E0632068006820F03D
:101D80000100216808603B46324629462046FFF79D
:101D900029F8206B30B12068006840F00E002168FF
:101DA00008600BE02068006820F0040021680860EB
:101DB0002068006840F00A0021680860A06C006894
:101DC00000F4803028B1A06C006840F48070A16CF1
:101DD0000860606D28B1606D006840F48070616DCE
:101DE00008602068006840F001002168086006E093
:101DF00000BF002084F8240000BF4FF002084046D6
:101E0000ACE7000078B502460B460021CAE0012687
:101E10008E401D6805EA0604002C73D01D7905F07C
:101E20000305012D04D01D7905F00305022D13D102
:101E300090684E000325B540A8434E00DD68B540CC
:101E400028439060506801258D40A8431D79C5F353
:101E500000158D40284350601D7905F00305032DC2
:101E600009D0D0684E000325B540A8434E009D68B8
:101E7000B5402843D0601D7905F00305022D13D12C
:101E8000CE0802F1200555F826004D07EE0E0F256D
:101E9000B540A8434E07F60E1D69B5402843CE084D
:101EA00002F1200545F8260010684E000325B540D4
:101EB000A8431D7905F003054E00B5402843106086
:101EC0005D6805F44035002D6BD000BF384D2D6E98
:101ED00045F00105364E356635462D6E05F0010597
:101EE000009500BF00BF4FEAB6358E0855F82600B2
:101EF0008D072E0F0F25B540A843B2F1904F02D1A8
:101F000000251AE04DE02B4DAA4201D1012514E035
:101F1000294DAA4201D102250FE0284DAA4201D144
:101F200003250AE0264DAA4201D1042505E0254DEE
:101F3000AA4201D1052500E006258E07360FB540DF
:101F40002843214D8E0845F82600204D2868A043DF
:101F50005D6805F4801505B120431C4D28602D1DDA
:101F60002868A0435D6805F4001505B12043174DAE
:101F70002D1D2860154D2D1F2868A0435D6805F4B0
:101F8000003505B12043114D2D1F28602D1F2868F5
:101F9000A0435D6805F4803505B120430B4D083D35
:101FA0002860491C1D68CD40002D7FF430AF78BDFE
:101FB000001002400004004800080048000C0048DF
:101FC00000100048001400480800014008040140C7
:101FD000024613690B400BB1012000E0002070475E
:101FE00010B5426921EA020302EA010443EA04430C
:101FF000836110BD0AB1816100E081627047000019
:1020000001480068000C7047002004E001480068A7
:102010007047000004000020034800680349096875
:102020000844014908607047040000200C000020AB
:1020300010B50024032000F089F8002000F008F813
:1020400008B1012401E000F02FF8204610BD000087
:1020500070B50446002511480068D8B10F480068E3
:102060004FF47A71B1FBF0F00D490968B1FBF0F65D
:10207000304600F067FF58B9102C07D200222146E5
:10208000501E00F026F80748046004E0012502E035
:10209000012500E00125284670BD00000C0000204D
:1020A0000000002008000020704701460846002874
:1020B0000DDB00BF00BF00F01F0301229A4043095F
:1020C0009B0003F1E023C3F8002100BF00BF00BF65
:1020D00070472DE9F05F80460D46164602F0B4FCCD
:1020E000074639462A46334601F00700C0F1070A81
:1020F000BAF1040F02D94FF0040A01E0C0F1070A57
:10210000D14600F1040ABAF1070F02D24FF0000ADB
:1021100001E0A0F1030AD4464FF0010A0AFA09FAD5
:10212000AAF1010A0AEA020A0AFA0CFA4FF0010BB4
:102130000BFA0CFBABF1010B0BEA030B4AEA0B04A5
:102140002146404602F088FCBDE8F09F00BF00F049
:102150000702064B19684FF6FF031940044B0B4367
:1021600043EA0221014B196000BF70470CED00E00B
:102170000000FA0502468ABB4148006800F4C060CE
:10218000B0F5806F2BD13E488030006820F480701D
:102190003B4BC3F880001846006820F4C06040F450
:1021A000007018603748006832235843364BB0FB44
:1021B000F3F0411C00E0491E3148406900F48060A2
:1021C000B0F5806F01D10029F5D12D48406900F4A8
:1021D0008060B0F5806F51D10320704708E0284837
:1021E0008030006820F48070254BC3F8800045E003
:1021F000B2F5007F3AD12248006800F4C060B0F523
:10220000806F2AD11E488030006840F480701C4BDB
:10221000C3F880001846006820F4C06040F40070E5
:1022200018601848006832235843174BB0FBF3F08E
:10223000411C00E0491E1248406900F48060B0F57E
:10224000806F01D10029F5D10D48406900F480600C
:10225000B0F5806F12D10320BFE7094880300068D5
:1022600040F48070064BC3F8800007E00448006823
:1022700020F4C06040F48060014B18600020ACE79F
:10228000007000400000002040420F002DE9F8439C
:1022900004460027B846206800F40020B0F5002F5F
:1022A00073D1B946FD48806D00F0805078B900BF09
:1022B000FA48806D40F08050F84988650846806D86
:1022C00000F08050009000BF00BF4FF00109F448BB
:1022D000006840F48070F2490860FFF797FE0646F8
:1022E00006E0FFF793FE801B022801D9032705E0D3
:1022F000EB48006800F480700028F2D000BF002F87
:1023000046D1E6489030006800F44075CDB1206DAC
:10231000A84216D0E1489030006820F44075DF48AC
:10232000D0F8900040F48030DC49C1F890000846B5
:10233000D0F8900020F48030C1F890000846C0F832
:10234000905005F00100A0B1FFF760FE064608E0DE
:10235000FFF75CFE801B41F28831884201D90327D8
:1023600006E0CE489030006800F002000028EFD070
:1023700000BF5FB9C9489030006820F44070216DFB
:102380000843C649C1F8900003E00CE0B84600E0FD
:10239000B846B9F1010F05D1C048806D20F08050DA
:1023A000BE49886500BF207800F0010048B1BB48F5
:1023B0008830006820F0030061680843B749C1F81D
:1023C0008800207800F00200022809D1B348883044
:1023D000006820F00C00A1680843B049C1F88800EB
:1023E000207800F00400042809D1AC488830006847
:1023F00020F03000E1680843A849C1F8880020783F
:1024000000F00800082809D1A4488830006820F0AE
:10241000C00021690843A149C1F88800207800F074
:102420001000102809D19D488830006820F44070C1
:10243000616908439949C1F88800207800F02000BC
:10244000202809D195488830006820F44060A169AF
:1024500008439249C1F88800207800F040004028E5
:1024600009D18E488830006820F44050E169084363
:102470008A49C1F88800207800F08000802809D1BE
:1024800086488830006820F44040216A0843834928
:10249000C1F88800208800F48070B0F5807F09D1F1
:1024A0007E488830006820F44030616A08437B49E8
:1024B000C1F88800206800F40030B0F5003F09D171
:1024C00076489C30006820F00300A16A08437349F5
:1024D000C1F89C00208800F40070B0F5007F09D19D
:1024E0006E488830006820F44020E16A08436B4958
:1024F000C1F88800208800F48060B0F5806F13D1A7
:1025000066488830006820F44010216B0843634916
:1025100088310860206BB0F5801F05D15F48C06826
:1025200040F480105D49C860208800F40060B0F578
:10253000006F13D159488830006820F44000616B67
:102540000843564988310860606BB0F5800F05D1AB
:102550005248C06840F480105049C860208800F498
:102560008050B0F5805F13D14C488830006820F06F
:102570004070A16B0843494988310860A06BB0F1F5
:10258000807F05D14548C06840F480104349C86049
:10259000208800F40050B0F5005F13D13F48883028
:1025A000006820F04060E16B08433C4988310860D6
:1025B000E06BB0F1006F05D13848C06840F480107E
:1025C0003649C860208800F48040B0F5804F13D1B0
:1025D00032488830006820F04060216C08432F4961
:1025E00088310860206CB0F1006F05D12B48C068BD
:1025F00040F480102949C860208800F40040B0F5FC
:10260000004F13D125488830006820F04050616C9D
:102610000843224988310860606CB0F1805F05D1C1
:102620001E48C06840F480301C49C860206800F42F
:102630008030B0F5803F13D118488830006820F012
:102640004040A16C0843154988310860A06CB0F186
:10265000804F05D11148C06840F480300F49C860F0
:10266000206800F48020B0F5802F13D10B489C30F7
:10267000006820F44010E16C084308499C31086070
:10268000E06CB0F5001F05D10448C06840F480102C
:102690000249C8604046BDE8F883000000100240CF
:1026A000007000402DE9F04104460D464FF000084F
:1026B00014B90120BDE8F0817D48006800F00F00EA
:1026C000A8420ED27A48006820F00F0028437849CB
:1026D00008600846006800F00F00A84201D0012001
:1026E000E8E7207800F00100002864D06068032843
:1026F00023D17048006800F0007008B90120D9E7C4
:1027000001F098FB06466C48864237D969488068D4
:1027100000F0F00030B1207800F0020002282DD146
:10272000A06858BB6348806820F0F00040F080004B
:10273000604988604FF0800820E06068022806D178
:102740005C48006800F4003040B90120B2E7594805
:10275000006800F4806008B90120ABE700F0DEF803
:1027600006465548864209D95248806820F0F00054
:1027700040F080004F4988604FF080084D488068E5
:1027800020F00300616808434A498860FFF73EFC77
:10279000074608E0FFF73AFCC01B41F28831884247
:1027A00001D9032086E74348806800F00C00616887
:1027B000B0EB810FEED1207800F00200022820D18A
:1027C000207800F00400042805D13A48806840F4DD
:1027D000E06038498860207800F00800082807D1B8
:1027E0003448806820F4605040F4E06031498860EB
:1027F0003048806820F0F000A16808432D498860C7
:1028000008E0B8F1800F05D12A48806820F0F00078
:10281000284988602648006800F00F00A84219D9AE
:102820002348006820F00F00284321490860FFF783
:10283000EDFB074608E0FFF7E9FBC01B41F28831DA
:10284000884201D9032035E71948006800F00F00DD
:10285000A842F0D1207800F00400042807D11548E0
:10286000806820F4E060E1680843124988602078BD
:1028700000F00800082808D10E48806820F4605055
:10288000216940EAC1000B49886000F047F8094916
:102890008968C1F30311094A515C01F01F01C84066
:1028A0000749086007480068FFF7D2FB02E700000D
:1028B000002002400010024000B4C4041A9C00082A
:1028C0000000002008000020014800687047000058
:1028D0000000002000B5FFF7F7FF05498968C1F344
:1028E0000221044A515C01F01F01C84000BD0000F4
:1028F000001002402A9C000800B5FFF7E5FF0549DB
:102900008968C1F3C221044A515C01F01F01C8402B
:1029100000BD0000001002402A9C000870B5224D46
:10292000AD6805F00C05042D01D120483AE01E4D9C
:10293000AD6805F00C05082D01D11D4832E01A4D97
:10294000AD6805F00C050C2D2BD1174DED6805F089
:102950000304154DED68C5F303156A1C022C0CD059
:10296000032C09D1124DB5FBF2F50F4EF668C6F3F4
:10297000062605FB06F10AE000BF0C4DB5FBF2F59B
:10298000094EF668C6F3062605FB06F100BF00BF38
:10299000054DED68C5F341656D1C6B00B1FBF3F0AF
:1029A00000E0002070BD0000001002400024F40090
:1029B00000127A002DE9F843044614B90120BDE85D
:1029C000F883207800F00100002865D0FC4880687A
:1029D00000F00C07FA48C06800F003060C2F01D184
:1029E000032E01D0082F0AD1F548006800F400300A
:1029F000002851D0606800284ED10120DFE700BFD9
:102A00006068B0F5803F06D1ED48006840F4803042
:102A1000EB4908601AE06068B0F5A02F0BD1E848D8
:102A2000006840F48020E64908600846006840F4E9
:102A3000803008600AE0E248006820F48030E04915
:102A400008600846006820F48020086000BF6068C5
:102A500088B1FFF7DBFA054606E0FFF7D7FA401B1F
:102A6000642801D90320AAE7D548006800F40030A3
:102A70000028F2D010E0FFF7C9FA054606E0FFF79C
:102A8000C5FA401B642801D9032098E7CC480068A8
:102A900000F400300028F2D1207800F00200022873
:102AA00060D1C748806800F00C07C548C06800F0D6
:102AB00003060C2F01D1022E01D0042F18D1C048DB
:102AC000006800F4806018B1E06808B9012076E77A
:102AD000BB48406820F0FE40217C40EA0160B849D4
:102AE0004860B8480068FFF7B3FA18B3012066E7FA
:102AF000E06800B3B248006840F48070B0490860F4
:102B0000FFF784FA054606E0FFF780FA401B02282B
:102B100001D9032053E7AA48006800F48060002828
:102B2000F2D0A748406820F0FE40217C40EA0160D6
:102B3000A349486016E0A248006820F48070A049CC
:102B40000860FFF763FA054606E0FFF75FFA401BEF
:102B5000022801D9032032E79948006800F4806018
:102B60000028F2D1207800F00800082836D16069EA
:102B7000D0B193489430006840F001009049C1F80A
:102B80009400FFF743FA054606E0FFF73FFA401BC3
:102B9000022801D9032012E789489430006800F028
:102BA00002000028F1D019E085489430006820F038
:102BB00001008349C1F89400FFF728FA054606E0B2
:102BC000FFF724FA401B022801D90320F7E67C48CE
:102BD0009430006800F002000028F1D1207800F065
:102BE0000400042872D14FF000087548806D01215F
:102BF00021EA107078B100BF7148806D40F08050BC
:102C00006F4988650846806D00F08050009000BFD5
:102C100000BF4FF001086C48006800F48070B0B944
:102C20006948006840F4807067490860FFF7EEF972
:102C3000054606E0FFF7EAF9401B022801D9032008
:102C4000BDE66148006800F480700028F2D000BF43
:102C5000A068012808D15A489030006840F001006F
:102C60005749C1F8900021E0A06805280FD15448C9
:102C70009030006840F004005149C1F890000846C7
:102C8000D0F8900040F00100C1F890000EE04C48F0
:102C90009030006820F001004949C1F890000846D2
:102CA000D0F8900020F00400C1F8900000BFA068A8
:102CB000A8B1FFF7ABF9054609E0FFF7A7F9401BFC
:102CC00041F28831884202D9032078E625E03C4869
:102CD0009030006800F002000028EED013E0FFF70B
:102CE00095F9054608E0FFF791F9401B41F288315C
:102CF000884201D9032062E631489030006800F034
:102D000002000028EFD1B8F1010F05D12C48806DE9
:102D100020F080502A49886500BF207800F020000C
:102D2000202836D1A069D0B125489830006840F0FD
:102D300001002349C1F89800FFF768F9054606E04D
:102D4000FFF764F9401B022801D9032037E61C482D
:102D50009830006800F002000028F1D019E018480F
:102D60009830006820F001001549C1F89800FFF77D
:102D70004DF9054606E0FFF749F9401B022801D945
:102D800003201CE60E489830006800F0020000287E
:102D9000F1D1E069002860D00948806800F00C009B
:102DA0000C287FD0E069022858D10548006820F03F
:102DB000807003490860FFF729F905460DE000001F
:102DC000001002400800002000700040FFF71EF9CC
:102DD000401B022801D90320F1E54D48006800F0AE
:102DE00000700028F2D1D4E90810401E41EA001119
:102DF000A06A41EA0021208E0122C2EB500041EA84
:102E000040513420005DC2EB500041EA40612C206B
:102E1000005D41EAC0603E49C9683E4A114008432E
:102E20003B49C8600846006840F08070086008466A
:102E3000C06840F08070C860FFF7E8F8054606E01B
:102E4000FFF7E4F8401B022801D90320B7E530481A
:102E5000006800F000700028F2D056E02C480068AE
:102E600020F080702A4908600846C06820F00300FE
:102E7000C8600846C068284908402549C860FFF76F
:102E8000C5F8054607E00DE0FFF7C0F8401B022833
:102E900001D9032093E51E48006800F00070002867
:102EA000F2D132E0E069012800D188E51848C6680F
:102EB00006F00301206A814225D106F0F001606A24
:102EC000401EB1EB001F1ED106F4FE41A06AB1EB1B
:102ED000002F18D106F078412C20005DB1EBC06FB7
:102EE00011D106F4C001208E0122C2EB5000B1EBDB
:102EF000405F08D106F0C0613420005DC2EB500095
:102F0000B1EB406F01D0012059E5002057E50000EA
:102F1000001002400C809F01FFFFEEFE042808D144
:102F20004FF0E021096941F004014FF0E022116106
:102F300007E04FF0E021096921F004014FF0E022A1
:102F40001161704770B504462546681EB0F1807F58
:102F500001D301200FE0681E4FF0E02148610F21EE
:102F60004FF0FF3001F078FD00204FF0E021886144
:102F700007200861002070BD704770477047704798
:102F80007047704730B502460B4600BF92F83C00D0
:102F9000012801D1022030BD012082F83C0000BF91
:102FA000022082F83D001068416810688468234D53
:102FB0001068A84207D0224D1068A84203D0214DC6
:102FC0001068A84203D121F47001586801431E48DB
:102FD00001401868014310684160184D1068A8420C
:102FE0001BD01068B0F1804F17D0184D1068A84260
:102FF00013D0174D1068A8420FD0164D1068A84284
:103000000BD00F4D1068A84207D0134D1068A8428E
:1030100003D00C4D1068A84205D124F080049868B4
:10302000044310688460012082F83D0000BF002046
:1030300082F83C0000BF00BFADE70000002C01405B
:1030400000340140005001408FFFFFFD00040040AC
:1030500000080040000C004000400140704710B5DF
:1030600004460CB9012010BD94F83D0028B9002099
:1030700084F83C00204600F029F8022084F83D0046
:10308000211D206800F02AFF012084F8480000BFBD
:1030900084F83E0001213F20015540200155412088
:1030A0000155422001554320015500BF00BF0120BA
:1030B00084F844004520015546200155472001551C
:1030C00000BF012084F83D000020CCE738B504465D
:1030D0000E492068884217D100BF00BF0C48806DA0
:1030E00040F010000A4988650846806D00F0100025
:1030F000009000BF00BF00BF032211463620FEF73C
:10310000E8FF3620FEF7D1FF38BD00000010004078
:1031100000100240014691F83D00012801D0012035
:103120007047022081F83D000868C06840F0010047
:103130000B68D8601C4B086898421BD00868B0F137
:10314000804F17D0194B0868984213D0184B086865
:1031500098420FD0174B086898420BD0164B08685E
:10316000984207D0154B0868984203D0144B086862
:10317000984210D108688068124B00EA0302062AC0
:103180000FD0B2F5803F0CD00868006840F0010015
:103190000B68186005E00868006840F001000B68E3
:1031A00018600020BCE70000002C01400004004033
:1031B00000080040000C0040003401400040014085
:1031C0000050014007000100704710B50446206818
:1031D0000069C0F34000D8B12068C068C0F3400067
:1031E000B0B16FF0020021680861012020772068EB
:1031F000806900F0030018B12046FFF7E5FF05E005
:10320000204600F002F9204600F0B0FA00202077B6
:1032100020680069C0F38000D8B12068C068C0F39E
:103220008000B0B16FF004002168086102202077AF
:103230002068806900F4407018B12046FFF7C4FF91
:1032400005E0204600F0E1F8204600F08FFA00206B
:10325000207720680069C0F3C000D8B12068C0683A
:10326000C0F3C000B0B16FF008002168086104200D
:1032700020772068C06900F0030018B12046FFF7EE
:10328000A3FF05E0204600F0C0F8204600F06EFAEB
:103290000020207720680069C0F30010D8B12068B2
:1032A000C068C0F30010B0B16FF010002168086171
:1032B000082020772068C06900F4407018B12046CB
:1032C000FFF782FF05E0204600F09FF8204600F05F
:1032D0004DFA002020772068006900F0010058B105
:1032E0002068C06800F0010030B16FF00100216873
:1032F0000861204600F06AFB20680069C0F3C01036
:1033000058B12068C068C0F3C01030B16FF08000C1
:10331000216808612046FFF730FE20680069C0F38D
:10332000002058B12068C068C0F3C01030B16FF4FD
:103330008070216808612046FFF71EFE2068006942
:10334000C0F3801058B12068C068C0F3801030B15D
:103350006FF0400021680861204600F04BFB2068B8
:103360000069C0F3401058B12068C068C0F3401035
:1033700030B16FF02000216808612046FFF7FEFDA4
:1033800020680069C0F3005058B12068C068C0F3DD
:10339000005030B16FF48010216808612046FFF7BB
:1033A000EFFD20680069C0F3405058B12068C06844
:1033B000C0F3405030B16FF400102168086120461E
:1033C000FFF7DDFD20680069C0F3805058B1206828
:1033D000C068C0F3805030B16FF48000216808618C
:1033E0002046FFF7CEFD20680069C0F3C05058B1F9
:1033F0002068C068C0F3C05030B16FF4000021688D
:1034000008612046FFF72AFE10BD70472DE9F04104
:1034100004460D461646002700BF94F83C000128DC
:1034200002D10220BDE8F081012084F83C0000BFF9
:103430000C2E51D005DC4EB1042E1ED0082E7AD1B0
:1034400033E0102E60D0142EF9D175E029462068A3
:1034500000F0C6FD2068806940F00800216888619E
:103460002068806920F004002168886120688069F4
:10347000296908432168886178E02946206800F0BE
:103480000DFE2068806940F4006021688861206832
:10349000806920F4806021688861206880692969DA
:1034A00040EA01202168886160E02946206800F038
:1034B00059FE2068C06940F008002168C861206892
:1034C000C06920F004002168C8612068C0692969CA
:1034D00008432168C86149E02946206800F0A4FE3D
:1034E0002068C06940F400602168C8612068C06934
:1034F00020F480602168C8612068C069296940EAB9
:1035000001202168C86131E02946206800F0F0FE02
:103510002068006D40F00800216808652068006D93
:1035200020F00400216808652068006D29690843BF
:10353000216808651AE017E02946206800F014FFAA
:103540002068006D40F40060216808652068006D07
:1035500020F48060216808652068006D296940EAD0
:1035600001202168086501E0012700BF00BF00BFFE
:10357000002084F83C0000BF384653E710B50446ED
:103580000CB9012010BD94F83D0028B9002084F842
:103590003C00204600F02AF8022084F83D00211D5E
:1035A000206800F09BFC012084F8480000BF84F8EC
:1035B0003E0001213F200155402001554120015589
:1035C000422001554320015500BF00BF012084F86F
:1035D000440045200155462001554720015500BFB4
:1035E000012084F83D000020CCE7000010B586B033
:1035F00004465B49206888427ED100BF00BF59481D
:10360000006E40F40060574908660846006E00F4FA
:103610000060009000BF00BF00BF00BF00BF0846B1
:10362000C06C40F00100C8640846C06C00F00100A6
:10363000009000BF00BF00BF00BF00BF0846C06CC5
:1036400040F00100C8640846C06C00F00100009022
:1036500000BF00BF00BF00BF00BF0846C06C40F005
:103660000100C8640846C06C00F00100009000BF73
:1036700000BF00BF00BF00BF0846C06C40F00200A2
:10368000C8640846C06C00F00200009000BF00BF94
:1036900000BF00BF00BF0846C06C40F00200C86415
:1036A0000846C06C00F00200009000BF00BF00BFE1
:1036B00000BF00BF0846C06C40F00200C864084666
:1036C000C06C00F00200009000BF00BF00BF4FF4CC
:1036D00000500190002003900320049001200290EC
:1036E00001A92148FEF78EFB4FF48040019001A90B
:1036F0001D48FEF787FB00E02FE04FF400400190EB
:1037000001A91948FEF77EFB4FF48070019002205A
:10371000029000200390022004900620059001A949
:103720004FF09040FEF76EFB4FF40070019001A93E
:103730004FF09040FEF766FB4FF48060019001A9C6
:103740004FF09040FEF75EFB012203211920FEF7A7
:10375000C0FC1920FEF7A9FC00BF06B010BD000098
:10376000002C014000100240000400487047000097
:1037700070B504460D4615B994F83E0015E0042DC9
:1037800002D13F20005D10E0082D02D14020005DF5
:103790000BE00C2D02D14120005D06E0102D02D17E
:1037A0004220005D01E04320005D012801D001209E
:1037B00070BD1DB9022084F83E001AE0042D03D12B
:1037C00002213F20015514E0082D03D102214020A1
:1037D00001550EE00C2D03D102214120015508E0D6
:1037E000102D03D102214220015502E00221432085
:1037F000015501222946206800F0E0FB2D49206890
:10380000884213D02C49206888420FD02B49206869
:1038100088420BD02A492068884207D0294920686D
:10382000884203D028492068884201D1012000E065
:10383000002028B12068406C40F4004021684864B2
:103840001C49206888421BD02068B0F1804F17D0F7
:103850001E492068884213D01D49206888420FD035
:103860001C49206888420BD013492068884207D041
:1038700012492068884203D013492068884210D139
:1038800020688068144900EA0106062E0FD0B6F5BC
:10389000803F0CD02068006840F00100216808607B
:1038A00005E02068006840F0010021680860002001
:1038B0007EE70000002C0140003401400040014040
:1038C0000044014000480140005001400004004015
:1038D00000080040000C00400700010030B504461D
:1038E0000D4600222946206800F068FB3149206817
:1038F000884213D03049206888420FD02F49206871
:1039000088420BD02E492068884207D02D49206874
:10391000884203D02C492068884201D1012000E070
:10392000002090B100BF2068006A41F211110840E8
:1039300050B92068006A8900084028B92068406CA6
:1039400020F400402168486400BF00BF2068006A7E
:1039500041F21111084050B92068006A89000840FE
:1039600028B92068006820F001002168086000BFC5
:103970001DB9012084F83E001AE0042D03D1012175
:103980003F20015514E0082D03D1012140200155AD
:103990000EE00C2D03D101214120015508E0102D2E
:1039A00003D101214220015502E0012143200155AC
:1039B000002030BD002C0140003401400040014097
:1039C00000440140004801400050014010B5044649
:1039D00006492068884207D105480078401C044900
:1039E0000870022005F032FA10BD000000100040FF
:1039F00098000020704710B504460CB9012010BD96
:103A0000A06900B100E000BFD4F8840028B900200C
:103A100084F88000204600F02BF82420C4F88400AD
:103A20002068006820F0010021680860204600F04E
:103A300091FD012800D1E2E7A06A10B1204600F014
:103A4000D1FC2068406820F49040216848602068DC
:103A5000806820F02A00216888602068006840F0B3
:103A6000010021680860204600F038FDC7E700002B
:103A700010B586B004463149206888425BD100BF4A
:103A800000BF2F48006E40F480402D49086608466C
:103A9000006E00F48040009000BF00BF00BF00BF78
:103AA00000BF0846C06C40F00200C8640846C06C05
:103AB00000F00200009000BF00BF00BF00BF00BFC9
:103AC0000846C06C40F00200C8640846C06C00F0B4
:103AD0000200009000BF00BF00BF40200190022004
:103AE000029001200390022004900720059001A974
:103AF0001448FEF787F9802001900720059001A95E
:103B00001048FEF77FF910480068006820F0400078
:103B10000D49096808600C480068006840F0200002
:103B20000949096808602520FEF7BFFA03221146FB
:103B30002520FEF7CEFA06B010BD00000038014087
:103B40000010024000040048100400202DE9F84F46
:103B500004460E4617469A46D4F88800202873D1AA
:103B600006B117B90120BDE8F88F00BF94F88000B6
:103B7000012801D10220F6E7012084F8800000BF6F
:103B800000205C3420632220E06200202061FEF7E8
:103B90003DFA8346278067805C3C00BFA068B0F593
:103BA000805F0AD1206920B940F2FF10A4F86000BC
:103BB00020E0FF20A4F860001CE0A06848B920695C
:103BC00018B9FF20A4F8600014E07F20A4F860007A
:103BD00010E0A068B0F1805F09D1206918B97F209A
:103BE000A4F8600006E03F20A4F8600002E0002096
:103BF000A4F8600000BFB4F86090A068B0F5805FE2
:103C000004D1206910B90025B04602E035464FF0D6
:103C1000000800BF002084F8800000BF21E05B4660
:103C2000002220212046CDF800A000F077FE08B148
:103C3000032098E74DB92068406A00EA0900A8F817
:103C4000000008F1020807E014E02068406A09F06B
:103C5000FF01084028706D1CB4F85E00401EA4F8F7
:103C60005E00B4F85E000028D9D12020C4F8880096
:103C7000002078E7022076E72DE9F84F04460E464B
:103C800017469946D4F8840020285ED106B117B9AA
:103C90000120BDE8F88F00BF94F88000012801D111
:103CA0000220F6E7012084F8800000BF0020543491
:103CB000A06321202063FEF7A9F982462780678050
:103CC000543CA068B0F5805F04D1206910B900258C
:103CD000B04602E035464FF0000800BF002084F8EF
:103CE000800000BF1DE05346002280212046CDF811
:103CF000009000F013FE08B10320CAE745B9B8F8F8
:103D00000000C0F308002168886208F1020803E09F
:103D10002878216888626D1CB4F85600401EA4F80B
:103D20005600B4F856000028DDD153460022402149
:103D30002046CDF8009000F0F1FD08B10320A8E77F
:103D40002020C4F884000020A3E70220A1E700BFE0
:103D5000FEE700008168024A1140491C81607047FB
:103D6000C0FFFF7F0146886800F01F0070470246D1
:103D700002F1600000EB8103186800F0F840704722
:103D800001468868C0F3C000704701468868C0F3E8
:103D9000400070470146886800F001007047014606
:103DA0008868C0F30070704701468868C0F38000DF
:103DB00070470146C86800F4406008B901207047A8
:103DC0000020FCE78168024A1140091D81607047AC
:103DD000C0FFFF7F70B500F11404C1F3406504EB30
:103DE00085031C68C1F304560725B540AC43C1F3F5
:103DF000045502FA05F52C431C6070BD826822F060
:103E0000E0720A438260704710B500F1600404EB71
:103E100081031C6824F0004414431C6010BD4269F7
:103E200022F000420A434261704700BFFEE770473C
:103E30007047000070B5164DED6805F00304144D91
:103E4000ED68C5F303156B1C022C0CD0032C09D1B3
:103E5000104DB5FBF3F50E4EF668C6F3062605FBCE
:103E600006F10AE000BF0C4DB5FBF3F5084EF6680D
:103E7000C6F3062605FB06F100BF00BF044DED6842
:103E8000C5F341656D1C6A00B1FBF2F070BD000026
:103E90000010024000127A000024F400704710B5B0
:103EA000FEF7BAF810BD00000348006840F4700047
:103EB000014908607047000088ED00E010B5024835
:103EC000FFF783F910BD00003805002010B5024847
:103ED000FFF77BF910BD0000A005002010B50268B7
:103EE0002D4B984211D0B0F1804F0ED02B4B984201
:103EF0000BD02B4B984208D02A4B984205D02A4B26
:103F0000984202D0294B984203D122F070024B68AC
:103F10001A43214B98421AD0B0F1804F17D01F4B53
:103F2000984214D01E4B984211D01E4B98420ED08E
:103F30001D4B98420BD01E4B984208D01D4B984207
:103F400005D01D4B984202D0184B984203D122F461
:103F50004072CB681A4322F080034C6943EA0402A2
:103F600002608B68C3620B6883620B4B98420ED071
:103F70000D4B98420BD00E4B984208D00D4B9842F7
:103F800005D00D4B984202D0084B984201D10B69E5
:103F900003630123436110BD002C01400004004075
:103FA00000080040000C0040003401400050014077
:103FB00000400140004401400048014030B501F09C
:103FC0001F05012404FA05F3046A9C430462046A91
:103FD00001F01F0502FA05F52C43046230BD000014
:103FE00030B5056A25F001050562026A43688469F7
:103FF000234D2C4024F003040D682C4322F00202D0
:104000008D682A431F4DA84200D113E01E4DA842DF
:1040100000D10FE01D4DA84200D10BE01C4DA8427D
:1040200000D107E01B4DA84200D103E01A4DA84281
:1040300006D100BF22F00802CD682A4322F0040214
:10404000104DA8420ED0104DA8420BD00F4DA842E3
:1040500008D00F4DA84205D00E4DA84202D00E4DFB
:10406000A84207D123F4807323F400734D692B43D6
:104070008D692B43436084614D684563026230BDA6
:104080008FFFFEFF002C0140003401400040014042
:1040900000440140004801400050014030B5056A2D
:1040A00025F010050562026A43688469264D2C409C
:1040B00024F440740D6844EA052422F020028D683F
:1040C00042EA0512214DA84200D113E0204DA8423A
:1040D00000D10FE01F4DA84200D100BF1E4DA842E5
:1040E00000D100BF1D4DA84200D100BF1C4DA84209
:1040F00007D100BF22F08002CD6842EA051222F00B
:104100004002124DA8420ED0114DA8420BD0114DC5
:10411000A84208D0104DA84205D0104DA84202D0A8
:104120000F4DA84209D123F4806323F400634D6945
:1041300043EA85038D6943EA8503436084614D68E2
:104140008563026230BD0000FF8FFFFE002C01403E
:10415000003401400040014000440140004801405B
:104160000050014030B5056A25F480750562026A89
:104170004368C469254D2C4024F003040D682C438A
:1041800022F400728D6842EA0522214DA84200D136
:1041900013E0204DA84200D10FE01F4DA84200D1EE
:1041A00000BF1E4DA84200D100BF1D4DA84200D146
:1041B00000BF1C4DA84207D100BF22F40062CD68A9
:1041C00042EA052222F48062114DA8420ED0114D20
:1041D000A8420BD0104DA84208D0104DA84205D0DF
:1041E0000F4DA84202D00F4DA84209D123F48053AD
:1041F00023F400534D6943EA05138D6943EA05131F
:104200004360C4614D68C563026230BD8FFFFEFF2D
:10421000002C0140003401400040014000440140B6
:10422000004801400050014030B5056A25F4805532
:104230000562026A4368C469264D2C4024F4407428
:104240000D6844EA052422F400528D6842EA0532E2
:10425000214DA84200D113E0204DA84200D10FE02B
:104260001F4DA84200D100BF1E4DA84200D100BF83
:104270001D4DA84200D100BF1C4DA84207D100BF70
:1042800022F40042CD6842EA053222F48042124D07
:10429000A8420ED0114DA8420BD0114DA84208D013
:1042A000104DA84205D0104DA84202D00F4DA84293
:1042B00009D123F4804323F400434D6943EA851375
:1042C0008D6943EA85134360C4614D6805640262E9
:1042D00030BD0000FF8FFFFE002C01400034014084
:1042E00000400140004401400048014000500140AE
:1042F00030B5056A25F480350562026A4368046DAD
:10430000124D2C400D682C4322F400320D8942EAF4
:1043100005420F4DA8420ED00E4DA8420BD00E4DB7
:10432000A84208D00D4DA84205D00D4DA84202D09C
:104330000C4DA84204D123F480334D6943EA052390
:10434000436004654D688564026230BD8FFFFEFFE7
:10435000002C014000340140004001400044014075
:10436000004801400050014030B5056A25F4801531
:104370000562026A4368046D134D2C400D6844EADF
:10438000052422F400120D8942EA05520F4DA8427D
:104390000ED00F4DA8420BD00E4DA84208D00E4DA6
:1043A000A84205D00D4DA84202D00D4DA84204D11F
:1043B00023F480234D6943EA8523436004654D68F7
:1043C000C564026230BD0000FF8FFFFE002C01407B
:1043D00000340140004001400044014000480140D9
:1043E0000050014090F8281001F0010139B1016836
:1043F000496821F40031C26A11430268516090F8A3
:10440000281001F00201022907D10168496821F44E
:104410008031026B11430268516090F8281001F05E
:104420000401042907D10168496821F48021426B05
:1044300011430268516090F8281001F00801082922
:1044400007D10168496821F40041826B1143026879
:10445000516090F8281001F01001102907D101686F
:10446000896821F48051C26B11430268916090F811
:10447000281001F02001202907D10168896821F462
:104480000051026C11430268916090F8281001F00D
:104490004001402913D10168496821F48011426C20
:1044A000114302685160416CB1F5801F07D101686A
:1044B000496821F4C001826C11430268516090F890
:1044C000281001F08001802907D10168496821F492
:1044D0000021C26C114302685160704738B5044630
:1044E0000020C4F88C00FDF791FD054620680068A7
:1044F00000F0080008280CD16FF07E402B46002207
:104500004FF400110090204600F008FA08B1032093
:1045100038BD2068006800F0040004280CD16FF05A
:104520007E402B4600224FF480010090204600F090
:10453000F5F908B10320EBE72020C4F88400C4F8A3
:1045400088000020E06600BF84F8800000BF00BF44
:10455000DEE700002DE9FE4F044600200290E4490A
:104560002068884200D100E000BF2169A0680843AC
:1045700061690843E16940EA010820680068DD4993
:10458000084040EA0800216808602068406820F47C
:104590004050E168084321684860D4F81880D44945
:1045A0002068884202D0206A40EA080820688068B3
:1045B000D149084040EA0800216888602068C06A44
:1045C00020F00F00616A08432168C86200BFCB4930
:1045D0002068884216D1CA48006800F0030030B154
:1045E000012808D0022804D0032808D105E00125BD
:1045F00007E0022505E0042503E0082501E0102579
:1046000000BF8DE0BF492068884216D1BC480068D1
:1046100000F00C0030B1042808D0082804D00C2881
:1046200008D105E0002507E0022505E0042503E0A8
:10463000082501E0102500BF72E0B34920688842D8
:1046400016D1AF48006800F0300030B1102808D013
:10465000202804D0302808D105E0002507E00225F5
:1046600005E0042503E0082501E0102500BF57E020
:10467000A6492068884216D1A148006800F0C00011
:1046800030B1402808D0802804D0C02808D105E0E7
:10469000002507E0022505E0042503E0082501E0E8
:1046A000102500BF3CE09A492068884219D19448FF
:1046B000006800F4407048B1B0F5807F0AD0B0F5D2
:1046C000007F05D0B0F5407F08D105E0002507E068
:1046D000022505E0042503E0082501E0102500BFC0
:1046E0001EE083492068884219D18548006800F49B
:1046F000406048B1B0F5806F0AD0B0F5006F05D0CA
:10470000B0F5406F08D105E0002507E0022505E07F
:10471000042503E0082501E0102500BF00E0102576
:1047200000BF7349206888425BD135B1022D08D0A3
:10473000042D08D0082D0DD109E0FEF7CBF8064670
:104740000CE0744E0AE0FEF7E9F8064606E04FF486
:10475000004603E000260120029000BF00BF002EAB
:1047600010D06D49606A31F81000B6FBF0F960684E
:1047700000EB4000484503D860680003484502D27A
:1047800001200290A8E06449606A31F810C06246D6
:10479000002330461946FBF7F2FD4FF4807C0022DF
:1047A000A0FB0C3B01FB0CB100FB02106168490847
:1047B00059185041CDE90010D4F804C062460023D6
:1047C00008460199FBF7DBFD0746B7F5407F05D3A7
:1047D000B7F5801F02D22068C7607DE001200290FB
:1047E0007AE0E069B0F5004F3FD1092D17D2DFE83C
:1047F00005F005090D160F1616161300FEF76AF8D8
:10480000064610E0FEF778F806460CE0414E0AE056
:10481000FEF784F8064606E04FF4004603E0002663
:104820000120029000BF00BF86B33B49606A31F8A7
:104830001000B6FBF0F04000616800EB5100B0FBE7
:10484000F1F7102F0ED3B7F5803F0BD24FF6F07073
:1048500007EA000AC7F342004AEA000A2068C0F8E3
:104860000CA039E00120029036E0092D18D2DFE8D3
:1048700005F005090E17101717171400FEF72AF890
:10488000064611E0FEF738F806460DE024E0214E1A
:104890000AE0FEF743F8064606E04FF4004603E060
:1048A00000260120029000BF00BFAEB11A49606A25
:1048B00031F81000B6FBF0F0616800EB5100B0FB7E
:1048C000F1F7102F06D3B7F5803F03D2B8B22168B5
:1048D000C86001E0012002900120A4F86A00A4F859
:1048E00068000020206760670298BDE8FE8F000026
:1048F00000800040F369FFCFFFF4FF110038014052
:10490000881002400044004000480040004C004035
:10491000005000400024F400329C00082DE9F041D2
:1049200004460D4617469846069E6AE0701C00280D
:1049300067D0FDF76BFBA0EB0800B04200D846BB88
:1049400000BF00BF216851E8001F21F4D070226829
:1049500042E800010029F5D100BF00BF00BF216877
:10496000083151E8001F21F001002168083141E8B9
:104970000002002AF3D100BF2020C4F88400C4F84C
:10498000880000BF002084F8800000BF0320BDE83D
:10499000F0812068006800F0040088B32068C069D6
:1049A000C0F3C02060B34FF400602168086200BF0C
:1049B00000BF216851E8001F21F4D070226842E84E
:1049C00000010029F5D100BF00BF00BF21680831F8
:1049D00051E8001F21F001002168083141E8000280
:1049E000002AF3D100BF202044F8840F6060A0604B
:1049F000843C00BF002084F8800000BF0320C6E78D
:104A0000FFE72068C0692840A84201D1012000E0EA
:104A10000020B8428AD00020B9E7000008B5084855
:104A20000068C069C0F3401048B14FF47A730122A6
:104A300069460348FFF78AF8684600F06FFE08BD34
:104A40001004002000BFFEE702480068C0F3022007
:104A5000704700000CED00E010B5002804DB0A07E9
:104A6000130E054A135406E00A07140E034A00F019
:104A70000F031B1FD45410BD00E400E018ED00E04C
:104A800070B5D94B00242DED020B2DED108BDDE917
:104A90001010984205DA20F000429A4201D809D15C
:104AA00041B19DED100BBDEC108B02B0BDE8704024
:104AB00000F05EBAB0F5801F26DA11430BD0002853
:104AC00013DA0120FBF75FFEBDEC108B02B0BDE8EE
:104AD000704000F059BA0220FBF755FE00F030FAA2
:104AE00051EC100B04F08CFB9EE06FF035049FED51
:104AF000C00B53EC102B9DED100B51EC100B04F080
:104B00001DFECDE91001084604EB2051C0F313044B
:104B1000B948A1F2FF31204400F4801080F07F6298
:104B200082F04052224301EB20559FEDB50B1192CC
:104B300053EC102B9DED100B51EC100B04F008FF03
:104B400041EC180BA01CC0F313009FEDAFDB9FEDF1
:104B5000B0EBB14E7E4403286CD296ED000B51ECC5
:104B6000180B53EC102B04F095FD1DD1002D01BF47
:104B700096ED000BBDEC108B02B070BD284604F022
:104B8000C5FD41EC180B53EC1D2B04F0D7FD41EC97
:104B9000190B53EC1E2B51EC180B04F0CFFD53EC0A
:104BA000192B04F06BFB3FE09FED9D0B51EC180BB4
:104BB00053EC102B04F0C2FD9FED9B1B53EC112B0B
:104BC00004F0BAFE41EC190B53EC182B51EC180B06
:104BD00004F0B4FD53EC192B04F0B0FD41EC190BBB
:104BE000002D04BF53EC192B51EC180B1AD028469A
:104BF00004F08CFD41EC1A0B53EC1D2B04F09EFDD0
:104C000053EC192B04F098FE53EC182B04F0A0FE83
:104C100041EC180B53EC1E2B51EC1A0B04F08EFDDB
:104C200053EC182B04F094FEBDEC108B02B041EC59
:104C3000100B70BD9FED7E0B51EC180B53EC102B3D
:104C400004F01CFB41EC100B51EC180B53EC102B37
:104C500004F0C8FB41EC190B284604F057FD41EC69
:104C60001B0B53EC192B51EC190B04F067FD41ECB5
:104C70001A0B714853EC1A2B261851EC1A0B04F03E
:104C80005DFD41EC1F0B6D48C4F1510404F5D724C0
:104C9000B0EE4F0AF0EE6F0A0321784400F0D2F82C
:104CA00053EC1F2B51EC100B04F048FD41EC1C0B96
:104CB0006348B0EE4F0AF0EE6F0A0421784400F02A
:104CC000C1F853EC1A2B51EC100B04F037FD3443B0
:104CD00053EC1C2B04F0D2FA41EC1C0B002C4CDDE5
:104CE0009FED510B51EC180B53EC102B04F026FDEB
:104CF00053EC182B04F022FD41EC1A0B55B353EC86
:104D00001D2B51EC1B0B04F019FD41EC1D0B53EC5A
:104D10001C2B51EC1A0B04F0B1FA53EC192B04F0D4
:104D20000DFD53EC1D2B04F0A9FA53EC1A2B04F0E3
:104D300003FE53EC182B04F00BFE41EC180B53EC64
:104D40001E2B51EC1B0B04F0F9FC53EC182B04F058
:104D5000FFFD69E753EC1C2B51EC1A0B04F08EFAA3
:104D600053EC192B04F0EAFC53EC1A2B04F0E4FD8D
:104D700053EC182B04F0E0FD56E735B353EC1D2B34
:104D800051EC1B0B04F0DAFC41EC1A0B53EC1C2B1E
:104D900051EC180B04F0DCFD53EC192B04F0CEFCA5
:104DA00053EC1A2B04F0D4FD53EC182B04F0D0FD77
:104DB00041EC180B53EC1E2B51EC1B0B04F0BEFC0A
:104DC00053EC182B04F0C4FD2EE753EC1C2B51ECD4
:104DD000180B04F0BDFD53EC192B04F0AFFC53ECA1
:104DE000182B04F0A9FD1FE70000F07F0000000071
:104DF0000000000000005043645F09000000000054
:104E0000000000000000F03F763C7935EF39EA3DC4
:104E10000000E0FE422EE63F30510000000000009E
:104E2000555555555555D53F000000000000E03F51
:104E3000000000000000004086EBF9FFB24F0000C8
:104E4000A84F000070B504462DED028B4D1E00EBFF
:104E5000C500B0EE408AF0EE608A90ED000B35F0B0
:104E6000060017D053EC182B51EC100B04F066FC25
:104E700041EC100B6D1E04EBC50090ED001B51ECD6
:104E8000100B53EC112B04F0F9F941EC100B35F039
:104E90000600E7D1022D36D0042D1CD0062D1CBFF4
:104EA000BDEC028B70BD53EC182B51EC100B04F0D1
:104EB00045FC94ED0A1B53EC112B04F0DFF953EC85
:104EC000182B04F03BFC94ED081B53EC112B04F061
:104ED000D5F941EC100B53EC182B51EC100B04F0EE
:104EE0002DFC94ED061B53EC112B04F0C7F953EC89
:104EF000182B04F023FC94ED040B53EC102B04F05E
:104F0000BDF941EC100B53EC182B51EC100B04F0D5
:104F100015FC94ED021B53EC112B04F0AFF953EC8C
:104F2000182B04F00BFC94ED001B53EC112B04F038
:104F3000A5F9BDEC028B41EC100B70BD0000000028
:104F40009FED070B10B553EC102B9FED070B51ECA9
:104F5000100B04F047FA41EC100B10BD00000000EC
:104F60000000000000000000000000000000F03F12
:104F700010B553EC102B51EC100B04F07FF941EC01
:104F8000100B10BD000000009FED050B10B553EC99
:104F9000102B51EC100B04F025FA41EC100B10BD56
:104FA000000000000000000010B50446042000F0DE
:104FB0004FFDFA2202490348FCF7B0FC10BD000087
:104FC0001C020020B001002010B5044694F83900FE
:104FD00000F0040040B1082000F03AFD94F83900D8
:104FE00020F0040084F83900052204F10801024889
:104FF000FCF794FC10BD0000B001002010B5044681
:105000000148FCF737FD10BDB001002070470000DB
:1050100070B52DED028B06460D46B0EE408A3D4838
:10502000C4682878012811D1B7EE000A70EE480A4A
:1050300000EE104AB8EE400A20EE800ABCEEC00A2C
:1050400010EE100A33490968486302E031480068ED
:105050004463A878012811D1B7EE000A70EE480A1F
:1050600000EE104AB8EE400A20EE800ABCEEC00AFC
:1050700010EE100A27490968886302E02548006895
:1050800084632879012811D1B7EE000A70EE480A2E
:1050900000EE104AB8EE400A20EE800ABCEEC00ACC
:1050A00010EE100A1B490968C86302E0194800683D
:1050B000C4636878012805D1012241031648FCF732
:1050C00099FF05E000224FF400511348FCF792FFCE
:1050D000E878012805D1012281030F48FCF78AFFF7
:1050E00005E000224FF480410B48FCF783FF68790C
:1050F000012805D10122C1030748FCF77BFF05E029
:1051000000224FF400410448FCF774FFBDEC028B11
:1051100070BD0000380500200004004810B586B0BE
:105120000446207A00F0080000BB00BF00BF194809
:10513000C06C40F004001749C8640846C06C00F019
:105140000400009000BF00BF00BF4FF4005001906A
:105150000120029000200390049001A90E48FCF762
:1051600051FE207A40F00800207200BF0122510356
:105170000948FCF73FFF00210848FEF7F9FA04212F
:105180000648FEF7F5FA08210448FEF7F1FA06B0E2
:1051900010BD000000100240000800483805002043
:1051A00070B505461748C46800224FF400511648F0
:1051B000FCF720FF00211348FEF790FB0421114863
:1051C000FEF78CFB08210F48FEF788FB0D480068AE
:1051D00044630C48006884630A480068C463002282
:1051E0004FF400510948FCF705FF00224FF48041BD
:1051F0000648FCF7FFFE00224FF400410348FCF78D
:10520000F9FE70BD38050020000800480004004881
:1052100010B502460B46074800788030801AC11846
:10522000C81701EB5060C011A1EBC010024C205C0C
:1052300010BD00008D000020A0040020B0EE403A18
:10524000027C022A08D1F0EE003A83EE231AB0EE77
:10525000410AF1EE410A11E0027C012A08D1B6EEC2
:10526000001AF0EE003A83EE230AF1EE400A05E060
:105270009FED231AB0EE430ADFED210A0A784B783E
:105280009A420ED1DFED1E1A8A78012A04D1B0EEBF
:10529000402AF0EE602A25E0B0EE602AF0EE402AC7
:1052A00020E08A78CB789A420ED19FED152A0A78B1
:1052B000012A04D1F0EE401AF0EE602A12E0F0EE7E
:1052C000601AF0EE402A0DE0DFED0D2A0A78012A7F
:1052D00004D1F0EE401AB0EE602A03E0F0EE601A5E
:1052E000B0EE402A71EE813AC0ED013A72EE013A19
:1052F000C0ED023A72EE813AC0ED033A7047000009
:105300000000000070B500240026002500BF20E04A
:10531000002621461720FFF77BFF0643601CC1B221
:105320001720FFF775FF46EA0026A01CC1B2172020
:10533000FFF76EFF46EA0046E01CC1B21720FFF7F8
:1053400067FF46EA00661748864200D103E0601C0A
:10535000C4B2142CDCDB00BF142C01D1002070BDC2
:10536000601DC1B21720FFF753FF0543A01DC1B256
:105370001720FFF74DFF45EA0025E01DC1B21720B9
:10538000FFF746FF45EA004504F10800C1B21720C7
:10539000FFF73EFF45EA00650B2D01D20020DEE756
:1053A000E8B2DCE7535A48590021074A1160074A1E
:1053B00011709FED070A074981ED000A417F41F016
:1053C0000801417770470000B4000020B8000020B9
:1053D00000000000BC0000202DE9F04105460E460B
:1053E00017464FF00008002401214FF09040FCF7D1
:1053F000EFFD08B144F0040402214FF09040FCF7A7
:10540000E7FD08B144F0020404214FF09040FCF79E
:10541000DFFD18B144F001044FF001082B4800787B
:10542000404514D12A480068401C294908600846B4
:10543000006842F21071884240D900202449086077
:105440009FED240A244880ED000ABDE8F081204841
:10545000006840B31E4890ED000AB8EE400ADFED48
:105460001F0A80EE801A1C4880ED001A90ED000A99
:10547000DFED1B0AB4EEE00AF1EE10FA02DD9FED5B
:10548000180A02E0144890ED000A134880ED000A63
:10549000287F01280CD1104890ED000AB1EE400A97
:1054A00080ED000A04E09FED0B0A0B4880ED000A36
:1054B000064880F80080002005490860064890ED05
:1054C000000A87ED000A347000BFBEE7B800002074
:1054D000B400002000000000BC00002000606A480A
:1054E00000007A4510B50446607F00F0040028B142
:1054F00000F084FE607F20F00400607710BD7047EC
:1055000010B504462CB94FF480510A48FCF760FDF1
:1055100010BD012C04D161030648FCF759FDF7E7E3
:10552000022C04D161030348FCF752FDF0E701208F
:10553000EEE70000001000482DE9F04F2DED048B40
:1055400087B006467348007873490978884204D1C9
:1055500007B0BDEC048BBDE8F08F6F4800786D4953
:105560000870FFF7CFFE044604B9F1E7002507E015
:1055700029462046FFF74CFE01A94855681CC5B2D4
:10558000A542F5DB9DF80D70D6F80C80D6F8089092
:10559000A7F11000062879D2DFE800F0035A7983DA
:1055A0008D9A9DF811004FF07F4101EA00609DF84F
:1055B00010104FF47F0202EA014108439DF80F10DA
:1055C000121202EA012108439DF80E1040EA01057B
:1055D0009DF81500110401EA00609DF814101202F4
:1055E00002EA014108439DF81310121202EA012158
:1055F00008439DF8121040EA010A9DF819001104B1
:1056000001EA00609DF81810120202EA0141084305
:105610009DF81710121202EA012108439DF8161096
:1056200040EA010B00EE105AB0EE408A00EE10AADC
:10563000F0EE408A00EE10BAB0EE409AB0EE491A91
:10564000F0EE680AB0EE480A404602F0DDFC5EE08B
:105650009DF811004FF07F4101EA00609DF81010A5
:105660004FF47F0202EA014108439DF80F10121225
:1056700002EA012108439DF80E10084308EE100AC3
:10568000B8EEC80A404602F071FD40E03EE04846F0
:1056900002F0ECFA00231A460121042000F054F82D
:1056A00035E0484602F0ACFB00231A4601210520F4
:1056B00000F04AF82BE0404602F052FC484602F067
:1056C0009FFB00231A460121052000F03DF81EE053
:1056D0009DF811004FF07F4101EA00609DF8101025
:1056E0004FF47F0202EA014108439DF80F101212A5
:1056F00002EA012108439DF80E10084308EE100A43
:10570000B8EEC80A404602F077FD00E000BF00BFD7
:1057100000BF1DE78D0000208C00002001460878A6
:10572000074A084B1B78D054064A1278501CC217FF
:1057300000EB5262D211A0EBC212024B1A707047FA
:10574000A00400208C000020F8B505460E46174640
:105750001C4600200090A006040E1448144908605E
:1057600004F10B00C1F805000846067145720A22D3
:10577000002000F099FA0090224639469DF800007A
:1057800000F092FA0090FF230A2209490948FEF727
:1057900073FAFF23224639460648FEF76DFAFF23C7
:1057A000012269460348FEF767FAF8BD535A485983
:1057B0002005002010040020FEB506460F46F468C0
:1057C000072F5DD2DFE807F05C042330151C410091
:1057D00000250BE006F1100000EB8502681CC1B249
:1057E00001230220FFF7B0FF681CC5B2052DF1DBD5
:1057F00047E000231A4601210420FFF7A5FF40E0FF
:1058000000231A4601210520FFF79EFF39E094EDA1
:10581000000ABDEEC00A8DED020A012302AA194654
:105820001846FFF791FF2CE094ED0B0ADFED160A06
:1058300020EE200ABDEEC00A8DED020A012302AA65
:1058400019460620FFF780FF1BE094ED050A8DED59
:10585000000A94ED060AD4ED0B0A80EE201A8DEDB5
:10586000011A94ED070AD4ED0B0A20EE200A8DED03
:10587000020A03236A4601211846FFF765FF00BFAD
:1058800000BF00BFFEBD000000007A44704700006A
:1058900010B50446A07F042804D10848006800F031
:1058A00047F806E0A07F052803D10548006800F00E
:1058B0003FF8607F40F00800607710BD5400002082
:1058C000580000207047000070B504460D4616468B
:1058D000A07F042812D1207F13490968C87112489B
:1058E000006800F037F81048006890ED020A86ED75
:1058F000000A0D4800688079287014E0A07F052810
:1059000011D1207F09490968C8710848006800F072
:1059100021F80648006890ED020A86ED000A034867
:1059200000688079287070BD540000205800002065
:105930000021018041804171017181719FED040A54
:1059400080ED020A9FED020A80ED030AC1717047E3
:105950000000000030B5417921B1012913D002299E
:1059600048D11BE00121417123490978817100214F
:1059700001714FF47A710180002141809FED1F0A6F
:1059800080ED020A36E041880288914202D102216C
:10599000417102E04188491C41802BE00188027975
:1059A000531C062493FBF4F504FB1533DAB20C23E5
:1059B00091FBF3F35B1CCB1A99B2C82900DAC8211A
:1059C000C3791BB90C4B9B5C837102E00C4B9B5C55
:1059D000837100EE101AB8EE400ADFED0A0A80EE7D
:1059E000801A80ED021A0180002343800271012396
:1059F000437100BF00BF30BD480000200000000020
:105A00004E0000200050C347417F01F0040119B14E
:105A1000417F21F0040141777047704700BF704714
:105A200000BF7047F0B589B007460C4615461E46C4
:105A30000194029503967F20049004200590002095
:105A4000069001A93846FBF747FA09B0F0BD0000FF
:105A500038B5044600BF3048806C40F004002E4941
:105A600088640846806C00F00400009000BF00BF0E
:105A700000BF0846806C40F0010088640846806CD6
:105A800000F00100009000BF00BF244824490860D6
:105A900005204860002122488160C16080210161A9
:105AA00049004161890081612021C161C901016210
:105AB000FCF7DEF8204600F041F8022306221949DF
:105AC0001948FFF7AFFF02230C2218491648FFF7C9
:105AD000A9FF0223122216491348FFF7A3FF02234E
